{
  "contractName": "NewsLimited",
  "abi": [
    {
      "constant": true,
      "inputs": [],
      "name": "news",
      "outputs": [
        {
          "name": "",
          "type": "address"
        }
      ],
      "payable": false,
      "stateMutability": "view",
      "type": "function",
      "signature": "0x5144417c"
    },
    {
      "constant": true,
      "inputs": [],
      "name": "registry",
      "outputs": [
        {
          "name": "",
          "type": "address"
        }
      ],
      "payable": false,
      "stateMutability": "view",
      "type": "function",
      "signature": "0x7b103999"
    },
    {
      "anonymous": false,
      "inputs": [
        {
          "indexed": false,
          "name": "x",
          "type": "address"
        },
        {
          "indexed": false,
          "name": "w",
          "type": "string"
        }
      ],
      "name": "rumor",
      "type": "event",
      "signature": "0xfa84967dc7ab97c11128a4eb446bc9e7762cc54df3816c298ea811bbb642a3c8"
    },
    {
      "constant": false,
      "inputs": [
        {
          "name": "_registry",
          "type": "address"
        },
        {
          "name": "_news",
          "type": "address"
        }
      ],
      "name": "initplz",
      "outputs": [],
      "payable": false,
      "stateMutability": "nonpayable",
      "type": "function",
      "signature": "0xa3a23fe7"
    },
    {
      "constant": false,
      "inputs": [
        {
          "name": "_weblink",
          "type": "string"
        }
      ],
      "name": "Rumors",
      "outputs": [],
      "payable": false,
      "stateMutability": "nonpayable",
      "type": "function",
      "signature": "0x6791f1e3"
    },
    {
      "constant": false,
      "inputs": [
        {
          "name": "_jor",
          "type": "address"
        },
        {
          "name": "_amount",
          "type": "uint256"
        }
      ],
      "name": "support",
      "outputs": [
        {
          "name": "",
          "type": "bool"
        }
      ],
      "payable": false,
      "stateMutability": "nonpayable",
      "type": "function",
      "signature": "0x36c96cc0"
    }
  ],
  "bytecode": "0x608060405234801561001057600080fd5b506108b9806100206000396000f3fe60806040526004361061006c5763ffffffff7c010000000000000000000000000000000000000000000000000000000060003504166336c96cc081146100715780635144417c146100be5780636791f1e3146100ef5780637b103999146101a4578063a3a23fe7146101b9575b600080fd5b34801561007d57600080fd5b506100aa6004803603604081101561009457600080fd5b50600160a060020a0381351690602001356101f4565b604080519115158252519081900360200190f35b3480156100ca57600080fd5b506100d361041d565b60408051600160a060020a039092168252519081900360200190f35b3480156100fb57600080fd5b506101a26004803603602081101561011257600080fd5b81019060208101813564010000000081111561012d57600080fd5b82018360208201111561013f57600080fd5b8035906020019184600183028401116401000000008311171561016157600080fd5b91908080601f01602080910402602001604051908101604052809392919081815260200183838082843760009201919091525092955061042c945050505050565b005b3480156101b057600080fd5b506100d36105df565b3480156101c557600080fd5b506101a2600480360360408110156101dc57600080fd5b50600160a060020a03813581169160200135166105ee565b60008054604080517ff72c436f000000000000000000000000000000000000000000000000000000008152600160a060020a0386811660048301529151919092169163f72c436f916024808301926020929190829003018186803b15801561025b57600080fd5b505afa15801561026f573d6000803e3d6000fd5b505050506040513d602081101561028557600080fd5b505115156102f457604080517f08c379a000000000000000000000000000000000000000000000000000000000815260206004820152601860248201527f737570706f7274206a6f75726e616c69737473206f6e6c790000000000000000604482015290519081900360640190fd5b6000821161036357604080517f08c379a000000000000000000000000000000000000000000000000000000000815260206004820152600b60248201527f6e6f207a65726f20706c7a000000000000000000000000000000000000000000604482015290519081900360640190fd5b600154604080517f23b872dd0000000000000000000000000000000000000000000000000000000081523360048201819052600160a060020a038781166024840152604483018790529251909392909216916323b872dd916064808201926020929091908290030181600087803b1580156103dd57600080fd5b505af11580156103f1573d6000803e3d6000fd5b505050506040513d602081101561040757600080fd5b50610413905084610629565b5060019392505050565b600154600160a060020a031681565b600054604080517ff72c436f0000000000000000000000000000000000000000000000000000000081523360048201529051600160a060020a039092169163f72c436f91602480820192602092909190829003018186803b15801561049057600080fd5b505afa1580156104a4573d6000803e3d6000fd5b505050506040513d60208110156104ba57600080fd5b5051151561052957604080517f08c379a000000000000000000000000000000000000000000000000000000000815260206004820152600f60248201527f6a6f75726e616c697374206f6e6c790000000000000000000000000000000000604482015290519081900360640190fd5b7ffa84967dc7ab97c11128a4eb446bc9e7762cc54df3816c298ea811bbb642a3c833826040518083600160a060020a0316600160a060020a0316815260200180602001828103825283818151815260200191508051906020019080838360005b838110156105a1578181015183820152602001610589565b50505050905090810190601f1680156105ce5780820380516001836020036101000a031916815260200191505b50935050505060405180910390a150565b600054600160a060020a031681565b60008054600160a060020a0393841673ffffffffffffffffffffffffffffffffffffffff199182161790915560018054929093169116179055565b600154604080517f18160ddd0000000000000000000000000000000000000000000000000000000081529051600092600160a060020a0316916318160ddd916004808301926020929190829003018186803b15801561068757600080fd5b505afa15801561069b573d6000803e3d6000fd5b505050506040513d60208110156106b157600080fd5b505190506a17293b0a9e69fd9c00000081101561075c57600154604080517f40c10f19000000000000000000000000000000000000000000000000000000008152600160a060020a03858116600483015269065a4da25d3016c000006024830152915191909216916340c10f1991604480830192600092919082900301818387803b15801561073f57600080fd5b505af1158015610753573d6000803e3d6000fd5b50505050610889565b6a260ce0ff28d2b2ee0000008110156107e657600154604080517f40c10f19000000000000000000000000000000000000000000000000000000008152600160a060020a03858116600483015269043c33c19375648000006024830152915191909216916340c10f1991604480830192600092919082900301818387803b15801561073f57600080fd5b6a52b7d2dcc80cd2e400000081101561088957600154604080517f40c10f19000000000000000000000000000000000000000000000000000000008152600160a060020a03858116600483015269014542ba12a337c000006024830152915191909216916340c10f1991604480830192600092919082900301818387803b15801561087057600080fd5b505af1158015610884573d6000803e3d6000fd5b505050505b505056fea165627a7a7230582034feef2b8034f08824f158e2f25e7c47753b7998e273741dd22d84a328c1b8670029",
  "source": "pragma solidity 0.5.0;\n\n//todo,onlyowner modifier on initplz function or make it constructor or use homework.\nimport { HumanityRegistry } from \"./HumanityRegistry.sol\";\nimport { Ifox } from \"./Ifox.sol\";\n\ncontract NewsLimited {\n    event rumor(address x, string w);\n    HumanityRegistry public registry;\n    Ifox public news;\n    \n    function initplz(HumanityRegistry _registry, Ifox _news) public {\n        registry = _registry;\n        news = _news;\n    }\n    \n    function Rumors(string memory _weblink) public {\n        require(registry.isHuman(msg.sender), \"journalist only\");\n        \n        emit rumor(msg.sender, _weblink);\n        \n    } \n    \n    function reward(address jor) internal {\n    uint totalSupply = news.totalSupply();\n        \n    if (totalSupply < 28000000e18) {\n            news.mint(jor, 30000e18); // 1 - 100\n    } else if (totalSupply < 46000000e18) {\n             news.mint(jor, 20000e18); // 101 - 1000\n    } else if (totalSupply < 100000000e18) {\n            news.mint(jor, 6000e18); // 1001 - 10000\n    }\n    }\n    function support(address _jor, uint256 _amount) public returns(bool) {\n\t    require(registry.isHuman(_jor), \"support journalists only\");\n\t\trequire(_amount > 0, \"no zero plz\");\n\t\taddress payer = msg.sender;\n\t\tnews.transferFrom(payer, _jor, _amount);\n        reward(_jor);\n        return true;\n    }\n}",
  "sourcePath": "/media/eman-herawy/06a83b1f-0bf4-4872-8ba9-a878bd1ab3251/home/eherrawy/LocalD/work/gitcoin/true-news/NewsLimited/contract-with-truffle/contracts/NewsLimited.sol",
  "compiler": {
    "name": "solc",
    "version": "0.5.0+commit.1d4f565a.Linux.g++"
  },
  "schemaVersion": "3.0.0",
  "updatedAt": "2019-07-10T22:06:50.034Z",
  "devdoc": {
    "methods": {}
  },
  "userdoc": {
    "methods": {}
  }
}