{
  "contractName": "SourceMaterial",
  "abi": [
    {
      "inputs": [],
      "payable": false,
      "stateMutability": "nonpayable",
      "type": "constructor"
    },
    {
      "anonymous": false,
      "inputs": [
        {
          "indexed": false,
          "name": "_ipfsHash",
          "type": "string"
        },
        {
          "indexed": false,
          "name": "_address",
          "type": "address"
        }
      ],
      "name": "ipfsSent",
      "type": "event"
    },
    {
      "anonymous": false,
      "inputs": [
        {
          "indexed": false,
          "name": "response",
          "type": "string"
        }
      ],
      "name": "inboxResponse",
      "type": "event"
    },
    {
      "anonymous": false,
      "inputs": [
        {
          "indexed": false,
          "name": "ipfsEth",
          "type": "string"
        }
      ],
      "name": "returnipfsHash",
      "type": "event"
    },
    {
      "constant": false,
      "inputs": [
        {
          "name": "x",
          "type": "string"
        }
      ],
      "name": "setHash",
      "outputs": [],
      "payable": false,
      "stateMutability": "nonpayable",
      "type": "function"
    },
    {
      "constant": false,
      "inputs": [
        {
          "name": "ipfsEth",
          "type": "string"
        }
      ],
      "name": "getHash",
      "outputs": [
        {
          "name": "x",
          "type": "string"
        }
      ],
      "payable": false,
      "stateMutability": "nonpayable",
      "type": "function"
    },
    {
      "constant": false,
      "inputs": [
        {
          "name": "_address",
          "type": "address"
        },
        {
          "name": "_ipfsHash",
          "type": "string"
        }
      ],
      "name": "sendIPFS",
      "outputs": [],
      "payable": false,
      "stateMutability": "nonpayable",
      "type": "function"
    },
    {
      "constant": false,
      "inputs": [],
      "name": "checkInbox",
      "outputs": [],
      "payable": false,
      "stateMutability": "nonpayable",
      "type": "function"
    },
    {
      "constant": false,
      "inputs": [],
      "name": "toggleContractActive",
      "outputs": [],
      "payable": false,
      "stateMutability": "nonpayable",
      "type": "function"
    },
    {
      "constant": false,
      "inputs": [],
      "name": "deposit",
      "outputs": [],
      "payable": false,
      "stateMutability": "nonpayable",
      "type": "function"
    },
    {
      "constant": false,
      "inputs": [],
      "name": "withdraw",
      "outputs": [],
      "payable": false,
      "stateMutability": "nonpayable",
      "type": "function"
    }
  ],
  "bytecode": "0x60806040526000600160006101000a81548160ff02191690831515021790555034801561002b57600080fd5b50610ab88061003b6000396000f3fe608060405234801561001057600080fd5b506004361061007d5760003560e01c80635b6beeb91161005b5780635b6beeb9146101515780635c23d56f146102855780636bfc70e21461028f578063d0e30db01461036a5761007d565b80631385d24c146100825780631ed83fd41461008c5780633ccfd60b14610147575b600080fd5b61008a610374565b005b610145600480360360208110156100a257600080fd5b81019080803590602001906401000000008111156100bf57600080fd5b8201836020820111156100d157600080fd5b803590602001918460018302840111640100000000831117156100f357600080fd5b91908080601f016020809104026020016040519081016040528093929190818152602001838380828437600081840152601f19601f8201169050808301925050505050505091929192905050506103f9565b005b61014f610413565b005b61020a6004803603602081101561016757600080fd5b810190808035906020019064010000000081111561018457600080fd5b82018360208201111561019657600080fd5b803590602001918460018302840111640100000000831117156101b857600080fd5b91908080601f016020809104026020016040519081016040528093929190818152602001838380828437600081840152601f19601f820116905080830192505050505050509192919290505050610423565b6040518080602001828103825283818151815260200191508051906020019080838360005b8381101561024a57808201518184015260208101905061022f565b50505050905090810190601f1680156102775780820380516001836020036101000a031916815260200191505b509250505060405180910390f35b61028d610563565b005b610368600480360360408110156102a557600080fd5b81019080803573ffffffffffffffffffffffffffffffffffffffff169060200190929190803590602001906401000000008111156102e257600080fd5b8201836020820111156102f457600080fd5b8035906020019184600183028401116401000000008311171561031657600080fd5b91908080601f016020809104026020016040519081016040528093929190818152602001838380828437600081840152601f19601f8201169050808301925050505050505091929192905050506107b9565b005b6103726109ce565b005b6001809054906101000a900473ffffffffffffffffffffffffffffffffffffffff1673ffffffffffffffffffffffffffffffffffffffff163373ffffffffffffffffffffffffffffffffffffffff16146103cd57600080fd5b600160009054906101000a900460ff1615600160006101000a81548160ff021916908315150217905550565b806000908051906020019061040f9291906109de565b5050565b600160009054906101000a905050565b60607fb605c9900ceb7c4fa4fbdc2ab62e2a8bd57020f750bbb045fc42570abc1daabc826040518080602001828103825283818151815260200191508051906020019080838360005b8381101561048757808201518184015260208101905061046c565b50505050905090810190601f1680156104b45780820380516001836020036101000a031916815260200191505b509250505060405180910390a160008054600181600116156101000203166002900480601f0160208091040260200160405190810160405280929190818152602001828054600181600116156101000203166002900480156105575780601f1061052c57610100808354040283529160200191610557565b820191906000526020600020905b81548152906001019060200180831161053a57829003601f168201915b50505050509050919050565b6060600260003373ffffffffffffffffffffffffffffffffffffffff1673ffffffffffffffffffffffffffffffffffffffff1681526020019081526020016000208054600181600116156101000203166002900480601f0160208091040260200160405190810160405280929190818152602001828054600181600116156101000203166002900480156106385780601f1061060d57610100808354040283529160200191610638565b820191906000526020600020905b81548152906001019060200180831161061b57829003601f168201915b505050505090506000815114156106b6577f2974ec83b4de9f76155d0c3e88bd3c0645c56c1795807f37d3f9e95caafeee5760405180806020018281038252600b8152602001807f456d70747920496e626f7800000000000000000000000000000000000000000081525060200191505060405180910390a16107b6565b60405180602001604052806000815250600260003373ffffffffffffffffffffffffffffffffffffffff1673ffffffffffffffffffffffffffffffffffffffff16815260200190815260200160002090805190602001906107189291906109de565b507f2974ec83b4de9f76155d0c3e88bd3c0645c56c1795807f37d3f9e95caafeee57816040518080602001828103825283818151815260200191508051906020019080838360005b8381101561077b578082015181840152602081019050610760565b50505050905090810190601f1680156107a85780820380516001836020036101000a031916815260200191505b509250505060405180910390a15b50565b600260008373ffffffffffffffffffffffffffffffffffffffff1673ffffffffffffffffffffffffffffffffffffffff1681526020019081526020016000208054600181600116156101000203166002900480601f01602080910402602001604051908101604052809291908181526020018280546001816001161561010002031660029004801561088c5780601f106108615761010080835404028352916020019161088c565b820191906000526020600020905b81548152906001019060200180831161086f57829003601f168201915b5050505050606081905060008151146108a457600080fd5b82600260008673ffffffffffffffffffffffffffffffffffffffff1673ffffffffffffffffffffffffffffffffffffffff16815260200190815260200160002090805190602001906108f79291906109de565b507fd3896131bca4353bcda578f36768163e2ca77cefb2988be6c4e81939ca298ac0838560405180806020018373ffffffffffffffffffffffffffffffffffffffff1673ffffffffffffffffffffffffffffffffffffffff168152602001828103825284818151815260200191508051906020019080838360005b8381101561098d578082015181840152602081019050610972565b50505050905090810190601f1680156109ba5780820380516001836020036101000a031916815260200191505b50935050505060405180910390a150505050565b600160009054906101000a905050565b828054600181600116156101000203166002900490600052602060002090601f016020900481019282601f10610a1f57805160ff1916838001178555610a4d565b82800160010185558215610a4d579182015b82811115610a4c578251825591602001919060010190610a31565b5b509050610a5a9190610a5e565b5090565b610a8091905b80821115610a7c576000816000905550600101610a64565b5090565b9056fea265627a7a72305820aeb7d1ecb135581a9ad240acf018741c74ff5fc7d03ea8a887ea0abf205da0ca64736f6c634300050a0032",
  "source": "pragma solidity ^0.5.0;\nimport \"./Ownable.sol\";\n\n/// @author Chris Spannos\n/// @title Invest-y-gative\n\ncontract SourceMaterial {\n    string ipfsHash;\n    ///For circuitbreaker\n    bool private stopped = false;\n    address private owner;\n\n    /// Grabs the IPFS file hash based on the address.\n    mapping (address => string) ipfsInbox;\n\n    /// ipfsSent sends the IPFS file hash to a recipient.\n    event ipfsSent(string _ipfsHash, address _address);\n\n    /// inboxResponse sends a notification to the user that they have a message waiting.\n    event inboxResponse(string response);\n\n    /// returnipfsHash calls the IPFS file hash for display in the TX receipt.\n    event returnipfsHash(string ipfsEth);\n\n    /// For circuitbreaker\n    modifier isAdmin() {\n        require(msg.sender == owner);\n        _;\n    }\n\n    /// Modifiers are used here to check the account state in the function 'sendIPFS' for account notificaitons.\n    modifier notFull (string memory _string) {\n      bytes memory stringTest = bytes(_string);\n      require (stringTest.length == 0);\n      _;\n    }\n\n    /// This empty constructor is used to initialize the contract.\n    constructor() public {\n\n    }\n\n    /// Store 'x' (the IPFS file hash) in the contract state.\n    /// @param x the new value to store.\n    /// @dev stores the IPFS file hash in the state variable 'setHash'.\n    function setHash(string memory x) public {\n      ipfsHash = x;\n    }\n\n    /// Return 'x' (the IPFS file hash) from the contract memory.\n    /// @param x is the verified IPFS file hash.\n    /// @dev returns the IPFS file hash when state variable 'getHash is called'.\n    function getHash(string memory ipfsEth) public returns (string memory x) {\n      emit returnipfsHash(ipfsEth);\n      return ipfsHash;\n    }\n\n    /// The IPFS file hash is sent to a recipeint account.\n    /// @param _ipfsHash is the value called from the contact state.\n    /// @dev sendIPFS sends the file hash to '_address'.\n    function sendIPFS(address _address, string memory _ipfsHash)\n        notFull(ipfsInbox[_address])\n        public\n    {\n       ipfsInbox[_address] = _ipfsHash;\n       emit ipfsSent(_ipfsHash, _address);\n    }\n\n    /// This function checks the value of 'ipfs_hash' to see if it is storing bytes.\n    /// If the value is storing 0 > bytes it emits a notificaitons.\n    /// @dev 'checkInbox checks 'ipfs_hash' and, if there is 0 > bytes emits and responce to the account checking.\n    function checkInbox()\n        public\n    {\n        string memory ipfs_hash = ipfsInbox[msg.sender];\n        if(bytes(ipfs_hash).length == 0) {\n            emit inboxResponse(\"Empty Inbox\");\n        } else {\n            ipfsInbox[msg.sender] = \"\";\n            emit inboxResponse(ipfs_hash);\n        }\n    }\n    /// For circuitbreaker\n    function toggleContractActive() isAdmin public {\n        // You can add an additional modifier that restricts stopping a contract to be based on another action, such as a vote of users\n        stopped = !stopped;\n    }\n    /// For circuitbreaker\n    modifier stopInEmergency { if (!stopped) _; }\n    modifier onlyInEmergency { if (stopped) _; }\n\n    /// For circuitbreaker\n    function deposit() stopInEmergency public {\n        // some code\n    }\n\n    /// For circuitbreaker\n    function withdraw() onlyInEmergency public {\n        // some code\n    }\n\n}\n",
  "sourcePath": "/home/shevek/Documents/blockchain/Invest-y-gative/contracts/SourceMaterial.sol",
  "compiler": {
    "name": "solc",
    "version": "0.5.10+commit.5a6ea5b1.Emscripten.clang"
  },
  "schemaVersion": "3.0.11",
  "updatedAt": "2019-07-10T22:35:16.598Z",
  "devdoc": {
    "author": "Chris Spannos",
    "methods": {
      "checkInbox()": {
        "details": "'checkInbox checks 'ipfs_hash' and, if there is 0 > bytes emits and responce to the account checking."
      },
      "getHash(string)": {
        "details": "returns the IPFS file hash when state variable 'getHash is called'.",
        "params": {
          "x": "is the verified IPFS file hash."
        }
      },
      "sendIPFS(address,string)": {
        "details": "sendIPFS sends the file hash to '_address'.",
        "params": {
          "_ipfsHash": "is the value called from the contact state."
        }
      },
      "setHash(string)": {
        "details": "stores the IPFS file hash in the state variable 'setHash'.",
        "params": {
          "x": "the new value to store."
        }
      }
    },
    "title": "Invest-y-gative"
  },
  "userdoc": {
    "methods": {
      "checkInbox()": {
        "notice": "This function checks the value of 'ipfs_hash' to see if it is storing bytes. If the value is storing 0 > bytes it emits a notificaitons."
      },
      "constructor": "This empty constructor is used to initialize the contract.",
      "deposit()": {
        "notice": "For circuitbreaker"
      },
      "getHash(string)": {
        "notice": "Return 'x' (the IPFS file hash) from the contract memory."
      },
      "sendIPFS(address,string)": {
        "notice": "The IPFS file hash is sent to a recipeint account."
      },
      "setHash(string)": {
        "notice": "Store 'x' (the IPFS file hash) in the contract state."
      },
      "toggleContractActive()": {
        "notice": "For circuitbreaker"
      },
      "withdraw()": {
        "notice": "For circuitbreaker"
      }
    }
  }
}