{
  "contractName": "Deben",
  "abi": [
    {
      "constant": true,
      "inputs": [
        {
          "name": "",
          "type": "uint256"
        }
      ],
      "name": "invoices",
      "outputs": [
        {
          "name": "seller",
          "type": "address"
        },
        {
          "name": "buyer",
          "type": "address"
        },
        {
          "name": "liquidityProvider",
          "type": "address"
        },
        {
          "name": "localAmount",
          "type": "uint256"
        },
        {
          "name": "stableCoinAmount",
          "type": "uint256"
        },
        {
          "name": "weiAmount",
          "type": "uint256"
        }
      ],
      "payable": false,
      "stateMutability": "view",
      "type": "function"
    },
    {
      "constant": false,
      "inputs": [],
      "name": "renounceOwnership",
      "outputs": [],
      "payable": false,
      "stateMutability": "nonpayable",
      "type": "function"
    },
    {
      "constant": true,
      "inputs": [],
      "name": "owner",
      "outputs": [
        {
          "name": "",
          "type": "address"
        }
      ],
      "payable": false,
      "stateMutability": "view",
      "type": "function"
    },
    {
      "constant": true,
      "inputs": [],
      "name": "USD2EGP",
      "outputs": [
        {
          "name": "",
          "type": "uint256"
        }
      ],
      "payable": false,
      "stateMutability": "view",
      "type": "function"
    },
    {
      "constant": false,
      "inputs": [
        {
          "name": "_newOwner",
          "type": "address"
        }
      ],
      "name": "transferOwnership",
      "outputs": [],
      "payable": false,
      "stateMutability": "nonpayable",
      "type": "function"
    },
    {
      "payable": true,
      "stateMutability": "payable",
      "type": "fallback"
    },
    {
      "anonymous": false,
      "inputs": [
        {
          "indexed": true,
          "name": "seller",
          "type": "address"
        },
        {
          "indexed": true,
          "name": "buyer",
          "type": "address"
        },
        {
          "indexed": true,
          "name": "invoiceId",
          "type": "uint256"
        },
        {
          "indexed": false,
          "name": "change",
          "type": "uint256"
        }
      ],
      "name": "Paid",
      "type": "event"
    },
    {
      "anonymous": false,
      "inputs": [
        {
          "indexed": true,
          "name": "seller",
          "type": "address"
        },
        {
          "indexed": true,
          "name": "liquidityProvider",
          "type": "address"
        },
        {
          "indexed": true,
          "name": "invoiceId",
          "type": "uint256"
        }
      ],
      "name": "Settled",
      "type": "event"
    },
    {
      "anonymous": false,
      "inputs": [
        {
          "indexed": true,
          "name": "previousOwner",
          "type": "address"
        }
      ],
      "name": "OwnershipRenounced",
      "type": "event"
    },
    {
      "anonymous": false,
      "inputs": [
        {
          "indexed": true,
          "name": "previousOwner",
          "type": "address"
        },
        {
          "indexed": true,
          "name": "newOwner",
          "type": "address"
        }
      ],
      "name": "OwnershipTransferred",
      "type": "event"
    },
    {
      "constant": true,
      "inputs": [],
      "name": "invoicesLength",
      "outputs": [
        {
          "name": "length",
          "type": "uint256"
        }
      ],
      "payable": false,
      "stateMutability": "view",
      "type": "function"
    },
    {
      "constant": false,
      "inputs": [
        {
          "name": "_USD2EGP",
          "type": "uint256"
        }
      ],
      "name": "updateExchangerate",
      "outputs": [],
      "payable": false,
      "stateMutability": "nonpayable",
      "type": "function"
    },
    {
      "constant": true,
      "inputs": [],
      "name": "getExpectedRateInWei",
      "outputs": [
        {
          "name": "expectedRate",
          "type": "uint256"
        },
        {
          "name": "slippageRate",
          "type": "uint256"
        }
      ],
      "payable": false,
      "stateMutability": "view",
      "type": "function"
    },
    {
      "constant": true,
      "inputs": [
        {
          "name": "localAmount",
          "type": "uint256"
        }
      ],
      "name": "getExpectedPriceInWei",
      "outputs": [
        {
          "name": "expectedPrice",
          "type": "uint256"
        },
        {
          "name": "slippagePrice",
          "type": "uint256"
        }
      ],
      "payable": false,
      "stateMutability": "view",
      "type": "function"
    },
    {
      "constant": true,
      "inputs": [
        {
          "name": "localAmount",
          "type": "uint256"
        }
      ],
      "name": "getExpectedPriceInStable",
      "outputs": [
        {
          "name": "price",
          "type": "uint256"
        }
      ],
      "payable": false,
      "stateMutability": "view",
      "type": "function"
    },
    {
      "constant": false,
      "inputs": [
        {
          "name": "seller",
          "type": "address"
        },
        {
          "name": "localAmount",
          "type": "uint256"
        }
      ],
      "name": "pay",
      "outputs": [
        {
          "name": "invoiceId",
          "type": "uint256"
        }
      ],
      "payable": true,
      "stateMutability": "payable",
      "type": "function"
    },
    {
      "constant": false,
      "inputs": [
        {
          "name": "invoicesIndex",
          "type": "uint256[]"
        },
        {
          "name": "liquidityProvider",
          "type": "address"
        }
      ],
      "name": "settle",
      "outputs": [
        {
          "name": "totalDAI",
          "type": "uint256"
        }
      ],
      "payable": false,
      "stateMutability": "nonpayable",
      "type": "function"
    }
  ],
  "bytecode": "0x60806040526012600155336000806101000a81548173ffffffffffffffffffffffffffffffffffffffff021916908373ffffffffffffffffffffffffffffffffffffffff16021790555061156b806100586000396000f3006080604052600436106100ba576000357c0100000000000000000000000000000000000000000000000000000000900463ffffffff16806302d33e25146100bc5780634e6d140514610156578063715018a61461023e57806382af142014610255578063874c1bec146102965780638da5cb5b146102c8578063a573e0331461031f578063a5abeb2314610367578063c407687614610392578063eede338e146103e6578063f2fde38b14610413578063fac9c61414610456575b005b3480156100c857600080fd5b5061014060048036038101908080359060200190820180359060200190808060200260200160405190810160405280939291908181526020018383602002808284378201915050505050509192919290803573ffffffffffffffffffffffffffffffffffffffff169060200190929190505050610481565b6040518082815260200191505060405180910390f35b34801561016257600080fd5b5061018160048036038101908080359060200190929190505050610984565b604051808773ffffffffffffffffffffffffffffffffffffffff1673ffffffffffffffffffffffffffffffffffffffff1681526020018673ffffffffffffffffffffffffffffffffffffffff1673ffffffffffffffffffffffffffffffffffffffff1681526020018573ffffffffffffffffffffffffffffffffffffffff1673ffffffffffffffffffffffffffffffffffffffff168152602001848152602001838152602001828152602001965050505050505060405180910390f35b34801561024a57600080fd5b50610253610a2f565b005b34801561026157600080fd5b5061028060048036038101908080359060200190929190505050610b31565b6040518082815260200191505060405180910390f35b3480156102a257600080fd5b506102ab610b52565b604051808381526020018281526020019250505060405180910390f35b3480156102d457600080fd5b506102dd610cf1565b604051808273ffffffffffffffffffffffffffffffffffffffff1673ffffffffffffffffffffffffffffffffffffffff16815260200191505060405180910390f35b34801561032b57600080fd5b5061034a60048036038101908080359060200190929190505050610d16565b604051808381526020018281526020019250505060405180910390f35b34801561037357600080fd5b5061037c610d39565b6040518082815260200191505060405180910390f35b6103d0600480360381019080803573ffffffffffffffffffffffffffffffffffffffff16906020019092919080359060200190929190505050610d3f565b6040518082815260200191505060405180910390f35b3480156103f257600080fd5b50610411600480360381019080803590602001909291905050506112f3565b005b34801561041f57600080fd5b50610454600480360381019080803573ffffffffffffffffffffffffffffffffffffffff169060200190929190505050611358565b005b34801561046257600080fd5b5061046b6113bf565b6040518082815260200191505060405180910390f35b600080600061048e6114c6565b85519250600091505b8282101561088857600286838151811015156104af57fe5b906020019060200201518154811015156104c557fe5b906000526020600020906006020160c060405190810160405290816000820160009054906101000a900473ffffffffffffffffffffffffffffffffffffffff1673ffffffffffffffffffffffffffffffffffffffff1673ffffffffffffffffffffffffffffffffffffffff1681526020016001820160009054906101000a900473ffffffffffffffffffffffffffffffffffffffff1673ffffffffffffffffffffffffffffffffffffffff1673ffffffffffffffffffffffffffffffffffffffff1681526020016002820160009054906101000a900473ffffffffffffffffffffffffffffffffffffffff1673ffffffffffffffffffffffffffffffffffffffff1673ffffffffffffffffffffffffffffffffffffffff168152602001600382015481526020016004820154815260200160058201548152505090506000816040015173ffffffffffffffffffffffffffffffffffffffff161415156106b9576040517f08c379a000000000000000000000000000000000000000000000000000000000815260040180806020018281038252602a8152602001807f6f6e65206f6620746865207472616e73616374696f6e7320697320616c72656181526020017f647920736574746c65640000000000000000000000000000000000000000000081525060400191505060405180910390fd5b3373ffffffffffffffffffffffffffffffffffffffff16816000015173ffffffffffffffffffffffffffffffffffffffff16141515610786576040517f08c379a00000000000000000000000000000000000000000000000000000000081526004018080602001828103825260258152602001807f796f752063616e206f6e6c7920736574746c6520796f7572206f776e20696e7681526020017f6f6963657300000000000000000000000000000000000000000000000000000081525060400191505060405180910390fd5b846002878481518110151561079757fe5b906020019060200201518154811015156107ad57fe5b906000526020600020906006020160020160006101000a81548173ffffffffffffffffffffffffffffffffffffffff021916908373ffffffffffffffffffffffffffffffffffffffff160217905550858281518110151561080a57fe5b906020019060200201518573ffffffffffffffffffffffffffffffffffffffff16826000015173ffffffffffffffffffffffffffffffffffffffff167f7e79a2206061184e05985ae0578dec52f817756a441996f984cdc817efc25a6860405160405180910390a48060800151840193508180600101925050610497565b73ad6d458402f60fd3bd25163575031acdce07538d73ffffffffffffffffffffffffffffffffffffffff1663a9059cbb86866040518363ffffffff167c0100000000000000000000000000000000000000000000000000000000028152600401808373ffffffffffffffffffffffffffffffffffffffff1673ffffffffffffffffffffffffffffffffffffffff16815260200182815260200192505050602060405180830381600087803b15801561093f57600080fd5b505af1158015610953573d6000803e3d6000fd5b505050506040513d602081101561096957600080fd5b81019080805190602001909291905050505050505092915050565b60028181548110151561099357fe5b90600052602060002090600602016000915090508060000160009054906101000a900473ffffffffffffffffffffffffffffffffffffffff16908060010160009054906101000a900473ffffffffffffffffffffffffffffffffffffffff16908060020160009054906101000a900473ffffffffffffffffffffffffffffffffffffffff16908060030154908060040154908060050154905086565b6000809054906101000a900473ffffffffffffffffffffffffffffffffffffffff1673ffffffffffffffffffffffffffffffffffffffff163373ffffffffffffffffffffffffffffffffffffffff16141515610a8a57600080fd5b6000809054906101000a900473ffffffffffffffffffffffffffffffffffffffff1673ffffffffffffffffffffffffffffffffffffffff167ff8df31144d9c2f0f6b59d69b8b98abd5459d07f2742c4df920b25aae33c6482060405160405180910390a260008060006101000a81548173ffffffffffffffffffffffffffffffffffffffff021916908373ffffffffffffffffffffffffffffffffffffffff160217905550565b6000600154670de0b6b3a76400008302811515610b4a57fe5b049050919050565b600080600073818e6fecd516ecc3849daf6845e3ec868087b75573ffffffffffffffffffffffffffffffffffffffff1663809a9e5573eeeeeeeeeeeeeeeeeeeeeeeeeeeeeeeeeeeeeeee73ad6d458402f60fd3bd25163575031acdce07538d60016040518463ffffffff167c0100000000000000000000000000000000000000000000000000000000028152600401808473ffffffffffffffffffffffffffffffffffffffff1673ffffffffffffffffffffffffffffffffffffffff1681526020018373ffffffffffffffffffffffffffffffffffffffff1673ffffffffffffffffffffffffffffffffffffffff16815260200182815260200193505050506040805180830381600087803b158015610c6a57600080fd5b505af1158015610c7e573d6000803e3d6000fd5b505050506040513d6040811015610c9457600080fd5b8101908080519060200190929190805190602001909291905050508093508194505050610cc16001610b31565b9050670de0b6b3a7640000810290508281811515610cdb57fe5b0492508181811515610ce957fe5b049150509091565b6000809054906101000a900473ffffffffffffffffffffffffffffffffffffffff1681565b600080600080610d24610b52565b91509150818502935080850292505050915091565b60015481565b600080610d4a6114c6565b6000808673ffffffffffffffffffffffffffffffffffffffff163373ffffffffffffffffffffffffffffffffffffffff1614151515610e17576040517f08c379a00000000000000000000000000000000000000000000000000000000081526004018080602001828103825260228152602001807f796f752063616e2774206d616b65207061796d656e7420746f20796f7572736581526020017f6c6600000000000000000000000000000000000000000000000000000000000081525060400191505060405180910390fd5b610e2086610d16565b945050833410151515610e9b576040517f08c379a00000000000000000000000000000000000000000000000000000000081526004018080602001828103825260128152602001807f696e73756666696369656e742066756e6473000000000000000000000000000081525060200191505060405180910390fd5b60c0604051908101604052808873ffffffffffffffffffffffffffffffffffffffff1681526020013373ffffffffffffffffffffffffffffffffffffffff168152602001600073ffffffffffffffffffffffffffffffffffffffff168152602001878152602001610f0b88610b31565b815260200134815250925034915073818e6fecd516ecc3849daf6845e3ec868087b75573ffffffffffffffffffffffffffffffffffffffff1663cb3c28c73473eeeeeeeeeeeeeeeeeeeeeeeeeeeeeeeeeeeeeeee8660a0015173ad6d458402f60fd3bd25163575031acdce07538d3089608001516000806040518963ffffffff167c0100000000000000000000000000000000000000000000000000000000028152600401808873ffffffffffffffffffffffffffffffffffffffff1673ffffffffffffffffffffffffffffffffffffffff1681526020018781526020018673ffffffffffffffffffffffffffffffffffffffff1673ffffffffffffffffffffffffffffffffffffffff1681526020018573ffffffffffffffffffffffffffffffffffffffff1673ffffffffffffffffffffffffffffffffffffffff1681526020018481526020018381526020018273ffffffffffffffffffffffffffffffffffffffff1673ffffffffffffffffffffffffffffffffffffffff1681526020019750505050505050506020604051808303818588803b1580156110ad57600080fd5b505af11580156110c1573d6000803e3d6000fd5b50505050506040513d60208110156110d857600080fd5b8101908080519060200190929190505050508260a0015182033073ffffffffffffffffffffffffffffffffffffffff16310390503373ffffffffffffffffffffffffffffffffffffffff166108fc829081150290604051600060405180830381858888f19350505050158015611152573d6000803e3d6000fd5b5060016002849080600181540180825580915050906001820390600052602060002090600602016000909192909190915060008201518160000160006101000a81548173ffffffffffffffffffffffffffffffffffffffff021916908373ffffffffffffffffffffffffffffffffffffffff16021790555060208201518160010160006101000a81548173ffffffffffffffffffffffffffffffffffffffff021916908373ffffffffffffffffffffffffffffffffffffffff16021790555060408201518160020160006101000a81548173ffffffffffffffffffffffffffffffffffffffff021916908373ffffffffffffffffffffffffffffffffffffffff160217905550606082015181600301556080820151816004015560a08201518160050155505003945084836020015173ffffffffffffffffffffffffffffffffffffffff16846000015173ffffffffffffffffffffffffffffffffffffffff167f26c4308021cef5cdbc618fee8b61faf9de6b8f7e4e49fac43869dc1a26756408846040518082815260200191505060405180910390a45050505092915050565b6000809054906101000a900473ffffffffffffffffffffffffffffffffffffffff1673ffffffffffffffffffffffffffffffffffffffff163373ffffffffffffffffffffffffffffffffffffffff1614151561134e57600080fd5b8060018190555050565b6000809054906101000a900473ffffffffffffffffffffffffffffffffffffffff1673ffffffffffffffffffffffffffffffffffffffff163373ffffffffffffffffffffffffffffffffffffffff161415156113b357600080fd5b6113bc816113cc565b50565b6000600280549050905090565b600073ffffffffffffffffffffffffffffffffffffffff168173ffffffffffffffffffffffffffffffffffffffff161415151561140857600080fd5b8073ffffffffffffffffffffffffffffffffffffffff166000809054906101000a900473ffffffffffffffffffffffffffffffffffffffff1673ffffffffffffffffffffffffffffffffffffffff167f8be0079c531659141344cd1fd0a4f28419497f9722a3daafe3b4186f6b6457e060405160405180910390a3806000806101000a81548173ffffffffffffffffffffffffffffffffffffffff021916908373ffffffffffffffffffffffffffffffffffffffff16021790555050565b60c060405190810160405280600073ffffffffffffffffffffffffffffffffffffffff168152602001600073ffffffffffffffffffffffffffffffffffffffff168152602001600073ffffffffffffffffffffffffffffffffffffffff16815260200160008152602001600081526020016000815250905600a165627a7a7230582001ebbdb214923bb5f86bd22603f5bdf22de51c31cb7b8d5b427a2ff98b3ab7f80029",
  "source": "pragma solidity ^0.4.23;\r\n\r\nimport \"./ERC20Interface.sol\";\r\nimport \"./KyberNetworkProxyInterface.sol\";\r\nimport \"zeppelin-solidity/contracts/ownership/Ownable.sol\";\r\n\r\ncontract Deben is  Ownable {\r\n\r\n    struct Invoice {\r\n        address seller;\r\n        address buyer;\r\n        address liquidityProvider;\r\n\r\n        uint localAmount;\r\n        uint stableCoinAmount;\r\n        uint weiAmount;\r\n    }\r\n\r\n    KyberNetworkProxy constant internal kyber = KyberNetworkProxy(0x818E6FECD516Ecc3849DAf6845e3EC868087B755);\r\n    ERC20 constant internal ETH = ERC20(0xeeeeeeeeeeeeeeeeeeeeeeeeeeeeeeeeeeeeeeee);\r\n    ERC20 constant internal STABLE_COIN = ERC20(0xaD6D458402F60fD3Bd25163575031ACDce07538D);\r\n\r\n    uint public USD2EGP = 18;\r\n    Invoice[] public invoices;\r\n\r\n    //must have default payable since this contract expected to receive change  \r\n    function() public payable {}\r\n\r\n    function invoicesLength() public view returns (uint length) { return invoices.length; }\r\n\r\n    function updateExchangerate(uint _USD2EGP) public onlyOwner { USD2EGP = _USD2EGP; }\r\n\r\n    function getExpectedRateInWei() public view returns (uint expectedRate, uint slippageRate) {\r\n        (expectedRate, slippageRate) = kyber.getExpectedRate(ETH, STABLE_COIN, 1);\r\n\r\n        uint rate = getExpectedPriceInStable(1);\r\n        rate *= 10 ** 18;                // to wei\r\n        expectedRate = rate / expectedRate;\r\n        slippageRate = rate / slippageRate;\r\n    }\r\n\r\n    function getExpectedPriceInWei(uint localAmount) public view returns (uint expectedPrice, uint slippagePrice) {\r\n        (uint expectedRate, uint slippageRate) = getExpectedRateInWei();\r\n        expectedPrice = localAmount * expectedRate;\r\n        slippagePrice = localAmount * slippageRate;\r\n    }\r\n\r\n    function getExpectedPriceInStable(uint localAmount) public view returns (uint price) {\r\n        price = localAmount * 10 ** 18 / USD2EGP;\r\n    }\r\n\r\n    event Paid(address indexed seller, address indexed buyer, uint indexed invoiceId, uint change);\r\n    function pay(address seller, uint localAmount) public payable returns (uint invoiceId) {\r\n\r\n        require(msg.sender != seller, \"you can't make payment to yourself\");\r\n        (, uint slippagePrice) = getExpectedPriceInWei(localAmount);\r\n        require(msg.value >= slippagePrice, \"insufficient funds\");\r\n\r\n        Invoice memory myInvoice = Invoice({\r\n            seller: seller,\r\n            buyer: msg.sender,\r\n            liquidityProvider: 0x0,\r\n            localAmount: localAmount,\r\n            stableCoinAmount: getExpectedPriceInStable(localAmount),\r\n            weiAmount: msg.value\r\n        });\r\n\r\n        // It is possible to take minRate from kyber contract, but best to get it from user.\r\n        //(, uint minRate) = kyber.getExpectedRate(srcToken, destToken, 1);\r\n\r\n        uint startEthBalance = msg.value;\r\n    \r\n        // will send tokens to dest address. change will be sent to this contract.\r\n        kyber.trade.value(msg.value)(\r\n            ETH, myInvoice.weiAmount,\r\n            STABLE_COIN, this, myInvoice.stableCoinAmount,\r\n            0, 0x0000000000000000000000000000000000000000\r\n        );\r\n\r\n        uint change = address(this).balance - (startEthBalance - myInvoice.weiAmount);   // get the change\r\n        msg.sender.transfer(change);                                                     // send back the change\r\n\r\n        invoiceId = invoices.push(myInvoice) - 1;                                        // add to invoice arr\r\n        emit Paid(myInvoice.seller, myInvoice.buyer, invoiceId, change);                 // emmit invoice\r\n    }\r\n\r\n    event Settled(address indexed seller, address indexed liquidityProvider, uint indexed invoiceId);\r\n    function settle(uint[] invoicesIndex, address liquidityProvider) public returns (uint totalDAI) {\r\n\r\n        uint arrayLength = invoicesIndex.length;\r\n        for (uint i = 0; i < arrayLength; i++) {\r\n\r\n            Invoice memory invo = invoices[invoicesIndex[i]]; // <<<<<<<<<< bug liquidity provider not set but DAI get sent\r\n\r\n            require(invo.liquidityProvider == 0x0, \"one of the transactions is already settled\");\r\n            require(invo.seller == msg.sender, \"you can only settle your own invoices\");\r\n\r\n            invoices[invoicesIndex[i]].liquidityProvider = liquidityProvider; // <<<<<<<<<< \r\n            emit Settled(invo.seller, liquidityProvider, invoicesIndex[i]);\r\n            totalDAI += invo.stableCoinAmount;\r\n        }\r\n\r\n        STABLE_COIN.transfer(liquidityProvider, totalDAI);\r\n    }\r\n\r\n}\r\n",
  "sourcePath": "D:\\SourceCode\\Debin\\repo\\smart-contracts\\contracts\\Deben.sol",
  "compiler": {
    "name": "solc",
    "version": "0.4.24+commit.e67f0147.Emscripten.clang"
  },
  "schemaVersion": "2.0.1",
  "updatedAt": "2018-08-17T22:30:07.755Z"
}