{
  "contractName": "CoffeeTokenHandler",
  "abi": [
    {
      "constant": false,
      "inputs": [
        {
          "name": "",
          "type": "address"
        },
        {
          "name": "",
          "type": "address"
        },
        {
          "name": "",
          "type": "uint256"
        },
        {
          "name": "",
          "type": "bytes"
        }
      ],
      "name": "onERC721Received",
      "outputs": [
        {
          "name": "",
          "type": "bytes4"
        }
      ],
      "payable": false,
      "stateMutability": "nonpayable",
      "type": "function"
    },
    {
      "constant": true,
      "inputs": [
        {
          "name": "",
          "type": "uint256"
        }
      ],
      "name": "coffeeBatches",
      "outputs": [
        {
          "name": "",
          "type": "uint256"
        }
      ],
      "payable": false,
      "stateMutability": "view",
      "type": "function"
    },
    {
      "constant": true,
      "inputs": [],
      "name": "NFTTokenContractAddress",
      "outputs": [
        {
          "name": "",
          "type": "address"
        }
      ],
      "payable": false,
      "stateMutability": "view",
      "type": "function"
    },
    {
      "constant": false,
      "inputs": [],
      "name": "renounceOwnership",
      "outputs": [],
      "payable": false,
      "stateMutability": "nonpayable",
      "type": "function"
    },
    {
      "constant": true,
      "inputs": [],
      "name": "ERC20TokenContract",
      "outputs": [
        {
          "name": "",
          "type": "address"
        }
      ],
      "payable": false,
      "stateMutability": "view",
      "type": "function"
    },
    {
      "constant": true,
      "inputs": [],
      "name": "owner",
      "outputs": [
        {
          "name": "",
          "type": "address"
        }
      ],
      "payable": false,
      "stateMutability": "view",
      "type": "function"
    },
    {
      "constant": true,
      "inputs": [],
      "name": "isOwner",
      "outputs": [
        {
          "name": "",
          "type": "bool"
        }
      ],
      "payable": false,
      "stateMutability": "view",
      "type": "function"
    },
    {
      "constant": true,
      "inputs": [
        {
          "name": "",
          "type": "address"
        }
      ],
      "name": "isCooperative",
      "outputs": [
        {
          "name": "",
          "type": "bool"
        }
      ],
      "payable": false,
      "stateMutability": "view",
      "type": "function"
    },
    {
      "constant": false,
      "inputs": [
        {
          "name": "newOwner",
          "type": "address"
        }
      ],
      "name": "transferOwnership",
      "outputs": [],
      "payable": false,
      "stateMutability": "nonpayable",
      "type": "function"
    },
    {
      "inputs": [
        {
          "name": "_NFTTokenContractAddress",
          "type": "address"
        }
      ],
      "payable": false,
      "stateMutability": "nonpayable",
      "type": "constructor"
    },
    {
      "anonymous": false,
      "inputs": [
        {
          "indexed": true,
          "name": "previousOwner",
          "type": "address"
        },
        {
          "indexed": true,
          "name": "newOwner",
          "type": "address"
        }
      ],
      "name": "OwnershipTransferred",
      "type": "event"
    },
    {
      "constant": false,
      "inputs": [
        {
          "name": "_NFTTokenContractAddress",
          "type": "address"
        }
      ],
      "name": "setNFTTokenContractAddress",
      "outputs": [],
      "payable": false,
      "stateMutability": "nonpayable",
      "type": "function"
    },
    {
      "constant": false,
      "inputs": [
        {
          "name": "_ERC20TokenContract",
          "type": "address"
        }
      ],
      "name": "setERC20TokenContract",
      "outputs": [],
      "payable": false,
      "stateMutability": "nonpayable",
      "type": "function"
    },
    {
      "constant": false,
      "inputs": [
        {
          "name": "cooperative",
          "type": "address"
        }
      ],
      "name": "addCooperative",
      "outputs": [],
      "payable": false,
      "stateMutability": "nonpayable",
      "type": "function"
    },
    {
      "constant": false,
      "inputs": [
        {
          "name": "cooperative",
          "type": "address"
        }
      ],
      "name": "removeCooperative",
      "outputs": [],
      "payable": false,
      "stateMutability": "nonpayable",
      "type": "function"
    },
    {
      "constant": false,
      "inputs": [
        {
          "name": "_from",
          "type": "address"
        },
        {
          "name": "_tokenId",
          "type": "uint256"
        }
      ],
      "name": "wrapCoffee",
      "outputs": [],
      "payable": false,
      "stateMutability": "nonpayable",
      "type": "function"
    },
    {
      "constant": false,
      "inputs": [
        {
          "name": "_from",
          "type": "address"
        },
        {
          "name": "_tokenId",
          "type": "uint256"
        },
        {
          "name": "_amount",
          "type": "uint256"
        }
      ],
      "name": "unwrapCoffee",
      "outputs": [],
      "payable": false,
      "stateMutability": "nonpayable",
      "type": "function"
    }
  ],
  "bytecode": "0x608060405234801561001057600080fd5b506040516020806116cb8339810180604052602081101561003057600080fd5b8101908080519060200190929190505050336000806101000a81548173ffffffffffffffffffffffffffffffffffffffff021916908373ffffffffffffffffffffffffffffffffffffffff1602179055506000809054906101000a900473ffffffffffffffffffffffffffffffffffffffff1673ffffffffffffffffffffffffffffffffffffffff16600073ffffffffffffffffffffffffffffffffffffffff167f8be0079c531659141344cd1fd0a4f28419497f9722a3daafe3b4186f6b6457e060405160405180910390a380600260006101000a81548173ffffffffffffffffffffffffffffffffffffffff021916908373ffffffffffffffffffffffffffffffffffffffff1602179055505061157d8061014e6000396000f3fe608060405234801561001057600080fd5b50600436106100f55760003560e01c806384ff4186116100975780639a1f075c116100665780639a1f075c146104c1578063a3fac1371461050f578063ebeab3f91461056b578063f2fde38b146105af576100f5565b806384ff4186146103c75780638da5cb5b146104115780638e74c7951461045b5780638f32d59b1461049f576100f5565b80634dbb8e4c116100d35780634dbb8e4c146102d7578063715018a614610321578063783b9d211461032b57806380549dd71461036f576100f5565b8063150b7a02146100fa57806332e2489914610251578063395209b214610295575b600080fd5b6101fd6004803603608081101561011057600080fd5b81019080803573ffffffffffffffffffffffffffffffffffffffff169060200190929190803573ffffffffffffffffffffffffffffffffffffffff169060200190929190803590602001909291908035906020019064010000000081111561017757600080fd5b82018360208201111561018957600080fd5b803590602001918460018302840111640100000000831117156101ab57600080fd5b91908080601f016020809104026020016040519081016040528093929190818152602001838380828437600081840152601f19601f8201169050808301925050505050505091929192905050506105f3565b60405180827bffffffffffffffffffffffffffffffffffffffffffffffffffffffff19167bffffffffffffffffffffffffffffffffffffffffffffffffffffffff1916815260200191505060405180910390f35b6102936004803603602081101561026757600080fd5b81019080803573ffffffffffffffffffffffffffffffffffffffff169060200190929190505050610607565b005b6102c1600480360360208110156102ab57600080fd5b81019080803590602001909291905050506106c5565b6040518082815260200191505060405180910390f35b6102df6106dd565b604051808273ffffffffffffffffffffffffffffffffffffffff1673ffffffffffffffffffffffffffffffffffffffff16815260200191505060405180910390f35b610329610703565b005b61036d6004803603602081101561034157600080fd5b81019080803573ffffffffffffffffffffffffffffffffffffffff16906020019092919050505061083c565b005b6103c56004803603606081101561038557600080fd5b81019080803573ffffffffffffffffffffffffffffffffffffffff1690602001909291908035906020019092919080359060200190929190505050610911565b005b6103cf610daf565b604051808273ffffffffffffffffffffffffffffffffffffffff1673ffffffffffffffffffffffffffffffffffffffff16815260200191505060405180910390f35b610419610dd5565b604051808273ffffffffffffffffffffffffffffffffffffffff1673ffffffffffffffffffffffffffffffffffffffff16815260200191505060405180910390f35b61049d6004803603602081101561047157600080fd5b81019080803573ffffffffffffffffffffffffffffffffffffffff169060200190929190505050610dfe565b005b6104a7610ebc565b604051808215151515815260200191505060405180910390f35b61050d600480360360408110156104d757600080fd5b81019080803573ffffffffffffffffffffffffffffffffffffffff16906020019092919080359060200190929190505050610f13565b005b6105516004803603602081101561052557600080fd5b81019080803573ffffffffffffffffffffffffffffffffffffffff16906020019092919050505061123f565b604051808215151515815260200191505060405180910390f35b6105ad6004803603602081101561058157600080fd5b81019080803573ffffffffffffffffffffffffffffffffffffffff16906020019092919050505061125f565b005b6105f1600480360360208110156105c557600080fd5b81019080803573ffffffffffffffffffffffffffffffffffffffff169060200190929190505050611334565b005b600063150b7a0260e01b9050949350505050565b61060f610ebc565b610681576040517f08c379a00000000000000000000000000000000000000000000000000000000081526004018080602001828103825260208152602001807f4f776e61626c653a2063616c6c6572206973206e6f7420746865206f776e657281525060200191505060405180910390fd5b80600160006101000a81548173ffffffffffffffffffffffffffffffffffffffff021916908373ffffffffffffffffffffffffffffffffffffffff16021790555050565b60036020528060005260406000206000915090505481565b600260009054906101000a900473ffffffffffffffffffffffffffffffffffffffff1681565b61070b610ebc565b61077d576040517f08c379a00000000000000000000000000000000000000000000000000000000081526004018080602001828103825260208152602001807f4f776e61626c653a2063616c6c6572206973206e6f7420746865206f776e657281525060200191505060405180910390fd5b600073ffffffffffffffffffffffffffffffffffffffff166000809054906101000a900473ffffffffffffffffffffffffffffffffffffffff1673ffffffffffffffffffffffffffffffffffffffff167f8be0079c531659141344cd1fd0a4f28419497f9722a3daafe3b4186f6b6457e060405160405180910390a360008060006101000a81548173ffffffffffffffffffffffffffffffffffffffff021916908373ffffffffffffffffffffffffffffffffffffffff160217905550565b610844610ebc565b6108b6576040517f08c379a00000000000000000000000000000000000000000000000000000000081526004018080602001828103825260208152602001807f4f776e61626c653a2063616c6c6572206973206e6f7420746865206f776e657281525060200191505060405180910390fd5b6000600460008373ffffffffffffffffffffffffffffffffffffffff1673ffffffffffffffffffffffffffffffffffffffff16815260200190815260200160002060006101000a81548160ff02191690831515021790555050565b600460003373ffffffffffffffffffffffffffffffffffffffff1673ffffffffffffffffffffffffffffffffffffffff16815260200190815260200160002060009054906101000a900460ff166109d0576040517f08c379a000000000000000000000000000000000000000000000000000000000815260040180806020018281038252601a8152602001807f75736572206d757374206265206120636f6f706572617469766500000000000081525060200191505060405180910390fd5b6000600260009054906101000a900473ffffffffffffffffffffffffffffffffffffffff1673ffffffffffffffffffffffffffffffffffffffff166381127624846040518263ffffffff1660e01b81526004018082815260200191505060206040518083038186803b158015610a4557600080fd5b505afa158015610a59573d6000803e3d6000fd5b505050506040513d6020811015610a6f57600080fd5b81019080805190602001909291905050509050818114610ada576040517f08c379a000000000000000000000000000000000000000000000000000000000815260040180806020018281038252602d815260200180611525602d913960400191505060405180910390fd5b600160009054906101000a900473ffffffffffffffffffffffffffffffffffffffff1673ffffffffffffffffffffffffffffffffffffffff166323b872dd8530856040518463ffffffff1660e01b8152600401808473ffffffffffffffffffffffffffffffffffffffff1673ffffffffffffffffffffffffffffffffffffffff1681526020018373ffffffffffffffffffffffffffffffffffffffff1673ffffffffffffffffffffffffffffffffffffffff1681526020018281526020019350505050602060405180830381600087803b158015610bb757600080fd5b505af1158015610bcb573d6000803e3d6000fd5b505050506040513d6020811015610be157600080fd5b810190808051906020019092919050505050600260009054906101000a900473ffffffffffffffffffffffffffffffffffffffff1673ffffffffffffffffffffffffffffffffffffffff166323b872dd3086866040518463ffffffff1660e01b8152600401808473ffffffffffffffffffffffffffffffffffffffff1673ffffffffffffffffffffffffffffffffffffffff1681526020018373ffffffffffffffffffffffffffffffffffffffff1673ffffffffffffffffffffffffffffffffffffffff1681526020018281526020019350505050600060405180830381600087803b158015610cd057600080fd5b505af1158015610ce4573d6000803e3d6000fd5b50505050600160009054906101000a900473ffffffffffffffffffffffffffffffffffffffff1673ffffffffffffffffffffffffffffffffffffffff1663a1cd39e685846040518363ffffffff1660e01b8152600401808373ffffffffffffffffffffffffffffffffffffffff1673ffffffffffffffffffffffffffffffffffffffff16815260200182815260200192505050600060405180830381600087803b158015610d9157600080fd5b505af1158015610da5573d6000803e3d6000fd5b5050505050505050565b600160009054906101000a900473ffffffffffffffffffffffffffffffffffffffff1681565b60008060009054906101000a900473ffffffffffffffffffffffffffffffffffffffff16905090565b610e06610ebc565b610e78576040517f08c379a00000000000000000000000000000000000000000000000000000000081526004018080602001828103825260208152602001807f4f776e61626c653a2063616c6c6572206973206e6f7420746865206f776e657281525060200191505060405180910390fd5b80600260006101000a81548173ffffffffffffffffffffffffffffffffffffffff021916908373ffffffffffffffffffffffffffffffffffffffff16021790555050565b60008060009054906101000a900473ffffffffffffffffffffffffffffffffffffffff1673ffffffffffffffffffffffffffffffffffffffff163373ffffffffffffffffffffffffffffffffffffffff1614905090565b600460003373ffffffffffffffffffffffffffffffffffffffff1673ffffffffffffffffffffffffffffffffffffffff16815260200190815260200160002060009054906101000a900460ff16610fd2576040517f08c379a000000000000000000000000000000000000000000000000000000000815260040180806020018281038252601a8152602001807f75736572206d757374206265206120636f6f706572617469766500000000000081525060200191505060405180910390fd5b600260009054906101000a900473ffffffffffffffffffffffffffffffffffffffff1673ffffffffffffffffffffffffffffffffffffffff166323b872dd8330846040518463ffffffff1660e01b8152600401808473ffffffffffffffffffffffffffffffffffffffff1673ffffffffffffffffffffffffffffffffffffffff1681526020018373ffffffffffffffffffffffffffffffffffffffff1673ffffffffffffffffffffffffffffffffffffffff1681526020018281526020019350505050600060405180830381600087803b1580156110af57600080fd5b505af11580156110c3573d6000803e3d6000fd5b505050506000600260009054906101000a900473ffffffffffffffffffffffffffffffffffffffff1673ffffffffffffffffffffffffffffffffffffffff166381127624836040518263ffffffff1660e01b81526004018082815260200191505060206040518083038186803b15801561113c57600080fd5b505afa158015611150573d6000803e3d6000fd5b505050506040513d602081101561116657600080fd5b81019080805190602001909291905050509050600160009054906101000a900473ffffffffffffffffffffffffffffffffffffffff1673ffffffffffffffffffffffffffffffffffffffff16639a1f075c84836040518363ffffffff1660e01b8152600401808373ffffffffffffffffffffffffffffffffffffffff1673ffffffffffffffffffffffffffffffffffffffff16815260200182815260200192505050600060405180830381600087803b15801561122257600080fd5b505af1158015611236573d6000803e3d6000fd5b50505050505050565b60046020528060005260406000206000915054906101000a900460ff1681565b611267610ebc565b6112d9576040517f08c379a00000000000000000000000000000000000000000000000000000000081526004018080602001828103825260208152602001807f4f776e61626c653a2063616c6c6572206973206e6f7420746865206f776e657281525060200191505060405180910390fd5b6001600460008373ffffffffffffffffffffffffffffffffffffffff1673ffffffffffffffffffffffffffffffffffffffff16815260200190815260200160002060006101000a81548160ff02191690831515021790555050565b61133c610ebc565b6113ae576040517f08c379a00000000000000000000000000000000000000000000000000000000081526004018080602001828103825260208152602001807f4f776e61626c653a2063616c6c6572206973206e6f7420746865206f776e657281525060200191505060405180910390fd5b6113b7816113ba565b50565b600073ffffffffffffffffffffffffffffffffffffffff168173ffffffffffffffffffffffffffffffffffffffff161415611440576040517f08c379a00000000000000000000000000000000000000000000000000000000081526004018080602001828103825260268152602001806114ff6026913960400191505060405180910390fd5b8073ffffffffffffffffffffffffffffffffffffffff166000809054906101000a900473ffffffffffffffffffffffffffffffffffffffff1673ffffffffffffffffffffffffffffffffffffffff167f8be0079c531659141344cd1fd0a4f28419497f9722a3daafe3b4186f6b6457e060405160405180910390a3806000806101000a81548173ffffffffffffffffffffffffffffffffffffffff021916908373ffffffffffffffffffffffffffffffffffffffff1602179055505056fe4f776e61626c653a206e6577206f776e657220697320746865207a65726f20616464726573736275726e656420746f6b656e73206d75737420657175616c20746f2074686520636f666665652077616e746564a165627a7a72305820e8afa856ba7c400523685b44436e28223ce8a5b2adf32eec163165e81e11ab3d0029",
  "source": "pragma solidity ^0.5.0;\n\nimport './CoffeeBatchNFT.sol';\nimport './WrappedCoffeeCoin.sol';\nimport 'openzeppelin-solidity/contracts/token/ERC721/ERC721Holder.sol';\n\ncontract CoffeeTokenHandler is Ownable, ERC721Holder{\n\n    address public ERC20TokenContract;\n    address public NFTTokenContractAddress;\n    mapping (uint256 => uint256) public coffeeBatches;\n\n    mapping(address => bool) public isCooperative;\n    modifier onlyCooperative(){\n        require(isCooperative[msg.sender], \"user must be a cooperative\");\n        _;\n    }\n\n    constructor(address _NFTTokenContractAddress) Ownable() public{\n        NFTTokenContractAddress = _NFTTokenContractAddress;\n    }\n\n    function setNFTTokenContractAddress(address _NFTTokenContractAddress) public onlyOwner {\n        NFTTokenContractAddress = _NFTTokenContractAddress;\n    }\n    //First action, set address of contract\n    function setERC20TokenContract(address _ERC20TokenContract) public onlyOwner {\n        ERC20TokenContract = _ERC20TokenContract;\n    }\n\n    function addCooperative(address cooperative) public onlyOwner{\n        isCooperative[cooperative] = true;\n    }\n\n    function removeCooperative(address cooperative) public onlyOwner {\n        isCooperative[cooperative] = false;\n    }\n\n    function wrapCoffee(address _from, uint256 _tokenId) public onlyCooperative(){\n       CoffeeBatchNFT(NFTTokenContractAddress).transferFrom(_from, address(this), _tokenId);\n       uint256 size = CoffeeBatchNFT(NFTTokenContractAddress).coffeeBatchSize(_tokenId);\n       WrappedCoffeeCoin(ERC20TokenContract).wrapCoffee(_from, size);\n    }\n\n    function unwrapCoffee(address _from, uint256 _tokenId, uint256 _amount) public onlyCooperative(){\n       uint256 size = CoffeeBatchNFT(NFTTokenContractAddress).coffeeBatchSize(_tokenId);\n       require(size == _amount, \"burned tokens must equal to the coffee wanted\");\n       WrappedCoffeeCoin(ERC20TokenContract).transferFrom(_from, address(this), _amount);\n       CoffeeBatchNFT(NFTTokenContractAddress).transferFrom(address(this),_from, _tokenId);\n       WrappedCoffeeCoin(ERC20TokenContract).unwrapCoffee(_from, _amount);\n    }\n}\n",
  "sourcePath": "/home/crisgarner/projects/hackathons/wrapped-coffee-coin/contracts/CoffeeTokenHandler.sol",
  "compiler": {
    "name": "solc",
    "version": "0.5.8+commit.23d335f2.Emscripten.clang"
  },
  "schemaVersion": "3.0.11",
  "updatedAt": "2019-07-11T03:01:56.564Z",
  "devdoc": {
    "methods": {
      "isOwner()": {
        "details": "Returns true if the caller is the current owner."
      },
      "owner()": {
        "details": "Returns the address of the current owner."
      },
      "renounceOwnership()": {
        "details": "Leaves the contract without owner. It will not be possible to call `onlyOwner` functions anymore. Can only be called by the current owner.     * > Note: Renouncing ownership will leave the contract without an owner, thereby removing any functionality that is only available to the owner."
      },
      "transferOwnership(address)": {
        "details": "Transfers ownership of the contract to a new account (`newOwner`). Can only be called by the current owner."
      }
    }
  },
  "userdoc": {
    "methods": {}
  }
}