{
  "contractName": "cDAIMock",
  "abi": [
    {
      "constant": true,
      "inputs": [],
      "name": "name",
      "outputs": [
        {
          "name": "",
          "type": "string"
        }
      ],
      "payable": false,
      "stateMutability": "view",
      "type": "function"
    },
    {
      "constant": false,
      "inputs": [
        {
          "name": "spender",
          "type": "address"
        },
        {
          "name": "value",
          "type": "uint256"
        }
      ],
      "name": "approve",
      "outputs": [
        {
          "name": "",
          "type": "bool"
        }
      ],
      "payable": false,
      "stateMutability": "nonpayable",
      "type": "function"
    },
    {
      "constant": true,
      "inputs": [],
      "name": "totalSupply",
      "outputs": [
        {
          "name": "",
          "type": "uint256"
        }
      ],
      "payable": false,
      "stateMutability": "view",
      "type": "function"
    },
    {
      "constant": false,
      "inputs": [
        {
          "name": "sender",
          "type": "address"
        },
        {
          "name": "recipient",
          "type": "address"
        },
        {
          "name": "amount",
          "type": "uint256"
        }
      ],
      "name": "transferFrom",
      "outputs": [
        {
          "name": "",
          "type": "bool"
        }
      ],
      "payable": false,
      "stateMutability": "nonpayable",
      "type": "function"
    },
    {
      "constant": true,
      "inputs": [],
      "name": "toMint",
      "outputs": [
        {
          "name": "",
          "type": "uint256"
        }
      ],
      "payable": false,
      "stateMutability": "view",
      "type": "function"
    },
    {
      "constant": true,
      "inputs": [],
      "name": "decimals",
      "outputs": [
        {
          "name": "",
          "type": "uint8"
        }
      ],
      "payable": false,
      "stateMutability": "view",
      "type": "function"
    },
    {
      "constant": false,
      "inputs": [
        {
          "name": "spender",
          "type": "address"
        },
        {
          "name": "addedValue",
          "type": "uint256"
        }
      ],
      "name": "increaseAllowance",
      "outputs": [
        {
          "name": "",
          "type": "bool"
        }
      ],
      "payable": false,
      "stateMutability": "nonpayable",
      "type": "function"
    },
    {
      "constant": true,
      "inputs": [],
      "name": "exchangeRate",
      "outputs": [
        {
          "name": "",
          "type": "uint256"
        }
      ],
      "payable": false,
      "stateMutability": "view",
      "type": "function"
    },
    {
      "constant": true,
      "inputs": [
        {
          "name": "account",
          "type": "address"
        }
      ],
      "name": "balanceOf",
      "outputs": [
        {
          "name": "",
          "type": "uint256"
        }
      ],
      "payable": false,
      "stateMutability": "view",
      "type": "function"
    },
    {
      "constant": true,
      "inputs": [],
      "name": "symbol",
      "outputs": [
        {
          "name": "",
          "type": "string"
        }
      ],
      "payable": false,
      "stateMutability": "view",
      "type": "function"
    },
    {
      "constant": false,
      "inputs": [
        {
          "name": "spender",
          "type": "address"
        },
        {
          "name": "subtractedValue",
          "type": "uint256"
        }
      ],
      "name": "decreaseAllowance",
      "outputs": [
        {
          "name": "",
          "type": "bool"
        }
      ],
      "payable": false,
      "stateMutability": "nonpayable",
      "type": "function"
    },
    {
      "constant": false,
      "inputs": [
        {
          "name": "recipient",
          "type": "address"
        },
        {
          "name": "amount",
          "type": "uint256"
        }
      ],
      "name": "transfer",
      "outputs": [
        {
          "name": "",
          "type": "bool"
        }
      ],
      "payable": false,
      "stateMutability": "nonpayable",
      "type": "function"
    },
    {
      "constant": true,
      "inputs": [],
      "name": "supplyRate",
      "outputs": [
        {
          "name": "",
          "type": "uint256"
        }
      ],
      "payable": false,
      "stateMutability": "view",
      "type": "function"
    },
    {
      "constant": true,
      "inputs": [],
      "name": "toTransfer",
      "outputs": [
        {
          "name": "",
          "type": "uint256"
        }
      ],
      "payable": false,
      "stateMutability": "view",
      "type": "function"
    },
    {
      "constant": true,
      "inputs": [
        {
          "name": "owner",
          "type": "address"
        },
        {
          "name": "spender",
          "type": "address"
        }
      ],
      "name": "allowance",
      "outputs": [
        {
          "name": "",
          "type": "uint256"
        }
      ],
      "payable": false,
      "stateMutability": "view",
      "type": "function"
    },
    {
      "constant": true,
      "inputs": [],
      "name": "dai",
      "outputs": [
        {
          "name": "",
          "type": "address"
        }
      ],
      "payable": false,
      "stateMutability": "view",
      "type": "function"
    },
    {
      "inputs": [
        {
          "name": "_dai",
          "type": "address"
        },
        {
          "name": "tokenOwner",
          "type": "address"
        }
      ],
      "payable": false,
      "stateMutability": "nonpayable",
      "type": "constructor"
    },
    {
      "payable": true,
      "stateMutability": "payable",
      "type": "fallback"
    },
    {
      "anonymous": false,
      "inputs": [
        {
          "indexed": true,
          "name": "from",
          "type": "address"
        },
        {
          "indexed": true,
          "name": "to",
          "type": "address"
        },
        {
          "indexed": false,
          "name": "value",
          "type": "uint256"
        }
      ],
      "name": "Transfer",
      "type": "event"
    },
    {
      "anonymous": false,
      "inputs": [
        {
          "indexed": true,
          "name": "owner",
          "type": "address"
        },
        {
          "indexed": true,
          "name": "spender",
          "type": "address"
        },
        {
          "indexed": false,
          "name": "value",
          "type": "uint256"
        }
      ],
      "name": "Approval",
      "type": "event"
    },
    {
      "constant": false,
      "inputs": [
        {
          "name": "amount",
          "type": "uint256"
        }
      ],
      "name": "mint",
      "outputs": [
        {
          "name": "",
          "type": "uint256"
        }
      ],
      "payable": false,
      "stateMutability": "nonpayable",
      "type": "function"
    },
    {
      "constant": false,
      "inputs": [
        {
          "name": "amount",
          "type": "uint256"
        }
      ],
      "name": "redeem",
      "outputs": [
        {
          "name": "",
          "type": "uint256"
        }
      ],
      "payable": false,
      "stateMutability": "nonpayable",
      "type": "function"
    },
    {
      "constant": true,
      "inputs": [],
      "name": "exchangeRateStored",
      "outputs": [
        {
          "name": "",
          "type": "uint256"
        }
      ],
      "payable": false,
      "stateMutability": "view",
      "type": "function"
    },
    {
      "constant": true,
      "inputs": [],
      "name": "supplyRatePerBlock",
      "outputs": [
        {
          "name": "",
          "type": "uint256"
        }
      ],
      "payable": false,
      "stateMutability": "view",
      "type": "function"
    },
    {
      "constant": false,
      "inputs": [],
      "name": "setSupplyRatePerBlockForTest",
      "outputs": [],
      "payable": false,
      "stateMutability": "nonpayable",
      "type": "function"
    },
    {
      "constant": false,
      "inputs": [],
      "name": "resetSupplyRatePerBlockForTest",
      "outputs": [],
      "payable": false,
      "stateMutability": "nonpayable",
      "type": "function"
    },
    {
      "constant": false,
      "inputs": [],
      "name": "setMintValueForTest",
      "outputs": [],
      "payable": false,
      "stateMutability": "nonpayable",
      "type": "function"
    },
    {
      "constant": false,
      "inputs": [],
      "name": "setExchangeRateStoredForTest",
      "outputs": [],
      "payable": false,
      "stateMutability": "nonpayable",
      "type": "function"
    },
    {
      "constant": false,
      "inputs": [],
      "name": "setNewExchangeRateStoredForTest",
      "outputs": [],
      "payable": false,
      "stateMutability": "nonpayable",
      "type": "function"
    },
    {
      "constant": false,
      "inputs": [],
      "name": "setExchangeRateStoredForTestNoFee",
      "outputs": [],
      "payable": false,
      "stateMutability": "nonpayable",
      "type": "function"
    }
  ],
  "bytecode": "0x60806040523480156200001157600080fd5b5060405160408062001ff7833981018060405260408110156200003357600080fd5b8101908080519060200190929190805190602001909291905050506040805190810160405280600481526020017f63444149000000000000000000000000000000000000000000000000000000008152506040805190810160405280600481526020017f634441490000000000000000000000000000000000000000000000000000000081525060088260009080519060200190620000d49291906200043a565b508160019080519060200190620000ed9291906200043a565b5080600260006101000a81548160ff021916908360ff16021790555050505081600660006101000a81548173ffffffffffffffffffffffffffffffffffffffff021916908373ffffffffffffffffffffffffffffffffffffffff1602179055506aa56fa5b99019a5c8000000600781905550670de0b6b3a764000060088190555064012a05f2006009819055506407a5e3fd4e600a81905550620001a730655af3107a4000620001cf640100000000026401000000009004565b620001c78164174876e800620001cf640100000000026401000000009004565b5050620004e9565b600073ffffffffffffffffffffffffffffffffffffffff168273ffffffffffffffffffffffffffffffffffffffff161415151562000275576040517f08c379a000000000000000000000000000000000000000000000000000000000815260040180806020018281038252601f8152602001807f45524332303a206d696e7420746f20746865207a65726f20616464726573730081525060200191505060405180910390fd5b6200029a81600554620003af64010000000002620017f7179091906401000000009004565b6005819055506200030281600360008573ffffffffffffffffffffffffffffffffffffffff1673ffffffffffffffffffffffffffffffffffffffff16815260200190815260200160002054620003af64010000000002620017f7179091906401000000009004565b600360008473ffffffffffffffffffffffffffffffffffffffff1673ffffffffffffffffffffffffffffffffffffffff168152602001908152602001600020819055508173ffffffffffffffffffffffffffffffffffffffff16600073ffffffffffffffffffffffffffffffffffffffff167fddf252ad1be2c89b69c2b068fc378daa952ba7f163c4a11628f55a4df523b3ef836040518082815260200191505060405180910390a35050565b600080828401905083811015151562000430576040517f08c379a000000000000000000000000000000000000000000000000000000000815260040180806020018281038252601b8152602001807f536166654d6174683a206164646974696f6e206f766572666c6f77000000000081525060200191505060405180910390fd5b8091505092915050565b828054600181600116156101000203166002900490600052602060002090601f016020900481019282601f106200047d57805160ff1916838001178555620004ae565b82800160010185558215620004ae579182015b82811115620004ad57825182559160200191906001019062000490565b5b509050620004bd9190620004c1565b5090565b620004e691905b80821115620004e2576000816000905550600101620004c8565b5090565b90565b611afe80620004f96000396000f3fe60806040526004361061019e576000357c0100000000000000000000000000000000000000000000000000000000900480639c022e50116100ee578063b233f8fb116100a7578063db006a7511610081578063db006a75146107a4578063dd62ed3e146107f3578063ee96fb6614610878578063f4b9fa751461088f5761019e565b8063b233f8fb1461074b578063b6de936b14610776578063d23f056e1461078d5761019e565b80639c022e50146105a9578063a0712d68146105c0578063a457c2d71461060f578063a9059cbb14610682578063ad2961a3146106f5578063ae9d70b0146107205761019e565b8063294935331161015b578063395093511161013557806339509351146104165780633ba0b9a91461048957806370a08231146104b457806395d89b41146105195761019e565b806329493533146103a35780632d3cfcab146103ba578063313ce567146103e55761019e565b8063030abdb0146101a057806306fdde03146101b7578063095ea7b31461024757806318160ddd146102ba578063182df0f5146102e557806323b872dd14610310575b005b3480156101ac57600080fd5b506101b56108e6565b005b3480156101c357600080fd5b506101cc610909565b6040518080602001828103825283818151815260200191508051906020019080838360005b8381101561020c5780820151818401526020810190506101f1565b50505050905090810190601f1680156102395780820380516001836020036101000a031916815260200191505b509250505060405180910390f35b34801561025357600080fd5b506102a06004803603604081101561026a57600080fd5b81019080803573ffffffffffffffffffffffffffffffffffffffff169060200190929190803590602001909291905050506109ab565b604051808215151515815260200191505060405180910390f35b3480156102c657600080fd5b506102cf6109c2565b6040518082815260200191505060405180910390f35b3480156102f157600080fd5b506102fa6109cc565b6040518082815260200191505060405180910390f35b34801561031c57600080fd5b506103896004803603606081101561033357600080fd5b81019080803573ffffffffffffffffffffffffffffffffffffffff169060200190929190803573ffffffffffffffffffffffffffffffffffffffff169060200190929190803590602001909291905050506109d6565b604051808215151515815260200191505060405180910390f35b3480156103af57600080fd5b506103b8610a87565b005b3480156103c657600080fd5b506103cf610a94565b6040518082815260200191505060405180910390f35b3480156103f157600080fd5b506103fa610a9a565b604051808260ff1660ff16815260200191505060405180910390f35b34801561042257600080fd5b5061046f6004803603604081101561043957600080fd5b81019080803573ffffffffffffffffffffffffffffffffffffffff16906020019092919080359060200190929190505050610ab1565b604051808215151515815260200191505060405180910390f35b34801561049557600080fd5b5061049e610b56565b6040518082815260200191505060405180910390f35b3480156104c057600080fd5b50610503600480360360208110156104d757600080fd5b81019080803573ffffffffffffffffffffffffffffffffffffffff169060200190929190505050610b5c565b6040518082815260200191505060405180910390f35b34801561052557600080fd5b5061052e610ba5565b6040518080602001828103825283818151815260200191508051906020019080838360005b8381101561056e578082015181840152602081019050610553565b50505050905090810190601f16801561059b5780820380516001836020036101000a031916815260200191505b509250505060405180910390f35b3480156105b557600080fd5b506105be610c47565b005b3480156105cc57600080fd5b506105f9600480360360208110156105e357600080fd5b8101908080359060200190929190505050610c75565b6040518082815260200191505060405180910390f35b34801561061b57600080fd5b506106686004803603604081101561063257600080fd5b81019080803573ffffffffffffffffffffffffffffffffffffffff16906020019092919080359060200190929190505050610f7c565b604051808215151515815260200191505060405180910390f35b34801561068e57600080fd5b506106db600480360360408110156106a557600080fd5b81019080803573ffffffffffffffffffffffffffffffffffffffff16906020019092919080359060200190929190505050611021565b604051808215151515815260200191505060405180910390f35b34801561070157600080fd5b5061070a611038565b6040518082815260200191505060405180910390f35b34801561072c57600080fd5b5061073561103e565b6040518082815260200191505060405180910390f35b34801561075757600080fd5b50610760611048565b6040518082815260200191505060405180910390f35b34801561078257600080fd5b5061078b61104e565b005b34801561079957600080fd5b506107a2611071565b005b3480156107b057600080fd5b506107dd600480360360208110156107c757600080fd5b810190808035906020019092919050505061107f565b6040518082815260200191505060405180910390f35b3480156107ff57600080fd5b506108626004803603604081101561081657600080fd5b81019080803573ffffffffffffffffffffffffffffffffffffffff169060200190929190803573ffffffffffffffffffffffffffffffffffffffff16906020019092919050505061120a565b6040518082815260200191505060405180910390f35b34801561088457600080fd5b5061088d611291565b005b34801561089b57600080fd5b506108a46112a7565b604051808273ffffffffffffffffffffffffffffffffffffffff1673ffffffffffffffffffffffffffffffffffffffff16815260200191505060405180910390f35b6ab5facfe5b81c365c000000600781905550670ef5d349dbdf0000600881905550565b606060008054600181600116156101000203166002900480601f0160208091040260200160405190810160405280929190818152602001828054600181600116156101000203166002900480156109a15780601f10610976576101008083540402835291602001916109a1565b820191906000526020600020905b81548152906001019060200180831161098457829003601f168201915b5050505050905090565b60006109b83384846112cd565b6001905092915050565b6000600554905090565b6000600754905090565b60006109e38484846114c8565b610a7c8433610a7785600460008a73ffffffffffffffffffffffffffffffffffffffff1673ffffffffffffffffffffffffffffffffffffffff16815260200190815260200160002060003373ffffffffffffffffffffffffffffffffffffffff1673ffffffffffffffffffffffffffffffffffffffff1681526020019081526020016000205461176c90919063ffffffff16565b6112cd565b600190509392505050565b600a805402600a81905550565b60095481565b6000600260009054906101000a900460ff16905090565b6000610b4c3384610b4785600460003373ffffffffffffffffffffffffffffffffffffffff1673ffffffffffffffffffffffffffffffffffffffff16815260200190815260200160002060008973ffffffffffffffffffffffffffffffffffffffff1673ffffffffffffffffffffffffffffffffffffffff168152602001908152602001600020546117f790919063ffffffff16565b6112cd565b6001905092915050565b60075481565b6000600360008373ffffffffffffffffffffffffffffffffffffffff1673ffffffffffffffffffffffffffffffffffffffff168152602001908152602001600020549050919050565b606060018054600181600116156101000203166002900480601f016020809104026020016040519081016040528092919081815260200182805460018160011615610100020316600290048015610c3d5780601f10610c1257610100808354040283529160200191610c3d565b820191906000526020600020905b815481529060010190602001808311610c2057829003601f168201915b5050505050905090565b6af8277896582678ac000000600781905550670f43fc2c04ee000060088190555063c6aea155600981905550565b6000600660009054906101000a900473ffffffffffffffffffffffffffffffffffffffff1673ffffffffffffffffffffffffffffffffffffffff166323b872dd3330856040518463ffffffff167c0100000000000000000000000000000000000000000000000000000000028152600401808473ffffffffffffffffffffffffffffffffffffffff1673ffffffffffffffffffffffffffffffffffffffff1681526020018373ffffffffffffffffffffffffffffffffffffffff1673ffffffffffffffffffffffffffffffffffffffff1681526020018281526020019350505050602060405180830381600087803b158015610d7057600080fd5b505af1158015610d84573d6000803e3d6000fd5b505050506040513d6020811015610d9a57600080fd5b81019080805190602001909291905050501515610e1f576040517f08c379a00000000000000000000000000000000000000000000000000000000081526004018080602001828103825260198152602001807f4572726f7220647572696e67207472616e7366657246726f6d0000000000000081525060200191505060405180910390fd5b3073ffffffffffffffffffffffffffffffffffffffff1663a9059cbb336009546040518363ffffffff167c0100000000000000000000000000000000000000000000000000000000028152600401808373ffffffffffffffffffffffffffffffffffffffff1673ffffffffffffffffffffffffffffffffffffffff16815260200182815260200192505050602060405180830381600087803b158015610ec457600080fd5b505af1158015610ed8573d6000803e3d6000fd5b505050506040513d6020811015610eee57600080fd5b81019080805190602001909291905050501515610f73576040517f08c379a00000000000000000000000000000000000000000000000000000000081526004018080602001828103825260158152602001807f4572726f7220647572696e67207472616e73666572000000000000000000000081525060200191505060405180910390fd5b60009050919050565b6000611017338461101285600460003373ffffffffffffffffffffffffffffffffffffffff1673ffffffffffffffffffffffffffffffffffffffff16815260200190815260200160002060008973ffffffffffffffffffffffffffffffffffffffff1673ffffffffffffffffffffffffffffffffffffffff1681526020019081526020016000205461176c90919063ffffffff16565b6112cd565b6001905092915050565b600061102e3384846114c8565b6001905092915050565b600a5481565b6000600a54905090565b60085481565b6ab5facfe5b81c365c000000600781905550670f43fc2c04ee0000600881905550565b64010eee21d1600981905550565b600061108b3383611881565b600660009054906101000a900473ffffffffffffffffffffffffffffffffffffffff1673ffffffffffffffffffffffffffffffffffffffff1663a9059cbb336008546040518363ffffffff167c0100000000000000000000000000000000000000000000000000000000028152600401808373ffffffffffffffffffffffffffffffffffffffff1673ffffffffffffffffffffffffffffffffffffffff16815260200182815260200192505050602060405180830381600087803b15801561115257600080fd5b505af1158015611166573d6000803e3d6000fd5b505050506040513d602081101561117c57600080fd5b81019080805190602001909291905050501515611201576040517f08c379a00000000000000000000000000000000000000000000000000000000081526004018080602001828103825260158152602001807f4572726f7220647572696e67207472616e73666572000000000000000000000081525060200191505060405180910390fd5b60009050919050565b6000600460008473ffffffffffffffffffffffffffffffffffffffff1673ffffffffffffffffffffffffffffffffffffffff16815260200190815260200160002060008373ffffffffffffffffffffffffffffffffffffffff1673ffffffffffffffffffffffffffffffffffffffff16815260200190815260200160002054905092915050565b600a805481151561129e57fe5b04600a81905550565b600660009054906101000a900473ffffffffffffffffffffffffffffffffffffffff1681565b600073ffffffffffffffffffffffffffffffffffffffff168373ffffffffffffffffffffffffffffffffffffffff1614151515611355576040517f08c379a0000000000000000000000000000000000000000000000000000000008152600401808060200182810382526024815260200180611aaf6024913960400191505060405180910390fd5b600073ffffffffffffffffffffffffffffffffffffffff168273ffffffffffffffffffffffffffffffffffffffff16141515156113dd576040517f08c379a0000000000000000000000000000000000000000000000000000000008152600401808060200182810382526022815260200180611a476022913960400191505060405180910390fd5b80600460008573ffffffffffffffffffffffffffffffffffffffff1673ffffffffffffffffffffffffffffffffffffffff16815260200190815260200160002060008473ffffffffffffffffffffffffffffffffffffffff1673ffffffffffffffffffffffffffffffffffffffff168152602001908152602001600020819055508173ffffffffffffffffffffffffffffffffffffffff168373ffffffffffffffffffffffffffffffffffffffff167f8c5be1e5ebec7d5bd14f71427d1e84f3dd0314c0f7b2291e5b200ac8c7c3b925836040518082815260200191505060405180910390a3505050565b600073ffffffffffffffffffffffffffffffffffffffff168373ffffffffffffffffffffffffffffffffffffffff1614151515611550576040517f08c379a0000000000000000000000000000000000000000000000000000000008152600401808060200182810382526025815260200180611a8a6025913960400191505060405180910390fd5b600073ffffffffffffffffffffffffffffffffffffffff168273ffffffffffffffffffffffffffffffffffffffff16141515156115d8576040517f08c379a0000000000000000000000000000000000000000000000000000000008152600401808060200182810382526023815260200180611a246023913960400191505060405180910390fd5b61162a81600360008673ffffffffffffffffffffffffffffffffffffffff1673ffffffffffffffffffffffffffffffffffffffff1681526020019081526020016000205461176c90919063ffffffff16565b600360008573ffffffffffffffffffffffffffffffffffffffff1673ffffffffffffffffffffffffffffffffffffffff168152602001908152602001600020819055506116bf81600360008573ffffffffffffffffffffffffffffffffffffffff1673ffffffffffffffffffffffffffffffffffffffff168152602001908152602001600020546117f790919063ffffffff16565b600360008473ffffffffffffffffffffffffffffffffffffffff1673ffffffffffffffffffffffffffffffffffffffff168152602001908152602001600020819055508173ffffffffffffffffffffffffffffffffffffffff168373ffffffffffffffffffffffffffffffffffffffff167fddf252ad1be2c89b69c2b068fc378daa952ba7f163c4a11628f55a4df523b3ef836040518082815260200191505060405180910390a3505050565b60008282111515156117e6576040517f08c379a000000000000000000000000000000000000000000000000000000000815260040180806020018281038252601e8152602001807f536166654d6174683a207375627472616374696f6e206f766572666c6f77000081525060200191505060405180910390fd5b600082840390508091505092915050565b6000808284019050838110151515611877576040517f08c379a000000000000000000000000000000000000000000000000000000000815260040180806020018281038252601b8152602001807f536166654d6174683a206164646974696f6e206f766572666c6f77000000000081525060200191505060405180910390fd5b8091505092915050565b600073ffffffffffffffffffffffffffffffffffffffff168273ffffffffffffffffffffffffffffffffffffffff1614151515611909576040517f08c379a0000000000000000000000000000000000000000000000000000000008152600401808060200182810382526021815260200180611a696021913960400191505060405180910390fd5b61191e8160055461176c90919063ffffffff16565b60058190555061197681600360008573ffffffffffffffffffffffffffffffffffffffff1673ffffffffffffffffffffffffffffffffffffffff1681526020019081526020016000205461176c90919063ffffffff16565b600360008473ffffffffffffffffffffffffffffffffffffffff1673ffffffffffffffffffffffffffffffffffffffff16815260200190815260200160002081905550600073ffffffffffffffffffffffffffffffffffffffff168273ffffffffffffffffffffffffffffffffffffffff167fddf252ad1be2c89b69c2b068fc378daa952ba7f163c4a11628f55a4df523b3ef836040518082815260200191505060405180910390a3505056fe45524332303a207472616e7366657220746f20746865207a65726f206164647265737345524332303a20617070726f766520746f20746865207a65726f206164647265737345524332303a206275726e2066726f6d20746865207a65726f206164647265737345524332303a207472616e736665722066726f6d20746865207a65726f206164647265737345524332303a20617070726f76652066726f6d20746865207a65726f2061646472657373a165627a7a723058204fd64dbd68131ba9f32a65651ae5512a9efa2611b99a6b4f96c6d90c84cf21e60029",
  "source": "pragma solidity ^0.5.2;\n\n// interfaces\nimport \"openzeppelin-solidity/contracts/token/ERC20/ERC20Detailed.sol\";\nimport \"openzeppelin-solidity/contracts/token/ERC20/ERC20.sol\";\nimport \"openzeppelin-solidity/contracts/token/ERC20/IERC20.sol\";\nimport \"../interfaces/CERC20.sol\";\n\ncontract cDAIMock is ERC20Detailed, ERC20, CERC20 {\n  address public dai;\n  uint256 public exchangeRate;\n  uint256 public toTransfer;\n  uint256 public toMint;\n  uint256 public supplyRate;\n\n  constructor(address _dai, address tokenOwner)\n    ERC20()\n    ERC20Detailed('cDAI', 'cDAI', 8) public {\n    dai = _dai;\n    exchangeRate = 200000000000000000000000000;\n    toTransfer = 10**18;\n    toMint = 5000000000;\n    supplyRate = 32847953230;\n    _mint(address(this), 10**14); // 1.000.000 cDAI\n    _mint(tokenOwner, 10**11); // 1.000 cDAI\n  }\n  function() payable external {}\n\n  function mint(uint256 amount) external returns (uint256) {\n    require(IERC20(dai).transferFrom(msg.sender, address(this), amount), \"Error during transferFrom\"); // 1 DAI\n    require(this.transfer(msg.sender, toMint), \"Error during transfer\"); // 50 cETH\n    return 0;\n  }\n  function redeem(uint256 amount) external returns (uint256) {\n    // here I should transfer 1 DAI back\n    _burn(msg.sender, amount);\n    require(IERC20(dai).transfer(msg.sender, toTransfer), \"Error during transfer\"); // 1 DAI\n    return 0;\n  }\n\n  function exchangeRateStored() external view returns (uint256) {\n    return exchangeRate;\n  }\n  function supplyRatePerBlock() external view returns (uint256) {\n    return supplyRate;\n  }\n\n  function setSupplyRatePerBlockForTest() external {\n    supplyRate = supplyRate / 10;\n  }\n  function resetSupplyRatePerBlockForTest() external {\n    supplyRate = supplyRate * 10;\n  }\n  function setMintValueForTest() external {\n    toMint = 4545454545;\n  }\n  function setExchangeRateStoredForTest() external {\n    exchangeRate = 220000000000000000000000000;\n    toTransfer = 1.1 * 10**18;\n  }\n  function setNewExchangeRateStoredForTest() external {\n    exchangeRate = 300000000000000000000000000;\n    toTransfer = 1.1 * 10**18;\n    toMint = 3333333333;\n  }\n  function setExchangeRateStoredForTestNoFee() external {\n    exchangeRate = 220000000000000000000000000;\n    toTransfer = 1.078 * 10**18;\n  }\n}\n",
  "sourcePath": "/home/bugman/Projects/idle/contracts/mocks/cDAIMock.sol",
  "compiler": {
    "name": "solc",
    "version": "0.5.2+commit.1df8f40c.Emscripten.clang"
  },
  "schemaVersion": "3.0.11",
  "updatedAt": "2019-07-09T20:26:49.789Z",
  "devdoc": {
    "methods": {
      "allowance(address,address)": {
        "details": "See `IERC20.allowance`."
      },
      "approve(address,uint256)": {
        "details": "See `IERC20.approve`.     * Requirements:     * - `spender` cannot be the zero address."
      },
      "balanceOf(address)": {
        "details": "See `IERC20.balanceOf`."
      },
      "decimals()": {
        "details": "Returns the number of decimals used to get its user representation. For example, if `decimals` equals `2`, a balance of `505` tokens should be displayed to a user as `5,05` (`505 / 10 ** 2`).     * Tokens usually opt for a value of 18, imitating the relationship between Ether and Wei.     * > Note that this information is only used for _display_ purposes: it in no way affects any of the arithmetic of the contract, including `IERC20.balanceOf` and `IERC20.transfer`."
      },
      "decreaseAllowance(address,uint256)": {
        "details": "Atomically decreases the allowance granted to `spender` by the caller.     * This is an alternative to `approve` that can be used as a mitigation for problems described in `IERC20.approve`.     * Emits an `Approval` event indicating the updated allowance.     * Requirements:     * - `spender` cannot be the zero address. - `spender` must have allowance for the caller of at least `subtractedValue`."
      },
      "increaseAllowance(address,uint256)": {
        "details": "Atomically increases the allowance granted to `spender` by the caller.     * This is an alternative to `approve` that can be used as a mitigation for problems described in `IERC20.approve`.     * Emits an `Approval` event indicating the updated allowance.     * Requirements:     * - `spender` cannot be the zero address."
      },
      "name()": {
        "details": "Returns the name of the token."
      },
      "symbol()": {
        "details": "Returns the symbol of the token, usually a shorter version of the name."
      },
      "totalSupply()": {
        "details": "See `IERC20.totalSupply`."
      },
      "transfer(address,uint256)": {
        "details": "See `IERC20.transfer`.     * Requirements:     * - `recipient` cannot be the zero address. - the caller must have a balance of at least `amount`."
      },
      "transferFrom(address,address,uint256)": {
        "details": "See `IERC20.transferFrom`.     * Emits an `Approval` event indicating the updated allowance. This is not required by the EIP. See the note at the beginning of `ERC20`;     * Requirements: - `sender` and `recipient` cannot be the zero address. - `sender` must have a balance of at least `value`. - the caller must have allowance for `sender`'s tokens of at least `amount`."
      }
    }
  },
  "userdoc": {
    "methods": {}
  }
}