{
  "contractName": "DaiToken",
  "abi": [
    {
      "constant": true,
      "inputs": [],
      "name": "name",
      "outputs": [
        {
          "name": "",
          "type": "string"
        }
      ],
      "payable": false,
      "stateMutability": "view",
      "type": "function"
    },
    {
      "constant": true,
      "inputs": [],
      "name": "decimals",
      "outputs": [
        {
          "name": "",
          "type": "uint8"
        }
      ],
      "payable": false,
      "stateMutability": "view",
      "type": "function"
    },
    {
      "constant": true,
      "inputs": [],
      "name": "_totalSupply",
      "outputs": [
        {
          "name": "",
          "type": "uint256"
        }
      ],
      "payable": false,
      "stateMutability": "view",
      "type": "function"
    },
    {
      "constant": false,
      "inputs": [],
      "name": "renounceOwnership",
      "outputs": [],
      "payable": false,
      "stateMutability": "nonpayable",
      "type": "function"
    },
    {
      "constant": true,
      "inputs": [],
      "name": "owner",
      "outputs": [
        {
          "name": "",
          "type": "address"
        }
      ],
      "payable": false,
      "stateMutability": "view",
      "type": "function"
    },
    {
      "constant": true,
      "inputs": [],
      "name": "isOwner",
      "outputs": [
        {
          "name": "",
          "type": "bool"
        }
      ],
      "payable": false,
      "stateMutability": "view",
      "type": "function"
    },
    {
      "constant": true,
      "inputs": [],
      "name": "symbol",
      "outputs": [
        {
          "name": "",
          "type": "string"
        }
      ],
      "payable": false,
      "stateMutability": "view",
      "type": "function"
    },
    {
      "constant": false,
      "inputs": [
        {
          "name": "newOwner",
          "type": "address"
        }
      ],
      "name": "transferOwnership",
      "outputs": [],
      "payable": false,
      "stateMutability": "nonpayable",
      "type": "function"
    },
    {
      "inputs": [],
      "payable": false,
      "stateMutability": "nonpayable",
      "type": "constructor"
    },
    {
      "payable": true,
      "stateMutability": "payable",
      "type": "fallback"
    },
    {
      "anonymous": false,
      "inputs": [
        {
          "indexed": true,
          "name": "previousOwner",
          "type": "address"
        },
        {
          "indexed": true,
          "name": "newOwner",
          "type": "address"
        }
      ],
      "name": "OwnershipTransferred",
      "type": "event"
    },
    {
      "anonymous": false,
      "inputs": [
        {
          "indexed": true,
          "name": "from",
          "type": "address"
        },
        {
          "indexed": true,
          "name": "to",
          "type": "address"
        },
        {
          "indexed": false,
          "name": "tokens",
          "type": "uint256"
        }
      ],
      "name": "Transfer",
      "type": "event"
    },
    {
      "anonymous": false,
      "inputs": [
        {
          "indexed": true,
          "name": "tokenOwner",
          "type": "address"
        },
        {
          "indexed": true,
          "name": "spender",
          "type": "address"
        },
        {
          "indexed": false,
          "name": "tokens",
          "type": "uint256"
        }
      ],
      "name": "Approval",
      "type": "event"
    },
    {
      "constant": true,
      "inputs": [],
      "name": "totalSupply",
      "outputs": [
        {
          "name": "",
          "type": "uint256"
        }
      ],
      "payable": false,
      "stateMutability": "view",
      "type": "function"
    },
    {
      "constant": true,
      "inputs": [
        {
          "name": "tokenOwner",
          "type": "address"
        }
      ],
      "name": "balanceOf",
      "outputs": [
        {
          "name": "balance",
          "type": "uint256"
        }
      ],
      "payable": false,
      "stateMutability": "view",
      "type": "function"
    },
    {
      "constant": false,
      "inputs": [
        {
          "name": "to",
          "type": "address"
        },
        {
          "name": "tokens",
          "type": "uint256"
        }
      ],
      "name": "transfer",
      "outputs": [
        {
          "name": "success",
          "type": "bool"
        }
      ],
      "payable": false,
      "stateMutability": "nonpayable",
      "type": "function"
    },
    {
      "constant": false,
      "inputs": [
        {
          "name": "spender",
          "type": "address"
        },
        {
          "name": "tokens",
          "type": "uint256"
        }
      ],
      "name": "approve",
      "outputs": [
        {
          "name": "success",
          "type": "bool"
        }
      ],
      "payable": false,
      "stateMutability": "nonpayable",
      "type": "function"
    },
    {
      "constant": false,
      "inputs": [
        {
          "name": "from",
          "type": "address"
        },
        {
          "name": "to",
          "type": "address"
        },
        {
          "name": "tokens",
          "type": "uint256"
        }
      ],
      "name": "transferFrom",
      "outputs": [
        {
          "name": "success",
          "type": "bool"
        }
      ],
      "payable": false,
      "stateMutability": "nonpayable",
      "type": "function"
    },
    {
      "constant": true,
      "inputs": [
        {
          "name": "tokenOwner",
          "type": "address"
        },
        {
          "name": "spender",
          "type": "address"
        }
      ],
      "name": "allowance",
      "outputs": [
        {
          "name": "remaining",
          "type": "uint256"
        }
      ],
      "payable": false,
      "stateMutability": "view",
      "type": "function"
    },
    {
      "constant": false,
      "inputs": [
        {
          "name": "spender",
          "type": "address"
        },
        {
          "name": "tokens",
          "type": "uint256"
        },
        {
          "name": "data",
          "type": "bytes"
        }
      ],
      "name": "approveAndCall",
      "outputs": [
        {
          "name": "success",
          "type": "bool"
        }
      ],
      "payable": false,
      "stateMutability": "nonpayable",
      "type": "function"
    },
    {
      "constant": false,
      "inputs": [
        {
          "name": "tokenAddress",
          "type": "address"
        },
        {
          "name": "tokens",
          "type": "uint256"
        }
      ],
      "name": "transferAnyERC20Token",
      "outputs": [
        {
          "name": "success",
          "type": "bool"
        }
      ],
      "payable": false,
      "stateMutability": "nonpayable",
      "type": "function"
    }
  ],
  "bytecode": "0x608060405234801561001057600080fd5b5060008054600160a060020a0319163317808255604051600160a060020a039190911691907f8be0079c531659141344cd1fd0a4f28419497f9722a3daafe3b4186f6b6457e0908290a36040805180820190915260038082527f4441490000000000000000000000000000000000000000000000000000000000602090920191825261009e9160019161014c565b5060408051808201909152600e8082527f44616920537461626c65436f696e00000000000000000000000000000000000060209092019182526100e39160029161014c565b506003805460ff1916905569152d02c7e14af68000006004819055336000818152600560209081526040808320859055805194855251929391927fddf252ad1be2c89b69c2b068fc378daa952ba7f163c4a11628f55a4df523b3ef9281900390910190a36101e7565b828054600181600116156101000203166002900490600052602060002090601f016020900481019282601f1061018d57805160ff19168380011785556101ba565b828001600101855582156101ba579182015b828111156101ba57825182559160200191906001019061019f565b506101c69291506101ca565b5090565b6101e491905b808211156101c657600081556001016101d0565b90565b610dd9806101f66000396000f3fe6080604052600436106100e55763ffffffff7c010000000000000000000000000000000000000000000000000000000060003504166306fdde0381146100ea578063095ea7b31461017457806318160ddd146101c157806323b872dd146101e8578063313ce5671461022b5780633eaaf86b1461025657806370a082311461026b578063715018a61461029e5780638da5cb5b146102b55780638f32d59b146102e657806395d89b41146102fb578063a9059cbb14610310578063cae9ca5114610349578063dc39d06d14610411578063dd62ed3e1461044a578063f2fde38b14610485575b600080fd5b3480156100f657600080fd5b506100ff6104b8565b6040805160208082528351818301528351919283929083019185019080838360005b83811015610139578181015183820152602001610121565b50505050905090810190601f1680156101665780820380516001836020036101000a031916815260200191505b509250505060405180910390f35b34801561018057600080fd5b506101ad6004803603604081101561019757600080fd5b50600160a060020a038135169060200135610543565b604080519115158252519081900360200190f35b3480156101cd57600080fd5b506101d66105a9565b60408051918252519081900360200190f35b3480156101f457600080fd5b506101ad6004803603606081101561020b57600080fd5b50600160a060020a038135811691602081013590911690604001356105db565b34801561023757600080fd5b506102406106e6565b6040805160ff9092168252519081900360200190f35b34801561026257600080fd5b506101d66106ef565b34801561027757600080fd5b506101d66004803603602081101561028e57600080fd5b5035600160a060020a03166106f5565b3480156102aa57600080fd5b506102b3610710565b005b3480156102c157600080fd5b506102ca6107c5565b60408051600160a060020a039092168252519081900360200190f35b3480156102f257600080fd5b506101ad6107d4565b34801561030757600080fd5b506100ff6107e5565b34801561031c57600080fd5b506101ad6004803603604081101561033357600080fd5b50600160a060020a03813516906020013561083f565b34801561035557600080fd5b506101ad6004803603606081101561036c57600080fd5b600160a060020a038235169160208101359181019060608101604082013564010000000081111561039c57600080fd5b8201836020820111156103ae57600080fd5b803590602001918460018302840111640100000000831117156103d057600080fd5b91908080601f0160208091040260200160405190810160405280939291908181526020018383808284376000920191909152509295506108ef945050505050565b34801561041d57600080fd5b506101ad6004803603604081101561043457600080fd5b50600160a060020a038135169060200135610a50565b34801561045657600080fd5b506101d66004803603604081101561046d57600080fd5b50600160a060020a0381358116916020013516610b66565b34801561049157600080fd5b506102b3600480360360208110156104a857600080fd5b5035600160a060020a0316610b91565b6002805460408051602060018416156101000260001901909316849004601f8101849004840282018401909252818152929183018282801561053b5780601f106105105761010080835404028352916020019161053b565b820191906000526020600020905b81548152906001019060200180831161051e57829003601f168201915b505050505081565b336000818152600660209081526040808320600160a060020a038716808552908352818420869055815186815291519394909390927f8c5be1e5ebec7d5bd14f71427d1e84f3dd0314c0f7b2291e5b200ac8c7c3b925928290030190a350600192915050565b6000805260056020527f05b8ccbb9d4d8fb16ea74ce3c29a41f1b461fbdaff4714a0d9a8eb05499746bc546004540390565b600160a060020a038316600090815260056020526040812054610604908363ffffffff610bfb16565b600160a060020a0385166000908152600560209081526040808320939093556006815282822033835290522054610641908363ffffffff610bfb16565b600160a060020a038086166000908152600660209081526040808320338452825280832094909455918616815260059091522054610685908363ffffffff610c5b16565b600160a060020a0380851660008181526005602090815260409182902094909455805186815290519193928816927fddf252ad1be2c89b69c2b068fc378daa952ba7f163c4a11628f55a4df523b3ef92918290030190a35060019392505050565b60035460ff1681565b60045481565b600160a060020a031660009081526005602052604090205490565b6107186107d4565b151561076e576040805160e560020a62461bcd02815260206004820181905260248201527f4f776e61626c653a2063616c6c6572206973206e6f7420746865206f776e6572604482015290519081900360640190fd5b60008054604051600160a060020a03909116907f8be0079c531659141344cd1fd0a4f28419497f9722a3daafe3b4186f6b6457e0908390a36000805473ffffffffffffffffffffffffffffffffffffffff19169055565b600054600160a060020a031690565b600054600160a060020a0316331490565b60018054604080516020600284861615610100026000190190941693909304601f8101849004840282018401909252818152929183018282801561053b5780601f106105105761010080835404028352916020019161053b565b3360009081526005602052604081205461085f908363ffffffff610bfb16565b3360009081526005602052604080822092909255600160a060020a03851681522054610891908363ffffffff610c5b16565b600160a060020a0384166000818152600560209081526040918290209390935580518581529051919233927fddf252ad1be2c89b69c2b068fc378daa952ba7f163c4a11628f55a4df523b3ef9281900390910190a350600192915050565b336000818152600660209081526040808320600160a060020a038816808552908352818420879055815187815291519394909390927f8c5be1e5ebec7d5bd14f71427d1e84f3dd0314c0f7b2291e5b200ac8c7c3b925928290030190a36040517f8f4ffcb10000000000000000000000000000000000000000000000000000000081523360048201818152602483018690523060448401819052608060648501908152865160848601528651600160a060020a038a1695638f4ffcb195948a94938a939192909160a490910190602085019080838360005b838110156109df5781810151838201526020016109c7565b50505050905090810190601f168015610a0c5780820380516001836020036101000a031916815260200191505b5095505050505050600060405180830381600087803b158015610a2e57600080fd5b505af1158015610a42573d6000803e3d6000fd5b506001979650505050505050565b6000610a5a6107d4565b1515610ab0576040805160e560020a62461bcd02815260206004820181905260248201527f4f776e61626c653a2063616c6c6572206973206e6f7420746865206f776e6572604482015290519081900360640190fd5b82600160a060020a031663a9059cbb610ac76107c5565b846040518363ffffffff167c01000000000000000000000000000000000000000000000000000000000281526004018083600160a060020a0316600160a060020a0316815260200182815260200192505050602060405180830381600087803b158015610b3357600080fd5b505af1158015610b47573d6000803e3d6000fd5b505050506040513d6020811015610b5d57600080fd5b50519392505050565b600160a060020a03918216600090815260066020908152604080832093909416825291909152205490565b610b996107d4565b1515610bef576040805160e560020a62461bcd02815260206004820181905260248201527f4f776e61626c653a2063616c6c6572206973206e6f7420746865206f776e6572604482015290519081900360640190fd5b610bf881610cbf565b50565b600082821115610c55576040805160e560020a62461bcd02815260206004820152601e60248201527f536166654d6174683a207375627472616374696f6e206f766572666c6f770000604482015290519081900360640190fd5b50900390565b600082820183811015610cb8576040805160e560020a62461bcd02815260206004820152601b60248201527f536166654d6174683a206164646974696f6e206f766572666c6f770000000000604482015290519081900360640190fd5b9392505050565b600160a060020a0381161515610d45576040805160e560020a62461bcd02815260206004820152602660248201527f4f776e61626c653a206e6577206f776e657220697320746865207a65726f206160448201527f6464726573730000000000000000000000000000000000000000000000000000606482015290519081900360840190fd5b60008054604051600160a060020a03808516939216917f8be0079c531659141344cd1fd0a4f28419497f9722a3daafe3b4186f6b6457e091a36000805473ffffffffffffffffffffffffffffffffffffffff1916600160a060020a039290921691909117905556fea165627a7a723058206b2577ef3ac79ff048992924f692fc95f36824148440f02ccbb664fa7e11c3e60029",
  "source": "pragma solidity ^0.5.0;\r\n\r\n//\r\n// (c) by Moritz Neto with BokkyPooBah / Bok Consulting Pty Ltd Au 2017. The MIT Licence.\r\n// ----------------------------------------------------------------------------\r\n\r\n\r\n// ----------------------------------------------------------------------------\r\n// Safe maths\r\n// ----------------------------------------------------------------------------\r\n\r\n\r\n\r\n// ----------------------------------------------------------------------------\r\n// ERC Token Standard #20 Interface\r\n// https://github.com/ethereum/EIPs/blob/master/EIPS/eip-20-token-standard.md\r\n// ----------------------------------------------------------------------------\r\n\r\n\r\n\r\n// ----------------------------------------------------------------------------\r\n// Owned contract\r\n// ----------------------------------------------------------------------------\r\n\r\n\r\n\r\n// ----------------------------------------------------------------------------\r\n// ERC20 Token, with the addition of symbol, name and decimals and assisted\r\n// token transfers\r\n\r\nimport \"./ERC20Interface.sol\";\r\nimport \"./Ownable.sol\";\r\nimport \"./SafeMath.sol\";\r\n// ----------------------------------------------------------------------------\r\ncontract DaiToken is ERC20Interface, Ownable {\r\n  using SafeMath for uint256;\r\n    string public symbol;\r\n    string public  name;\r\n    uint8 public decimals;\r\n    uint public _totalSupply;\r\n\r\n    mapping(address => uint) balances;\r\n    mapping(address => mapping(address => uint)) allowed;\r\n\r\n\r\n    // ------------------------------------------------------------------------\r\n    // Constructor\r\n    // ------------------------------------------------------------------------\r\n    constructor() public {\r\n        symbol = \"DAI\";\r\n        name = \"Dai StableCoin\";\r\n        decimals = 0;\r\n        _totalSupply = 100000000000000000000000;\r\n        balances[msg.sender] = _totalSupply;\r\n        emit Transfer(address(0), msg.sender, _totalSupply);\r\n    }\r\n\r\n\r\n    // ------------------------------------------------------------------------\r\n    // Total supply\r\n    // ------------------------------------------------------------------------\r\n    function totalSupply() public view returns (uint) {\r\n        return _totalSupply  - balances[address(0)];\r\n    }\r\n\r\n\r\n    // ------------------------------------------------------------------------\r\n    // Get the token balance for account tokenOwner\r\n    // ------------------------------------------------------------------------\r\n    function balanceOf(address tokenOwner) public view returns (uint balance) {\r\n        return balances[tokenOwner];\r\n    }\r\n\r\n\r\n    // ------------------------------------------------------------------------\r\n    // Transfer the balance from token owner's account to to account\r\n    // - Owner's account must have sufficient balance to transfer\r\n    // - 0 value transfers are allowed\r\n    // ------------------------------------------------------------------------\r\n    function transfer(address to, uint tokens) public returns (bool success) {\r\n        balances[msg.sender] = balances[msg.sender].sub(tokens);\r\n        balances[to] = balances[to].add(tokens);\r\n        emit Transfer(msg.sender, to, tokens);\r\n        return true;\r\n    }\r\n\r\n\r\n    // ------------------------------------------------------------------------\r\n    // Token owner can approve for spender to transferFrom(...) tokens\r\n    // from the token owner's account\r\n    //\r\n    // https://github.com/ethereum/EIPs/blob/master/EIPS/eip-20-token-standard.md\r\n    // recommends that there are no checks for the approval double-spend attack\r\n    // as this should be implemented in user interfaces\r\n    // ------------------------------------------------------------------------\r\n    function approve(address spender, uint tokens) public returns (bool success) {\r\n        allowed[msg.sender][spender] = tokens;\r\n        emit Approval(msg.sender, spender, tokens);\r\n        return true;\r\n    }\r\n\r\n\r\n    // ------------------------------------------------------------------------\r\n    // Transfer tokens from the from account to the to account\r\n    //\r\n    // The calling account must already have sufficient tokens approve(...)-d\r\n    // for spending from the from account and\r\n    // - From account must have sufficient balance to transfer\r\n    // - Spender must have sufficient allowance to transfer\r\n    // - 0 value transfers are allowed\r\n    // ------------------------------------------------------------------------\r\n    function transferFrom(address from, address to, uint tokens) public returns (bool success) {\r\n        balances[from] = balances[from].sub(tokens);\r\n        allowed[from][msg.sender] = allowed[from][msg.sender].sub(tokens);\r\n        balances[to] = balances[to].add(tokens);\r\n        emit Transfer(from, to, tokens);\r\n        return true;\r\n    }\r\n\r\n\r\n    // ------------------------------------------------------------------------\r\n    // Returns the amount of tokens approved by the owner that can be\r\n    // transferred to the spender's account\r\n    // ------------------------------------------------------------------------\r\n    function allowance(address tokenOwner, address spender) public view returns (uint remaining) {\r\n        return allowed[tokenOwner][spender];\r\n    }\r\n\r\n\r\n    // ------------------------------------------------------------------------\r\n    // Token owner can approve for spender to transferFrom(...) tokens\r\n    // from the token owner's account. The spender contract function\r\n    // receiveApproval(...) is then executed\r\n    // ------------------------------------------------------------------------\r\n    function approveAndCall(address spender, uint tokens, bytes memory data) public returns (bool success) {\r\n        allowed[msg.sender][spender] = tokens;\r\n        emit Approval(msg.sender, spender, tokens);\r\n        ApproveAndCallFallBack(spender).receiveApproval(msg.sender, tokens, address(this), data);\r\n        return true;\r\n    }\r\n\r\n\r\n    // ------------------------------------------------------------------------\r\n    // Don't accept ETH\r\n    // ------------------------------------------------------------------------\r\n    function() external payable {\r\n        revert();\r\n    }\r\n\r\n\r\n    // ------------------------------------------------------------------------\r\n    // Owner can transfer out any accidentally sent ERC20 tokens\r\n    // ------------------------------------------------------------------------\r\n    function transferAnyERC20Token(address tokenAddress, uint tokens) public onlyOwner returns (bool success) {\r\n        return ERC20Interface(tokenAddress).transfer(owner(), tokens);\r\n    }\r\n}\r\n",
  "sourcePath": "C:/Users/tredg/Providentia/contracts/DaiToken.sol",
  "compiler": {
    "name": "solc",
    "version": "0.5.0+commit.1d4f565a.Emscripten.clang"
  },
  "schemaVersion": "3.0.11",
  "updatedAt": "2019-07-10T18:41:15.442Z",
  "devdoc": {
    "methods": {
      "isOwner()": {
        "return": "true if msg.sender is the owner of the contract.\r"
      },
      "owner()": {
        "return": "the address of the owner.\r"
      },
      "renounceOwnership()": {
        "details": "Allows the current owner to relinquish control of the contract.\r It will not be possible to call the functions with the onlyOwner\r modifier anymore.\r"
      },
      "transferOwnership(address)": {
        "details": "Allows the current owner to transfer control of the contract to a newOwner.\r",
        "params": {
          "newOwner": "The address to transfer ownership to.\r"
        }
      }
    }
  },
  "userdoc": {
    "methods": {
      "renounceOwnership()": {
        "notice": "Renouncing ownership will leave the contract without an owner,\r thereby removing any functionality that is only available to the owner.\r"
      }
    }
  }
}