{
  "contractName": "ERC1155",
  "abi": [
    {
      "anonymous": false,
      "inputs": [
        {
          "indexed": true,
          "name": "_operator",
          "type": "address"
        },
        {
          "indexed": true,
          "name": "_from",
          "type": "address"
        },
        {
          "indexed": true,
          "name": "_to",
          "type": "address"
        },
        {
          "indexed": false,
          "name": "_id",
          "type": "uint256"
        },
        {
          "indexed": false,
          "name": "_value",
          "type": "uint256"
        }
      ],
      "name": "TransferSingle",
      "type": "event"
    },
    {
      "anonymous": false,
      "inputs": [
        {
          "indexed": true,
          "name": "_operator",
          "type": "address"
        },
        {
          "indexed": true,
          "name": "_from",
          "type": "address"
        },
        {
          "indexed": true,
          "name": "_to",
          "type": "address"
        },
        {
          "indexed": false,
          "name": "_ids",
          "type": "uint256[]"
        },
        {
          "indexed": false,
          "name": "_values",
          "type": "uint256[]"
        }
      ],
      "name": "TransferBatch",
      "type": "event"
    },
    {
      "anonymous": false,
      "inputs": [
        {
          "indexed": true,
          "name": "_owner",
          "type": "address"
        },
        {
          "indexed": true,
          "name": "_operator",
          "type": "address"
        },
        {
          "indexed": false,
          "name": "_approved",
          "type": "bool"
        }
      ],
      "name": "ApprovalForAll",
      "type": "event"
    },
    {
      "anonymous": false,
      "inputs": [
        {
          "indexed": false,
          "name": "_value",
          "type": "string"
        },
        {
          "indexed": true,
          "name": "_id",
          "type": "uint256"
        }
      ],
      "name": "URI",
      "type": "event"
    },
    {
      "constant": true,
      "inputs": [
        {
          "name": "_interfaceId",
          "type": "bytes4"
        }
      ],
      "name": "supportsInterface",
      "outputs": [
        {
          "name": "",
          "type": "bool"
        }
      ],
      "payable": false,
      "stateMutability": "view",
      "type": "function"
    },
    {
      "constant": false,
      "inputs": [
        {
          "name": "_from",
          "type": "address"
        },
        {
          "name": "_to",
          "type": "address"
        },
        {
          "name": "_id",
          "type": "uint256"
        },
        {
          "name": "_value",
          "type": "uint256"
        },
        {
          "name": "_data",
          "type": "bytes"
        }
      ],
      "name": "safeTransferFrom",
      "outputs": [],
      "payable": false,
      "stateMutability": "nonpayable",
      "type": "function"
    },
    {
      "constant": false,
      "inputs": [
        {
          "name": "_from",
          "type": "address"
        },
        {
          "name": "_to",
          "type": "address"
        },
        {
          "name": "_ids",
          "type": "uint256[]"
        },
        {
          "name": "_values",
          "type": "uint256[]"
        },
        {
          "name": "_data",
          "type": "bytes"
        }
      ],
      "name": "safeBatchTransferFrom",
      "outputs": [],
      "payable": false,
      "stateMutability": "nonpayable",
      "type": "function"
    },
    {
      "constant": true,
      "inputs": [
        {
          "name": "_owner",
          "type": "address"
        },
        {
          "name": "_id",
          "type": "uint256"
        }
      ],
      "name": "balanceOf",
      "outputs": [
        {
          "name": "",
          "type": "uint256"
        }
      ],
      "payable": false,
      "stateMutability": "view",
      "type": "function"
    },
    {
      "constant": true,
      "inputs": [
        {
          "name": "_owners",
          "type": "address[]"
        },
        {
          "name": "_ids",
          "type": "uint256[]"
        }
      ],
      "name": "balanceOfBatch",
      "outputs": [
        {
          "name": "",
          "type": "uint256[]"
        }
      ],
      "payable": false,
      "stateMutability": "view",
      "type": "function"
    },
    {
      "constant": false,
      "inputs": [
        {
          "name": "_operator",
          "type": "address"
        },
        {
          "name": "_approved",
          "type": "bool"
        }
      ],
      "name": "setApprovalForAll",
      "outputs": [],
      "payable": false,
      "stateMutability": "nonpayable",
      "type": "function"
    },
    {
      "constant": true,
      "inputs": [
        {
          "name": "_owner",
          "type": "address"
        },
        {
          "name": "_operator",
          "type": "address"
        }
      ],
      "name": "isApprovedForAll",
      "outputs": [
        {
          "name": "",
          "type": "bool"
        }
      ],
      "payable": false,
      "stateMutability": "view",
      "type": "function"
    }
  ],
  "bytecode": "0x608060405234801561001057600080fd5b5061123a806100206000396000f3fe6080604052600436106100685763ffffffff60e060020a600035041662fdd58e811461006d57806301ffc9a7146100b85780632eb2c2d6146101005780634e1273f41461023c578063a22cb4651461035b578063e985e9c514610396578063f242432a146103d1575b600080fd5b34801561007957600080fd5b506100a66004803603604081101561009057600080fd5b50600160a060020a038135169060200135610473565b60408051918252519081900360200190f35b3480156100c457600080fd5b506100ec600480360360208110156100db57600080fd5b5035600160e060020a031916610498565b604080519115158252519081900360200190f35b34801561010c57600080fd5b5061023a600480360360a081101561012357600080fd5b600160a060020a03823581169260208101359091169181019060608101604082013564010000000081111561015757600080fd5b82018360208201111561016957600080fd5b8035906020019184602083028401116401000000008311171561018b57600080fd5b9193909290916020810190356401000000008111156101a957600080fd5b8201836020820111156101bb57600080fd5b803590602001918460208302840111640100000000831117156101dd57600080fd5b9193909290916020810190356401000000008111156101fb57600080fd5b82018360208201111561020d57600080fd5b8035906020019184600183028401116401000000008311171561022f57600080fd5b509092509050610511565b005b34801561024857600080fd5b5061030b6004803603604081101561025f57600080fd5b81019060208101813564010000000081111561027a57600080fd5b82018360208201111561028c57600080fd5b803590602001918460208302840111640100000000831117156102ae57600080fd5b9193909290916020810190356401000000008111156102cc57600080fd5b8201836020820111156102de57600080fd5b8035906020019184602083028401116401000000008311171561030057600080fd5b509092509050610977565b60408051602080825283518183015283519192839290830191858101910280838360005b8381101561034757818101518382015260200161032f565b505050509050019250505060405180910390f35b34801561036757600080fd5b5061023a6004803603604081101561037e57600080fd5b50600160a060020a0381351690602001351515610a4e565b3480156103a257600080fd5b506100ec600480360360408110156103b957600080fd5b50600160a060020a0381358116916020013516610abc565b3480156103dd57600080fd5b5061023a600480360360a08110156103f457600080fd5b600160a060020a03823581169260208101359091169160408201359160608101359181019060a08101608082013564010000000081111561043457600080fd5b82018360208201111561044657600080fd5b8035906020019184600183028401116401000000008311171561046857600080fd5b509092509050610aea565b600090815260208181526040808320600160a060020a03949094168352929052205490565b6000600160e060020a031982167f01ffc9a70000000000000000000000000000000000000000000000000000000014806104fb5750600160e060020a031982167fd9b67a2600000000000000000000000000000000000000000000000000000000145b156105085750600161050c565b5060005b919050565b600160a060020a0387161515610597576040805160e560020a62461bcd02815260206004820152602560248201527f64657374696e6174696f6e2061646472657373206d757374206265206e6f6e2d60448201527f7a65726f2e000000000000000000000000000000000000000000000000000000606482015290519081900360840190fd5b848314610614576040805160e560020a62461bcd02815260206004820152602960248201527f5f69647320616e64205f76616c756573206172726179206c656e676874206d7560448201527f7374206d617463682e0000000000000000000000000000000000000000000000606482015290519081900360840190fd5b600160a060020a0388163314806106525750600160a060020a03881660009081526001602081815260408084203385529091529091205460ff161515145b15156106ce576040805160e560020a62461bcd02815260206004820152602f60248201527f4e656564206f70657261746f7220617070726f76616c20666f7220337264207060448201527f61727479207472616e73666572732e0000000000000000000000000000000000606482015290519081900360840190fd5b60005b858110156108005760008787838181106106e757fe5b9050602002013590506000868684818110151561070057fe5b9050602002013590506107518160008085815260200190815260200160002060008e600160a060020a0316600160a060020a0316815260200190815260200160002054610d3290919063ffffffff16565b60008084815260200190815260200160002060008d600160a060020a0316600160a060020a03168152602001908152602001600020819055506107d260008084815260200190815260200160002060008c600160a060020a0316600160a060020a031681526020019081526020016000205482610d9290919063ffffffff16565b600092835260208381526040808520600160a060020a038e16865290915290922091909155506001016106d1565b5086600160a060020a031688600160a060020a031633600160a060020a03167f4a39dc06d4c0dbc64b70af90fd698a233a518aa5d07e595d983b8c0526c8f7fb898989896040518080602001806020018381038352878782818152602001925060200280828437600083820152601f01601f19169091018481038352858152602090810191508690860280828437600083820152604051601f909101601f19169092018290039850909650505050505050a46108c487600160a060020a0316610df6565b1561096d5761096d33898989898080602002602001604051908101604052809392919081815260200183836020028082843760009201919091525050604080516020808d0282810182019093528c82529093508c92508b91829185019084908082843760009201919091525050604080516020601f8c018190048102820181019092528a815292508a9150899081908401838280828437600092019190915250610dfe92505050565b5050505050505050565b606083821461098557600080fd5b6040805185815260208087028201019091526060908580156109b1578160200160208202803883390190505b50905060005b85811015610a44576000808686848181106109ce57fe5b905060200201358152602001908152602001600020600088888481811015156109f357fe5b90506020020135600160a060020a0316600160a060020a0316600160a060020a03168152602001908152602001600020548282815181101515610a3257fe5b602090810290910101526001016109b7565b5095945050505050565b336000818152600160209081526040808320600160a060020a03871680855290835292819020805460ff1916861515908117909155815190815290519293927f17307eab39ab6107e8899845ad3d59bd9653f200f220920489ca2b5937696c31929181900390910190a35050565b600160a060020a03918216600090815260016020908152604080832093909416825291909152205460ff1690565b600160a060020a0385161515610b4a576040805160e560020a62461bcd02815260206004820152601560248201527f5f746f206d757374206265206e6f6e2d7a65726f2e0000000000000000000000604482015290519081900360640190fd5b600160a060020a038616331480610b885750600160a060020a03861660009081526001602081815260408084203385529091529091205460ff161515145b1515610c04576040805160e560020a62461bcd02815260206004820152602f60248201527f4e656564206f70657261746f7220617070726f76616c20666f7220337264207060448201527f61727479207472616e73666572732e0000000000000000000000000000000000606482015290519081900360840190fd5b600084815260208181526040808320600160a060020a038a168452909152902054610c35908463ffffffff610d3216565b600085815260208181526040808320600160a060020a038b81168552925280832093909355871681522054610c6b908490610d92565b600085815260208181526040808320600160a060020a03808b16808652918452938290209490945580518881529182018790528051928a169233927fc3d58168c5ae7397731d063d5bbf3d657854427343f4c083240f7aacaa2d0f6292908290030190a4610ce185600160a060020a0316610df6565b15610d2a57610d2a338787878787878080601f01602080910402602001604051908101604052809392919081815260200183838082843760009201919091525061104492505050565b505050505050565b600082821115610d8c576040805160e560020a62461bcd02815260206004820152601e60248201527f536166654d6174683a207375627472616374696f6e206f766572666c6f770000604482015290519081900360640190fd5b50900390565b600082820183811015610def576040805160e560020a62461bcd02815260206004820152601b60248201527f536166654d6174683a206164646974696f6e206f766572666c6f770000000000604482015290519081900360640190fd5b9392505050565b6000903b1190565b63bc197c8160e060020a027bffffffffffffffffffffffffffffffffffffffffffffffffffffffff191684600160a060020a031663bc197c8188888787876040518663ffffffff1660e060020a0281526004018086600160a060020a0316600160a060020a0316815260200185600160a060020a0316600160a060020a03168152602001806020018060200180602001848103845287818151815260200191508051906020019060200280838360005b83811015610ec6578181015183820152602001610eae565b50505050905001848103835286818151815260200191508051906020019060200280838360005b83811015610f05578181015183820152602001610eed565b50505050905001848103825285818151815260200191508051906020019080838360005b83811015610f41578181015183820152602001610f29565b50505050905090810190601f168015610f6e5780820380516001836020036101000a031916815260200191505b5098505050505050505050602060405180830381600087803b158015610f9357600080fd5b505af1158015610fa7573d6000803e3d6000fd5b505050506040513d6020811015610fbd57600080fd5b5051600160e060020a03191614610d2a576040805160e560020a62461bcd02815260206004820152603e60248201527f636f6e74726163742072657475726e656420616e20756e6b6e6f776e2076616c60448201527f75652066726f6d206f6e45524331313535426174636852656365697665640000606482015290519081900360840190fd5b63f23a6e6160e060020a027bffffffffffffffffffffffffffffffffffffffffffffffffffffffff191684600160a060020a031663f23a6e6188888787876040518663ffffffff1660e060020a0281526004018086600160a060020a0316600160a060020a0316815260200185600160a060020a0316600160a060020a0316815260200184815260200183815260200180602001828103825283818151815260200191508051906020019080838360005b8381101561110d5781810151838201526020016110f5565b50505050905090810190601f16801561113a5780820380516001836020036101000a031916815260200191505b509650505050505050602060405180830381600087803b15801561115d57600080fd5b505af1158015611171573d6000803e3d6000fd5b505050506040513d602081101561118757600080fd5b5051600160e060020a03191614610d2a576040805160e560020a62461bcd02815260206004820152603960248201527f636f6e74726163742072657475726e656420616e20756e6b6e6f776e2076616c60448201527f75652066726f6d206f6e45524331313535526563656976656400000000000000606482015290519081900360840190fdfea165627a7a723058203b85030c0440d3f2ae8c279735d4bffa5ab52ac9adbf9160bafd1ba0da9428b50029",
  "source": "pragma solidity ^0.5.0;\r\n\r\nimport \"./SafeMath.sol\";\r\nimport \"./Address.sol\";\r\nimport \"./Common.sol\";\r\nimport \"./IERC1155TokenReceiver.sol\";\r\nimport \"./IERC1155.sol\";\r\n\r\n// A sample implementation of core ERC1155 function.\r\ncontract ERC1155 is IERC1155, ERC165, CommonConstants\r\n{\r\n    using SafeMath for uint256;\r\n    using Address for address;\r\n\r\n    // id => (owner => balance)\r\n    mapping (uint256 => mapping(address => uint256)) internal balances;\r\n\r\n    // owner => (operator => approved)\r\n    mapping (address => mapping(address => bool)) internal operatorApproval;\r\n\r\n/////////////////////////////////////////// ERC165 //////////////////////////////////////////////\r\n\r\n    /*\r\n        bytes4(keccak256('supportsInterface(bytes4)'));\r\n    */\r\n    bytes4 constant private INTERFACE_SIGNATURE_ERC165 = 0x01ffc9a7;\r\n\r\n    /*\r\n        bytes4(keccak256(\"safeTransferFrom(address,address,uint256,uint256,bytes)\")) ^\r\n        bytes4(keccak256(\"safeBatchTransferFrom(address,address,uint256[],uint256[],bytes)\")) ^\r\n        bytes4(keccak256(\"balanceOf(address,uint256)\")) ^\r\n        bytes4(keccak256(\"balanceOfBatch(address[],uint256[])\")) ^\r\n        bytes4(keccak256(\"setApprovalForAll(address,bool)\")) ^\r\n        bytes4(keccak256(\"isApprovedForAll(address,address)\"));\r\n    */\r\n    bytes4 constant private INTERFACE_SIGNATURE_ERC1155 = 0xd9b67a26;\r\n\r\n    function supportsInterface(bytes4 _interfaceId)\r\n    public\r\n    view\r\n    returns (bool) {\r\n         if (_interfaceId == INTERFACE_SIGNATURE_ERC165 ||\r\n             _interfaceId == INTERFACE_SIGNATURE_ERC1155) {\r\n            return true;\r\n         }\r\n\r\n         return false;\r\n    }\r\n\r\n/////////////////////////////////////////// ERC1155 //////////////////////////////////////////////\r\n\r\n    /**\r\n        @notice Transfers `_value` amount of an `_id` from the `_from` address to the `_to` address specified (with safety call).\r\n        @dev Caller must be approved to manage the tokens being transferred out of the `_from` account (see \"Approval\" section of the standard).\r\n        MUST revert if `_to` is the zero address.\r\n        MUST revert if balance of holder for token `_id` is lower than the `_value` sent.\r\n        MUST revert on any other error.\r\n        MUST emit the `TransferSingle` event to reflect the balance change (see \"Safe Transfer Rules\" section of the standard).\r\n        After the above conditions are met, this function MUST check if `_to` is a smart contract (e.g. code size > 0). If so, it MUST call `onERC1155Received` on `_to` and act appropriately (see \"Safe Transfer Rules\" section of the standard).\r\n        @param _from    Source address\r\n        @param _to      Target address\r\n        @param _id      ID of the token type\r\n        @param _value   Transfer amount\r\n        @param _data    Additional data with no specified format, MUST be sent unaltered in call to `onERC1155Received` on `_to`\r\n    */\r\n    function safeTransferFrom(address _from, address _to, uint256 _id, uint256 _value, bytes calldata _data) external {\r\n\r\n        require(_to != address(0x0), \"_to must be non-zero.\");\r\n        require(_from == msg.sender || operatorApproval[_from][msg.sender] == true, \"Need operator approval for 3rd party transfers.\");\r\n\r\n        // SafeMath will throw with insuficient funds _from\r\n        // or if _id is not valid (balance will be 0)\r\n        balances[_id][_from] = balances[_id][_from].sub(_value);\r\n        balances[_id][_to]   = _value.add(balances[_id][_to]);\r\n\r\n        // MUST emit event\r\n        emit TransferSingle(msg.sender, _from, _to, _id, _value);\r\n\r\n        // Now that the balance is updated and the event was emitted,\r\n        // call onERC1155Received if the destination is a contract.\r\n        if (_to.isContract()) {\r\n            _doSafeTransferAcceptanceCheck(msg.sender, _from, _to, _id, _value, _data);\r\n        }\r\n    }\r\n\r\n    /**\r\n        @notice Transfers `_values` amount(s) of `_ids` from the `_from` address to the `_to` address specified (with safety call).\r\n        @dev Caller must be approved to manage the tokens being transferred out of the `_from` account (see \"Approval\" section of the standard).\r\n        MUST revert if `_to` is the zero address.\r\n        MUST revert if length of `_ids` is not the same as length of `_values`.\r\n        MUST revert if any of the balance(s) of the holder(s) for token(s) in `_ids` is lower than the respective amount(s) in `_values` sent to the recipient.\r\n        MUST revert on any other error.\r\n        MUST emit `TransferSingle` or `TransferBatch` event(s) such that all the balance changes are reflected (see \"Safe Transfer Rules\" section of the standard).\r\n        Balance changes and events MUST follow the ordering of the arrays (_ids[0]/_values[0] before _ids[1]/_values[1], etc).\r\n        After the above conditions for the transfer(s) in the batch are met, this function MUST check if `_to` is a smart contract (e.g. code size > 0). If so, it MUST call the relevant `ERC1155TokenReceiver` hook(s) on `_to` and act appropriately (see \"Safe Transfer Rules\" section of the standard).\r\n        @param _from    Source address\r\n        @param _to      Target address\r\n        @param _ids     IDs of each token type (order and length must match _values array)\r\n        @param _values  Transfer amounts per token type (order and length must match _ids array)\r\n        @param _data    Additional data with no specified format, MUST be sent unaltered in call to the `ERC1155TokenReceiver` hook(s) on `_to`\r\n    */\r\n    function safeBatchTransferFrom(address _from, address _to, uint256[] calldata _ids, uint256[] calldata _values, bytes calldata _data) external {\r\n\r\n        // MUST Throw on errors\r\n        require(_to != address(0x0), \"destination address must be non-zero.\");\r\n        require(_ids.length == _values.length, \"_ids and _values array lenght must match.\");\r\n        require(_from == msg.sender || operatorApproval[_from][msg.sender] == true, \"Need operator approval for 3rd party transfers.\");\r\n\r\n        for (uint256 i = 0; i < _ids.length; ++i) {\r\n            uint256 id = _ids[i];\r\n            uint256 value = _values[i];\r\n\r\n            // SafeMath will throw with insuficient funds _from\r\n            // or if _id is not valid (balance will be 0)\r\n            balances[id][_from] = balances[id][_from].sub(value);\r\n            balances[id][_to]   = value.add(balances[id][_to]);\r\n        }\r\n\r\n        // Note: instead of the below batch versions of event and acceptance check you MAY have emitted a TransferSingle\r\n        // event and a subsequent call to _doSafeTransferAcceptanceCheck in above loop for each balance change instead.\r\n        // Or emitted a TransferSingle event for each in the loop and then the single _doSafeBatchTransferAcceptanceCheck below.\r\n        // However it is implemented the balance changes and events MUST match when a check (i.e. calling an external contract) is done.\r\n\r\n        // MUST emit event\r\n        emit TransferBatch(msg.sender, _from, _to, _ids, _values);\r\n\r\n        // Now that the balances are updated and the events are emitted,\r\n        // call onERC1155BatchReceived if the destination is a contract.\r\n        if (_to.isContract()) {\r\n            _doSafeBatchTransferAcceptanceCheck(msg.sender, _from, _to, _ids, _values, _data);\r\n        }\r\n    }\r\n\r\n    /**\r\n        @notice Get the balance of an account's Tokens.\r\n        @param _owner  The address of the token holder\r\n        @param _id     ID of the Token\r\n        @return        The _owner's balance of the Token type requested\r\n     */\r\n    function balanceOf(address _owner, uint256 _id) external view returns (uint256) {\r\n        // The balance of any account can be calculated from the Transfer events history.\r\n        // However, since we need to keep the balances to validate transfer request,\r\n        // there is no extra cost to also privide a querry function.\r\n        return balances[_id][_owner];\r\n    }\r\n\r\n\r\n    /**\r\n        @notice Get the balance of multiple account/token pairs\r\n        @param _owners The addresses of the token holders\r\n        @param _ids    ID of the Tokens\r\n        @return        The _owner's balance of the Token types requested (i.e. balance for each (owner, id) pair)\r\n     */\r\n    function balanceOfBatch(address[] calldata _owners, uint256[] calldata _ids) external view returns (uint256[] memory) {\r\n\r\n        require(_owners.length == _ids.length);\r\n\r\n        uint256[] memory balances_ = new uint256[](_owners.length);\r\n\r\n        for (uint256 i = 0; i < _owners.length; ++i) {\r\n            balances_[i] = balances[_ids[i]][_owners[i]];\r\n        }\r\n\r\n        return balances_;\r\n    }\r\n\r\n    /**\r\n        @notice Enable or disable approval for a third party (\"operator\") to manage all of the caller's tokens.\r\n        @dev MUST emit the ApprovalForAll event on success.\r\n        @param _operator  Address to add to the set of authorized operators\r\n        @param _approved  True if the operator is approved, false to revoke approval\r\n    */\r\n    function setApprovalForAll(address _operator, bool _approved) external {\r\n        operatorApproval[msg.sender][_operator] = _approved;\r\n        emit ApprovalForAll(msg.sender, _operator, _approved);\r\n    }\r\n\r\n    /**\r\n        @notice Queries the approval status of an operator for a given owner.\r\n        @param _owner     The owner of the Tokens\r\n        @param _operator  Address of authorized operator\r\n        @return           True if the operator is approved, false if not\r\n    */\r\n    function isApprovedForAll(address _owner, address _operator) external view returns (bool) {\r\n        return operatorApproval[_owner][_operator];\r\n    }\r\n\r\n/////////////////////////////////////////// Internal //////////////////////////////////////////////\r\n\r\n    function _doSafeTransferAcceptanceCheck(address _operator, address _from, address _to, uint256 _id, uint256 _value, bytes memory _data) internal {\r\n\r\n        // If this was a hybrid standards solution you would have to check ERC165(_to).supportsInterface(0x4e2312e0) here but as this is a pure implementation of an ERC-1155 token set as recommended by\r\n        // the standard, it is not necessary. The below should revert in all failure cases i.e. _to isn't a receiver, or it is and either returns an unknown value or it reverts in the call to indicate non-acceptance.\r\n\r\n\r\n        // Note: if the below reverts in the onERC1155Received function of the _to address you will have an undefined revert reason returned rather than the one in the require test.\r\n        // If you want predictable revert reasons consider using low level _to.call() style instead so the revert does not bubble up and you can revert yourself on the ERC1155_ACCEPTED test.\r\n        require(ERC1155TokenReceiver(_to).onERC1155Received(_operator, _from, _id, _value, _data) == ERC1155_ACCEPTED, \"contract returned an unknown value from onERC1155Received\");\r\n    }\r\n\r\n    function _doSafeBatchTransferAcceptanceCheck(address _operator, address _from, address _to, uint256[] memory _ids, uint256[] memory _values, bytes memory _data) internal {\r\n\r\n        // If this was a hybrid standards solution you would have to check ERC165(_to).supportsInterface(0x4e2312e0) here but as this is a pure implementation of an ERC-1155 token set as recommended by\r\n        // the standard, it is not necessary. The below should revert in all failure cases i.e. _to isn't a receiver, or it is and either returns an unknown value or it reverts in the call to indicate non-acceptance.\r\n\r\n        // Note: if the below reverts in the onERC1155BatchReceived function of the _to address you will have an undefined revert reason returned rather than the one in the require test.\r\n        // If you want predictable revert reasons consider using low level _to.call() style instead so the revert does not bubble up and you can revert yourself on the ERC1155_BATCH_ACCEPTED test.\r\n        require(ERC1155TokenReceiver(_to).onERC1155BatchReceived(_operator, _from, _ids, _values, _data) == ERC1155_BATCH_ACCEPTED, \"contract returned an unknown value from onERC1155BatchReceived\");\r\n    }\r\n}\r\n",
  "sourcePath": "C:\\Users\\tredg\\Providentia\\contracts\\ERC1155.sol",
  "compiler": {
    "name": "solc",
    "version": "0.5.0+commit.1d4f565a.Emscripten.clang"
  },
  "schemaVersion": "3.0.11",
  "updatedAt": "2019-07-10T19:03:08.429Z",
  "devdoc": {
    "methods": {
      "balanceOf(address,uint256)": {
        "params": {
          "_id": "ID of the Token\r",
          "_owner": "The address of the token holder\r"
        },
        "return": "The _owner's balance of the Token type requested\r"
      },
      "balanceOfBatch(address[],uint256[])": {
        "params": {
          "_ids": "ID of the Tokens\r",
          "_owners": "The addresses of the token holders\r"
        },
        "return": "The _owner's balance of the Token types requested (i.e. balance for each (owner, id) pair)\r"
      },
      "isApprovedForAll(address,address)": {
        "params": {
          "_operator": "Address of authorized operator\r",
          "_owner": "The owner of the Tokens\r"
        },
        "return": "True if the operator is approved, false if not\r"
      },
      "safeBatchTransferFrom(address,address,uint256[],uint256[],bytes)": {
        "details": "Caller must be approved to manage the tokens being transferred out of the `_from` account (see \"Approval\" section of the standard).\r MUST revert if `_to` is the zero address.\r MUST revert if length of `_ids` is not the same as length of `_values`.\r MUST revert if any of the balance(s) of the holder(s) for token(s) in `_ids` is lower than the respective amount(s) in `_values` sent to the recipient.\r MUST revert on any other error.\r MUST emit `TransferSingle` or `TransferBatch` event(s) such that all the balance changes are reflected (see \"Safe Transfer Rules\" section of the standard).\r Balance changes and events MUST follow the ordering of the arrays (_ids[0]/_values[0] before _ids[1]/_values[1], etc).\r After the above conditions for the transfer(s) in the batch are met, this function MUST check if `_to` is a smart contract (e.g. code size > 0). If so, it MUST call the relevant `ERC1155TokenReceiver` hook(s) on `_to` and act appropriately (see \"Safe Transfer Rules\" section of the standard).\r",
        "params": {
          "_data": "Additional data with no specified format, MUST be sent unaltered in call to the `ERC1155TokenReceiver` hook(s) on `_to`\r",
          "_from": "Source address\r",
          "_ids": "IDs of each token type (order and length must match _values array)\r",
          "_to": "Target address\r",
          "_values": "Transfer amounts per token type (order and length must match _ids array)\r"
        }
      },
      "safeTransferFrom(address,address,uint256,uint256,bytes)": {
        "details": "Caller must be approved to manage the tokens being transferred out of the `_from` account (see \"Approval\" section of the standard).\r MUST revert if `_to` is the zero address.\r MUST revert if balance of holder for token `_id` is lower than the `_value` sent.\r MUST revert on any other error.\r MUST emit the `TransferSingle` event to reflect the balance change (see \"Safe Transfer Rules\" section of the standard).\r After the above conditions are met, this function MUST check if `_to` is a smart contract (e.g. code size > 0). If so, it MUST call `onERC1155Received` on `_to` and act appropriately (see \"Safe Transfer Rules\" section of the standard).\r",
        "params": {
          "_data": "Additional data with no specified format, MUST be sent unaltered in call to `onERC1155Received` on `_to`\r",
          "_from": "Source address\r",
          "_id": "ID of the token type\r",
          "_to": "Target address\r",
          "_value": "Transfer amount\r"
        }
      },
      "setApprovalForAll(address,bool)": {
        "details": "MUST emit the ApprovalForAll event on success.\r",
        "params": {
          "_approved": "True if the operator is approved, false to revoke approval\r",
          "_operator": "Address to add to the set of authorized operators\r"
        }
      }
    }
  },
  "userdoc": {
    "methods": {
      "balanceOf(address,uint256)": {
        "notice": "Get the balance of an account's Tokens.\r"
      },
      "balanceOfBatch(address[],uint256[])": {
        "notice": "Get the balance of multiple account/token pairs\r"
      },
      "isApprovedForAll(address,address)": {
        "notice": "Queries the approval status of an operator for a given owner.\r"
      },
      "safeBatchTransferFrom(address,address,uint256[],uint256[],bytes)": {
        "notice": "Transfers `_values` amount(s) of `_ids` from the `_from` address to the `_to` address specified (with safety call).\r"
      },
      "safeTransferFrom(address,address,uint256,uint256,bytes)": {
        "notice": "Transfers `_value` amount of an `_id` from the `_from` address to the `_to` address specified (with safety call).\r"
      },
      "setApprovalForAll(address,bool)": {
        "notice": "Enable or disable approval for a third party (\"operator\") to manage all of the caller's tokens.\r"
      }
    }
  }
}