{
  "contractName": "ERC1155MixedFungibleMintable",
  "abi": [
    {
      "constant": true,
      "inputs": [
        {
          "name": "_owner",
          "type": "address"
        },
        {
          "name": "_id",
          "type": "uint256"
        }
      ],
      "name": "balanceOf",
      "outputs": [
        {
          "name": "",
          "type": "uint256"
        }
      ],
      "payable": false,
      "stateMutability": "view",
      "type": "function"
    },
    {
      "constant": true,
      "inputs": [
        {
          "name": "_interfaceId",
          "type": "bytes4"
        }
      ],
      "name": "supportsInterface",
      "outputs": [
        {
          "name": "",
          "type": "bool"
        }
      ],
      "payable": false,
      "stateMutability": "view",
      "type": "function"
    },
    {
      "constant": true,
      "inputs": [
        {
          "name": "",
          "type": "uint256"
        }
      ],
      "name": "maxIndex",
      "outputs": [
        {
          "name": "",
          "type": "uint256"
        }
      ],
      "payable": false,
      "stateMutability": "view",
      "type": "function"
    },
    {
      "constant": false,
      "inputs": [
        {
          "name": "_from",
          "type": "address"
        },
        {
          "name": "_to",
          "type": "address"
        },
        {
          "name": "_ids",
          "type": "uint256[]"
        },
        {
          "name": "_values",
          "type": "uint256[]"
        },
        {
          "name": "_data",
          "type": "bytes"
        }
      ],
      "name": "safeBatchTransferFrom",
      "outputs": [],
      "payable": false,
      "stateMutability": "nonpayable",
      "type": "function"
    },
    {
      "constant": true,
      "inputs": [
        {
          "name": "_owners",
          "type": "address[]"
        },
        {
          "name": "_ids",
          "type": "uint256[]"
        }
      ],
      "name": "balanceOfBatch",
      "outputs": [
        {
          "name": "",
          "type": "uint256[]"
        }
      ],
      "payable": false,
      "stateMutability": "view",
      "type": "function"
    },
    {
      "constant": true,
      "inputs": [
        {
          "name": "_id",
          "type": "uint256"
        }
      ],
      "name": "isNonFungibleItem",
      "outputs": [
        {
          "name": "",
          "type": "bool"
        }
      ],
      "payable": false,
      "stateMutability": "pure",
      "type": "function"
    },
    {
      "constant": true,
      "inputs": [
        {
          "name": "_id",
          "type": "uint256"
        }
      ],
      "name": "ownerOf",
      "outputs": [
        {
          "name": "",
          "type": "address"
        }
      ],
      "payable": false,
      "stateMutability": "view",
      "type": "function"
    },
    {
      "constant": true,
      "inputs": [
        {
          "name": "_id",
          "type": "uint256"
        }
      ],
      "name": "getNonFungibleBaseType",
      "outputs": [
        {
          "name": "",
          "type": "uint256"
        }
      ],
      "payable": false,
      "stateMutability": "pure",
      "type": "function"
    },
    {
      "constant": true,
      "inputs": [
        {
          "name": "_id",
          "type": "uint256"
        }
      ],
      "name": "isNonFungibleBaseType",
      "outputs": [
        {
          "name": "",
          "type": "bool"
        }
      ],
      "payable": false,
      "stateMutability": "pure",
      "type": "function"
    },
    {
      "constant": true,
      "inputs": [
        {
          "name": "_id",
          "type": "uint256"
        }
      ],
      "name": "getNonFungibleIndex",
      "outputs": [
        {
          "name": "",
          "type": "uint256"
        }
      ],
      "payable": false,
      "stateMutability": "pure",
      "type": "function"
    },
    {
      "constant": false,
      "inputs": [
        {
          "name": "_operator",
          "type": "address"
        },
        {
          "name": "_approved",
          "type": "bool"
        }
      ],
      "name": "setApprovalForAll",
      "outputs": [],
      "payable": false,
      "stateMutability": "nonpayable",
      "type": "function"
    },
    {
      "constant": true,
      "inputs": [
        {
          "name": "_id",
          "type": "uint256"
        }
      ],
      "name": "isFungible",
      "outputs": [
        {
          "name": "",
          "type": "bool"
        }
      ],
      "payable": false,
      "stateMutability": "pure",
      "type": "function"
    },
    {
      "constant": true,
      "inputs": [
        {
          "name": "",
          "type": "uint256"
        }
      ],
      "name": "creators",
      "outputs": [
        {
          "name": "",
          "type": "address"
        }
      ],
      "payable": false,
      "stateMutability": "view",
      "type": "function"
    },
    {
      "constant": true,
      "inputs": [
        {
          "name": "_id",
          "type": "uint256"
        }
      ],
      "name": "isNonFungible",
      "outputs": [
        {
          "name": "",
          "type": "bool"
        }
      ],
      "payable": false,
      "stateMutability": "pure",
      "type": "function"
    },
    {
      "constant": true,
      "inputs": [
        {
          "name": "_owner",
          "type": "address"
        },
        {
          "name": "_operator",
          "type": "address"
        }
      ],
      "name": "isApprovedForAll",
      "outputs": [
        {
          "name": "",
          "type": "bool"
        }
      ],
      "payable": false,
      "stateMutability": "view",
      "type": "function"
    },
    {
      "constant": false,
      "inputs": [
        {
          "name": "_from",
          "type": "address"
        },
        {
          "name": "_to",
          "type": "address"
        },
        {
          "name": "_id",
          "type": "uint256"
        },
        {
          "name": "_value",
          "type": "uint256"
        },
        {
          "name": "_data",
          "type": "bytes"
        }
      ],
      "name": "safeTransferFrom",
      "outputs": [],
      "payable": false,
      "stateMutability": "nonpayable",
      "type": "function"
    },
    {
      "anonymous": false,
      "inputs": [
        {
          "indexed": true,
          "name": "_operator",
          "type": "address"
        },
        {
          "indexed": true,
          "name": "_from",
          "type": "address"
        },
        {
          "indexed": true,
          "name": "_to",
          "type": "address"
        },
        {
          "indexed": false,
          "name": "_id",
          "type": "uint256"
        },
        {
          "indexed": false,
          "name": "_value",
          "type": "uint256"
        }
      ],
      "name": "TransferSingle",
      "type": "event"
    },
    {
      "anonymous": false,
      "inputs": [
        {
          "indexed": true,
          "name": "_operator",
          "type": "address"
        },
        {
          "indexed": true,
          "name": "_from",
          "type": "address"
        },
        {
          "indexed": true,
          "name": "_to",
          "type": "address"
        },
        {
          "indexed": false,
          "name": "_ids",
          "type": "uint256[]"
        },
        {
          "indexed": false,
          "name": "_values",
          "type": "uint256[]"
        }
      ],
      "name": "TransferBatch",
      "type": "event"
    },
    {
      "anonymous": false,
      "inputs": [
        {
          "indexed": true,
          "name": "_owner",
          "type": "address"
        },
        {
          "indexed": true,
          "name": "_operator",
          "type": "address"
        },
        {
          "indexed": false,
          "name": "_approved",
          "type": "bool"
        }
      ],
      "name": "ApprovalForAll",
      "type": "event"
    },
    {
      "anonymous": false,
      "inputs": [
        {
          "indexed": false,
          "name": "_value",
          "type": "string"
        },
        {
          "indexed": true,
          "name": "_id",
          "type": "uint256"
        }
      ],
      "name": "URI",
      "type": "event"
    },
    {
      "constant": false,
      "inputs": [
        {
          "name": "_uri",
          "type": "string"
        },
        {
          "name": "_isNF",
          "type": "bool"
        }
      ],
      "name": "create",
      "outputs": [
        {
          "name": "_type",
          "type": "uint256"
        }
      ],
      "payable": false,
      "stateMutability": "nonpayable",
      "type": "function"
    },
    {
      "constant": false,
      "inputs": [
        {
          "name": "_type",
          "type": "uint256"
        },
        {
          "name": "_to",
          "type": "address[]"
        }
      ],
      "name": "mintNonFungible",
      "outputs": [],
      "payable": false,
      "stateMutability": "nonpayable",
      "type": "function"
    },
    {
      "constant": false,
      "inputs": [
        {
          "name": "_id",
          "type": "uint256"
        },
        {
          "name": "_to",
          "type": "address[]"
        },
        {
          "name": "_quantities",
          "type": "uint256[]"
        }
      ],
      "name": "mintFungible",
      "outputs": [],
      "payable": false,
      "stateMutability": "nonpayable",
      "type": "function"
    }
  ],
  "bytecode": "0x608060405234801561001057600080fd5b50611bd6806100206000396000f3fe6080604052600436106100ec5763ffffffff60e060020a600035041662fdd58e81146100f157806301ffc9a71461013c57806308d7d469146101845780632eb2c2d6146101ae5780634e1273f4146102ea5780635e81b958146104095780636352211e146104335780636f969c2d146104795780637269a327146104a357806378b27221146104cd5780639cca1c64146105a3578063a22cb465146105cd578063adebf6f214610608578063cc10e40114610632578063cd53d08e146106b1578063e44591f0146106db578063e985e9c514610705578063f242432a14610740578063f9419088146107e2575b600080fd5b3480156100fd57600080fd5b5061012a6004803603604081101561011457600080fd5b50600160a060020a038135169060200135610866565b60408051918252519081900360200190f35b34801561014857600080fd5b506101706004803603602081101561015f57600080fd5b5035600160e060020a0319166108d4565b604080519115158252519081900360200190f35b34801561019057600080fd5b5061012a600480360360208110156101a757600080fd5b503561094d565b3480156101ba57600080fd5b506102e8600480360360a08110156101d157600080fd5b600160a060020a03823581169260208101359091169181019060608101604082013564010000000081111561020557600080fd5b82018360208201111561021757600080fd5b8035906020019184602083028401116401000000008311171561023957600080fd5b91939092909160208101903564010000000081111561025757600080fd5b82018360208201111561026957600080fd5b8035906020019184602083028401116401000000008311171561028b57600080fd5b9193909290916020810190356401000000008111156102a957600080fd5b8201836020820111156102bb57600080fd5b803590602001918460018302840111640100000000831117156102dd57600080fd5b50909250905061095f565b005b3480156102f657600080fd5b506103b96004803603604081101561030d57600080fd5b81019060208101813564010000000081111561032857600080fd5b82018360208201111561033a57600080fd5b8035906020019184602083028401116401000000008311171561035c57600080fd5b91939092909160208101903564010000000081111561037a57600080fd5b82018360208201111561038c57600080fd5b803590602001918460208302840111640100000000831117156103ae57600080fd5b509092509050610dcd565b60408051602080825283518183015283519192839290830191858101910280838360005b838110156103f55781810151838201526020016103dd565b505050509050019250505060405180910390f35b34801561041557600080fd5b506101706004803603602081101561042c57600080fd5b5035610f18565b34801561043f57600080fd5b5061045d6004803603602081101561045657600080fd5b5035610f42565b60408051600160a060020a039092168252519081900360200190f35b34801561048557600080fd5b5061012a6004803603602081101561049c57600080fd5b5035610f5d565b3480156104af57600080fd5b50610170600480360360208110156104c657600080fd5b5035610f73565b3480156104d957600080fd5b506102e8600480360360608110156104f057600080fd5b8135919081019060408101602082013564010000000081111561051257600080fd5b82018360208201111561052457600080fd5b8035906020019184602083028401116401000000008311171561054657600080fd5b91939092909160208101903564010000000081111561056457600080fd5b82018360208201111561057657600080fd5b8035906020019184602083028401116401000000008311171561059857600080fd5b509092509050610f9c565b3480156105af57600080fd5b5061012a600480360360208110156105c657600080fd5b50356110e0565b3480156105d957600080fd5b506102e8600480360360408110156105f057600080fd5b50600160a060020a03813516906020013515156110f5565b34801561061457600080fd5b506101706004803603602081101561062b57600080fd5b5035611163565b34801561063e57600080fd5b5061012a6004803603604081101561065557600080fd5b81019060208101813564010000000081111561067057600080fd5b82018360208201111561068257600080fd5b803590602001918460018302840111640100000000831117156106a457600080fd5b919350915035151561116d565b3480156106bd57600080fd5b5061045d600480360360208110156106d457600080fd5b5035611262565b3480156106e757600080fd5b50610170600480360360208110156106fe57600080fd5b503561127d565b34801561071157600080fd5b506101706004803603604081101561072857600080fd5b50600160a060020a0381358116916020013516611289565b34801561074c57600080fd5b506102e8600480360360a081101561076357600080fd5b600160a060020a03823581169260208101359091169160408201359160608101359181019060a0810160808201356401000000008111156107a357600080fd5b8201836020820111156107b557600080fd5b803590602001918460018302840111640100000000831117156107d757600080fd5b5090925090506112b7565b3480156107ee57600080fd5b506102e86004803603604081101561080557600080fd5b8135919081019060408101602082013564010000000081111561082757600080fd5b82018360208201111561083957600080fd5b8035906020019184602083028401116401000000008311171561085b57600080fd5b509092509050611574565b600061087182610f18565b156108ab57600082815260026020526040902054600160a060020a0384811691161461089e5760006108a1565b60015b60ff1690506108ce565b50600081815260208181526040808320600160a060020a03861684529091529020545b92915050565b6000600160e060020a031982167f01ffc9a70000000000000000000000000000000000000000000000000000000014806109375750600160e060020a031982167fd9b67a2600000000000000000000000000000000000000000000000000000000145b1561094457506001610948565b5060005b919050565b60056020526000908152604090205481565b600160a060020a03871615156109bf576040805160e560020a62461bcd02815260206004820152601b60248201527f63616e6e6f742073656e6420746f207a65726f20616464726573730000000000604482015290519081900360640190fd5b848314610a16576040805160e560020a62461bcd02815260206004820152601760248201527f4172726179206c656e677468206d757374206d61746368000000000000000000604482015290519081900360640190fd5b600160a060020a038816331480610a545750600160a060020a03881660009081526001602081815260408084203385529091529091205460ff161515145b1515610ad0576040805160e560020a62461bcd02815260206004820152602f60248201527f4e656564206f70657261746f7220617070726f76616c20666f7220337264207060448201527f61727479207472616e73666572732e0000000000000000000000000000000000606482015290519081900360840190fd5b60005b85811015610c56576000878783818110610ae957fe5b90506020020135905060008686848181101515610b0257fe5b905060200201359050610b148261127d565b15610b7857600082815260026020526040902054600160a060020a038c8116911614610b3f57600080fd5b6000828152600260205260409020805473ffffffffffffffffffffffffffffffffffffffff1916600160a060020a038c16179055610c4c565b600082815260208181526040808320600160a060020a038f168452909152902054610ba9908263ffffffff6116b516565b60008084815260200190815260200160002060008d600160a060020a0316600160a060020a0316815260200190815260200160002081905550610c2a60008084815260200190815260200160002060008c600160a060020a0316600160a060020a03168152602001908152602001600020548261171590919063ffffffff16565b600083815260208181526040808320600160a060020a038f1684529091529020555b5050600101610ad3565b5086600160a060020a031688600160a060020a031633600160a060020a03167f4a39dc06d4c0dbc64b70af90fd698a233a518aa5d07e595d983b8c0526c8f7fb898989896040518080602001806020018381038352878782818152602001925060200280828437600083820152601f01601f19169091018481038352858152602090810191508690860280828437600083820152604051601f909101601f19169092018290039850909650505050505050a4610d1a87600160a060020a0316611772565b15610dc357610dc333898989898080602002602001604051908101604052809392919081815260200183836020028082843760009201919091525050604080516020808d0282810182019093528c82529093508c92508b91829185019084908082843760009201919091525050604080516020601f8c018190048102820181019092528a815292508a915089908190840183828082843760009201919091525061177a92505050565b5050505050505050565b6060838214610ddb57600080fd5b604080518581526020808702820101909152606090858015610e07578160200160208202803883390190505b50905060005b85811015610f0e576000858583818110610e2357fe5b905060200201359050610e3581610f18565b15610ea057878783818110610e4657fe5b60008481526002602090815260409091205491029290920135600160a060020a039081169216919091149050610e7d576000610e80565b60015b60ff168383815181101515610e9157fe5b60209081029091010152610f05565b600081815260208190526040812090898985818110610ebb57fe5b90506020020135600160a060020a0316600160a060020a0316600160a060020a03168152602001908152602001600020548383815181101515610efa57fe5b602090810290910101525b50600101610e0d565b5095945050505050565b600060ff60020a8083161480156108ce5750506fffffffffffffffffffffffffffffffff16151590565b600090815260026020526040902054600160a060020a031690565b6fffffffffffffffffffffffffffffffff191690565b600060ff60020a8083161480156108ce5750506fffffffffffffffffffffffffffffffff161590565b6000858152600460205260409020548590600160a060020a03163314610fc157600080fd5b610fca86611163565b1515610fd557600080fd5b60005b848110156110d7576000868683818110610fee57fe5b90506020020135600160a060020a031690506000858584818110151561101057fe5b60008c815260208181526040808320600160a060020a038916845282529091205491029290920135925061104c9183915063ffffffff61171516565b60008a815260208181526040808320600160a060020a0387168085529083528184209490945580518d815291820185905280513392600080516020611b8b83398151915292908290030190a46110aa82600160a060020a0316611772565b156110cd576110cd3333848c8560206040519081016040528060008152506119c0565b5050600101610fd8565b50505050505050565b6fffffffffffffffffffffffffffffffff1690565b336000818152600160209081526040808320600160a060020a03871680855290835292819020805460ff1916861515908117909155815190815290519293927f17307eab39ab6107e8899845ad3d59bd9653f200f220920489ca2b5937696c31929181900390910190a35050565b60ff60020a161590565b60038054600101908190557001000000000000000000000000000000000281156111985760ff60020a175b6000818152600460209081526040808320805473ffffffffffffffffffffffffffffffffffffffff1916339081179091558151858152928301849052815184939192600080516020611b8b833981519152928290030190a4600083111561125b57807f6bb7ff708619ba0610cba295a58592e0451dee2622938c8755667688daf3529b858560405180806020018281038252848482818152602001925080828437600083820152604051601f909101601f19169092018290039550909350505050a25b9392505050565b600460205260009081526040902054600160a060020a031681565b60ff60020a9081161490565b600160a060020a03918216600090815260016020908152604080832093909416825291909152205460ff1690565b600160a060020a0385161515611317576040805160e560020a62461bcd02815260206004820152601b60248201527f63616e6e6f742073656e6420746f207a65726f20616464726573730000000000604482015290519081900360640190fd5b600160a060020a0386163314806113555750600160a060020a03861660009081526001602081815260408084203385529091529091205460ff161515145b15156113d1576040805160e560020a62461bcd02815260206004820152602f60248201527f4e656564206f70657261746f7220617070726f76616c20666f7220337264207060448201527f61727479207472616e73666572732e0000000000000000000000000000000000606482015290519081900360840190fd5b6113da8461127d565b1561143e57600084815260026020526040902054600160a060020a0387811691161461140557600080fd5b6000848152600260205260409020805473ffffffffffffffffffffffffffffffffffffffff1916600160a060020a0387161790556114c6565b600084815260208181526040808320600160a060020a038a16845290915290205461146f908463ffffffff6116b516565b600085815260208181526040808320600160a060020a038b811685529252808320939093558716815220546114a49084611715565b600085815260208181526040808320600160a060020a038a1684529091529020555b84600160a060020a031686600160a060020a031633600160a060020a0316600080516020611b8b8339815191528787604051808381526020018281526020019250505060405180910390a461152385600160a060020a0316611772565b1561156c5761156c338787878787878080601f0160208091040260200160405190810160405280939291908181526020018383808284376000920191909152506119c092505050565b505050505050565b6000838152600460205260409020548390600160a060020a0316331461159957600080fd5b6115a28461127d565b15156115ad57600080fd5b60008481526005602052604090205460018101906115d290849063ffffffff61171516565b6000868152600560205260408120919091555b8381101561156c5760008585838181106115fb57fe5b8486018a17600081815260026020908152604080832080549583029790970135600160a060020a031673ffffffffffffffffffffffffffffffffffffffff19909516851790965585518381526001918101919091528551939650919486945090923392600080516020611b8b83398151915292908290030190a461168782600160a060020a0316611772565b156116ab576116ab33338484600160206040519081016040528060008152506119c0565b50506001016115e5565b60008282111561170f576040805160e560020a62461bcd02815260206004820152601e60248201527f536166654d6174683a207375627472616374696f6e206f766572666c6f770000604482015290519081900360640190fd5b50900390565b60008282018381101561125b576040805160e560020a62461bcd02815260206004820152601b60248201527f536166654d6174683a206164646974696f6e206f766572666c6f770000000000604482015290519081900360640190fd5b6000903b1190565b63bc197c8160e060020a027bffffffffffffffffffffffffffffffffffffffffffffffffffffffff191684600160a060020a031663bc197c8188888787876040518663ffffffff1660e060020a0281526004018086600160a060020a0316600160a060020a0316815260200185600160a060020a0316600160a060020a03168152602001806020018060200180602001848103845287818151815260200191508051906020019060200280838360005b8381101561184257818101518382015260200161182a565b50505050905001848103835286818151815260200191508051906020019060200280838360005b83811015611881578181015183820152602001611869565b50505050905001848103825285818151815260200191508051906020019080838360005b838110156118bd5781810151838201526020016118a5565b50505050905090810190601f1680156118ea5780820380516001836020036101000a031916815260200191505b5098505050505050505050602060405180830381600087803b15801561190f57600080fd5b505af1158015611923573d6000803e3d6000fd5b505050506040513d602081101561193957600080fd5b5051600160e060020a0319161461156c576040805160e560020a62461bcd02815260206004820152603e60248201527f636f6e74726163742072657475726e656420616e20756e6b6e6f776e2076616c60448201527f75652066726f6d206f6e45524331313535426174636852656365697665640000606482015290519081900360840190fd5b63f23a6e6160e060020a027bffffffffffffffffffffffffffffffffffffffffffffffffffffffff191684600160a060020a031663f23a6e6188888787876040518663ffffffff1660e060020a0281526004018086600160a060020a0316600160a060020a0316815260200185600160a060020a0316600160a060020a0316815260200184815260200183815260200180602001828103825283818151815260200191508051906020019080838360005b83811015611a89578181015183820152602001611a71565b50505050905090810190601f168015611ab65780820380516001836020036101000a031916815260200191505b509650505050505050602060405180830381600087803b158015611ad957600080fd5b505af1158015611aed573d6000803e3d6000fd5b505050506040513d6020811015611b0357600080fd5b5051600160e060020a0319161461156c576040805160e560020a62461bcd02815260206004820152603960248201527f636f6e74726163742072657475726e656420616e20756e6b6e6f776e2076616c60448201527f75652066726f6d206f6e45524331313535526563656976656400000000000000606482015290519081900360840190fdfec3d58168c5ae7397731d063d5bbf3d657854427343f4c083240f7aacaa2d0f62a165627a7a72305820896d7c2889f384d422291bf888ca7f78969e3d3567157ce107d2f8adc1fd37510029",
  "source": "pragma solidity ^0.5.0;\r\n\r\nimport \"./ERC1155MixedFungible.sol\";\r\n\r\n/**\r\n    @dev Mintable form of ERC1155\r\n    Shows how easy it is to mint new items\r\n*/\r\ncontract ERC1155MixedFungibleMintable is ERC1155MixedFungible {\r\n\r\n    uint256 nonce;\r\n    mapping (uint256 => address) public creators;\r\n    mapping (uint256 => uint256) public maxIndex;\r\n\r\n    modifier creatorOnly(uint256 _id) {\r\n        require(creators[_id] == msg.sender);\r\n        _;\r\n    }\r\n\r\n    // This function only creates the type.\r\n    function create(\r\n        string calldata _uri,\r\n        bool   _isNF)\r\n    external returns(uint256 _type) {\r\n\r\n        // Store the type in the upper 128 bits\r\n        _type = (++nonce << 128);\r\n\r\n        // Set a flag if this is an NFI.\r\n        if (_isNF)\r\n          _type = _type | TYPE_NF_BIT;\r\n\r\n        // This will allow restricted access to creators.\r\n        creators[_type] = msg.sender;\r\n\r\n        // emit a Transfer event with Create semantic to help with discovery.\r\n        emit TransferSingle(msg.sender, address(0x0), address(0x0), _type, 0);\r\n\r\n        if (bytes(_uri).length > 0)\r\n            emit URI(_uri, _type);\r\n    }\r\n\r\n    function mintNonFungible(uint256 _type, address[] calldata _to) external creatorOnly(_type) {\r\n\r\n        // No need to check this is a nf type rather than an id since\r\n        // creatorOnly() will only let a type pass through.\r\n        require(isNonFungible(_type));\r\n\r\n        // Index are 1-based.\r\n        uint256 index = maxIndex[_type] + 1;\r\n        maxIndex[_type] = _to.length.add(maxIndex[_type]);\r\n\r\n        for (uint256 i = 0; i < _to.length; ++i) {\r\n            address dst = _to[i];\r\n            uint256 id  = _type | index + i;\r\n\r\n            nfOwners[id] = dst;\r\n\r\n            // You could use base-type id to store NF type balances if you wish.\r\n            // balances[_type][dst] = quantity.add(balances[_type][dst]);\r\n\r\n            emit TransferSingle(msg.sender, address(0x0), dst, id, 1);\r\n\r\n            if (dst.isContract()) {\r\n                _doSafeTransferAcceptanceCheck(msg.sender, msg.sender, dst, id, 1, '');\r\n            }\r\n        }\r\n    }\r\n\r\n    function mintFungible(uint256 _id, address[] calldata _to, uint256[] calldata _quantities) external creatorOnly(_id) {\r\n\r\n        require(isFungible(_id));\r\n\r\n        for (uint256 i = 0; i < _to.length; ++i) {\r\n\r\n            address to = _to[i];\r\n            uint256 quantity = _quantities[i];\r\n\r\n            // Grant the items to the caller\r\n            balances[_id][to] = quantity.add(balances[_id][to]);\r\n\r\n            // Emit the Transfer/Mint event.\r\n            // the 0x0 source address implies a mint\r\n            // It will also provide the circulating supply info.\r\n            emit TransferSingle(msg.sender, address(0x0), to, _id, quantity);\r\n\r\n            if (to.isContract()) {\r\n                _doSafeTransferAcceptanceCheck(msg.sender, msg.sender, to, _id, quantity, '');\r\n            }\r\n        }\r\n    }\r\n}\r\n",
  "sourcePath": "C:\\Users\\tredg\\Providentia\\contracts\\ERC1155MixedFungibleMintable.sol",
  "compiler": {
    "name": "solc",
    "version": "0.5.0+commit.1d4f565a.Emscripten.clang"
  },
  "schemaVersion": "3.0.11",
  "updatedAt": "2019-07-10T19:03:08.458Z",
  "devdoc": {
    "details": "Mintable form of ERC1155\r Shows how easy it is to mint new items\r",
    "methods": {
      "isApprovedForAll(address,address)": {
        "params": {
          "_operator": "Address of authorized operator\r",
          "_owner": "The owner of the Tokens\r"
        },
        "return": "True if the operator is approved, false if not\r"
      },
      "setApprovalForAll(address,bool)": {
        "details": "MUST emit the ApprovalForAll event on success.\r",
        "params": {
          "_approved": "True if the operator is approved, false to revoke approval\r",
          "_operator": "Address to add to the set of authorized operators\r"
        }
      }
    }
  },
  "userdoc": {
    "methods": {
      "isApprovedForAll(address,address)": {
        "notice": "Queries the approval status of an operator for a given owner.\r"
      },
      "setApprovalForAll(address,bool)": {
        "notice": "Enable or disable approval for a third party (\"operator\") to manage all of the caller's tokens.\r"
      }
    }
  }
}