{
  "contractName": "Providentia",
  "abi": [
    {
      "constant": true,
      "inputs": [
        {
          "name": "_owner",
          "type": "address"
        },
        {
          "name": "_id",
          "type": "uint256"
        }
      ],
      "name": "balanceOf",
      "outputs": [
        {
          "name": "",
          "type": "uint256"
        }
      ],
      "payable": false,
      "stateMutability": "view",
      "type": "function"
    },
    {
      "constant": true,
      "inputs": [
        {
          "name": "_interfaceId",
          "type": "bytes4"
        }
      ],
      "name": "supportsInterface",
      "outputs": [
        {
          "name": "",
          "type": "bool"
        }
      ],
      "payable": false,
      "stateMutability": "view",
      "type": "function"
    },
    {
      "constant": true,
      "inputs": [
        {
          "name": "",
          "type": "uint256"
        }
      ],
      "name": "maxIndex",
      "outputs": [
        {
          "name": "",
          "type": "uint256"
        }
      ],
      "payable": false,
      "stateMutability": "view",
      "type": "function"
    },
    {
      "constant": false,
      "inputs": [
        {
          "name": "spender",
          "type": "address"
        },
        {
          "name": "value",
          "type": "uint256"
        }
      ],
      "name": "approve",
      "outputs": [
        {
          "name": "",
          "type": "bool"
        }
      ],
      "payable": false,
      "stateMutability": "nonpayable",
      "type": "function"
    },
    {
      "constant": true,
      "inputs": [],
      "name": "totalSupply",
      "outputs": [
        {
          "name": "",
          "type": "uint256"
        }
      ],
      "payable": false,
      "stateMutability": "view",
      "type": "function"
    },
    {
      "constant": true,
      "inputs": [
        {
          "name": "",
          "type": "address"
        }
      ],
      "name": "addressToBalance",
      "outputs": [
        {
          "name": "",
          "type": "uint256"
        }
      ],
      "payable": false,
      "stateMutability": "view",
      "type": "function"
    },
    {
      "constant": false,
      "inputs": [
        {
          "name": "sender",
          "type": "address"
        },
        {
          "name": "recipient",
          "type": "address"
        },
        {
          "name": "amount",
          "type": "uint256"
        }
      ],
      "name": "transferFrom",
      "outputs": [
        {
          "name": "",
          "type": "bool"
        }
      ],
      "payable": false,
      "stateMutability": "nonpayable",
      "type": "function"
    },
    {
      "constant": false,
      "inputs": [
        {
          "name": "_from",
          "type": "address"
        },
        {
          "name": "_to",
          "type": "address"
        },
        {
          "name": "_ids",
          "type": "uint256[]"
        },
        {
          "name": "_values",
          "type": "uint256[]"
        },
        {
          "name": "_data",
          "type": "bytes"
        }
      ],
      "name": "safeBatchTransferFrom",
      "outputs": [],
      "payable": false,
      "stateMutability": "nonpayable",
      "type": "function"
    },
    {
      "constant": false,
      "inputs": [
        {
          "name": "spender",
          "type": "address"
        },
        {
          "name": "addedValue",
          "type": "uint256"
        }
      ],
      "name": "increaseAllowance",
      "outputs": [
        {
          "name": "",
          "type": "bool"
        }
      ],
      "payable": false,
      "stateMutability": "nonpayable",
      "type": "function"
    },
    {
      "constant": true,
      "inputs": [
        {
          "name": "_owners",
          "type": "address[]"
        },
        {
          "name": "_ids",
          "type": "uint256[]"
        }
      ],
      "name": "balanceOfBatch",
      "outputs": [
        {
          "name": "",
          "type": "uint256[]"
        }
      ],
      "payable": false,
      "stateMutability": "view",
      "type": "function"
    },
    {
      "constant": true,
      "inputs": [
        {
          "name": "",
          "type": "uint256"
        }
      ],
      "name": "Students",
      "outputs": [
        {
          "name": "addressStudent",
          "type": "address"
        },
        {
          "name": "studentId",
          "type": "uint256"
        },
        {
          "name": "name",
          "type": "string"
        },
        {
          "name": "age",
          "type": "uint256"
        },
        {
          "name": "country",
          "type": "string"
        },
        {
          "name": "university",
          "type": "string"
        },
        {
          "name": "profAccount",
          "type": "string"
        },
        {
          "name": "idNFT",
          "type": "uint256"
        }
      ],
      "payable": false,
      "stateMutability": "view",
      "type": "function"
    },
    {
      "constant": true,
      "inputs": [
        {
          "name": "_id",
          "type": "uint256"
        }
      ],
      "name": "isNonFungibleItem",
      "outputs": [
        {
          "name": "",
          "type": "bool"
        }
      ],
      "payable": false,
      "stateMutability": "pure",
      "type": "function"
    },
    {
      "constant": true,
      "inputs": [
        {
          "name": "_id",
          "type": "uint256"
        }
      ],
      "name": "ownerOf",
      "outputs": [
        {
          "name": "",
          "type": "address"
        }
      ],
      "payable": false,
      "stateMutability": "view",
      "type": "function"
    },
    {
      "constant": true,
      "inputs": [
        {
          "name": "_id",
          "type": "uint256"
        }
      ],
      "name": "getNonFungibleBaseType",
      "outputs": [
        {
          "name": "",
          "type": "uint256"
        }
      ],
      "payable": false,
      "stateMutability": "pure",
      "type": "function"
    },
    {
      "constant": true,
      "inputs": [
        {
          "name": "account",
          "type": "address"
        }
      ],
      "name": "balanceOf",
      "outputs": [
        {
          "name": "",
          "type": "uint256"
        }
      ],
      "payable": false,
      "stateMutability": "view",
      "type": "function"
    },
    {
      "constant": false,
      "inputs": [],
      "name": "renounceOwnership",
      "outputs": [],
      "payable": false,
      "stateMutability": "nonpayable",
      "type": "function"
    },
    {
      "constant": true,
      "inputs": [
        {
          "name": "_id",
          "type": "uint256"
        }
      ],
      "name": "isNonFungibleBaseType",
      "outputs": [
        {
          "name": "",
          "type": "bool"
        }
      ],
      "payable": false,
      "stateMutability": "pure",
      "type": "function"
    },
    {
      "constant": true,
      "inputs": [
        {
          "name": "",
          "type": "address"
        }
      ],
      "name": "addressToData",
      "outputs": [
        {
          "name": "addressStudent",
          "type": "address"
        },
        {
          "name": "studentId",
          "type": "uint256"
        },
        {
          "name": "name",
          "type": "string"
        },
        {
          "name": "age",
          "type": "uint256"
        },
        {
          "name": "country",
          "type": "string"
        },
        {
          "name": "university",
          "type": "string"
        },
        {
          "name": "profAccount",
          "type": "string"
        },
        {
          "name": "idNFT",
          "type": "uint256"
        }
      ],
      "payable": false,
      "stateMutability": "view",
      "type": "function"
    },
    {
      "constant": false,
      "inputs": [
        {
          "name": "_id",
          "type": "uint256"
        },
        {
          "name": "_to",
          "type": "address[]"
        },
        {
          "name": "_quantities",
          "type": "uint256[]"
        }
      ],
      "name": "mintFungible",
      "outputs": [],
      "payable": false,
      "stateMutability": "nonpayable",
      "type": "function"
    },
    {
      "constant": true,
      "inputs": [],
      "name": "owner",
      "outputs": [
        {
          "name": "",
          "type": "address"
        }
      ],
      "payable": false,
      "stateMutability": "view",
      "type": "function"
    },
    {
      "constant": true,
      "inputs": [],
      "name": "isOwner",
      "outputs": [
        {
          "name": "",
          "type": "bool"
        }
      ],
      "payable": false,
      "stateMutability": "view",
      "type": "function"
    },
    {
      "constant": true,
      "inputs": [
        {
          "name": "_id",
          "type": "uint256"
        }
      ],
      "name": "getNonFungibleIndex",
      "outputs": [
        {
          "name": "",
          "type": "uint256"
        }
      ],
      "payable": false,
      "stateMutability": "pure",
      "type": "function"
    },
    {
      "constant": false,
      "inputs": [
        {
          "name": "_operator",
          "type": "address"
        },
        {
          "name": "_approved",
          "type": "bool"
        }
      ],
      "name": "setApprovalForAll",
      "outputs": [],
      "payable": false,
      "stateMutability": "nonpayable",
      "type": "function"
    },
    {
      "constant": false,
      "inputs": [
        {
          "name": "spender",
          "type": "address"
        },
        {
          "name": "subtractedValue",
          "type": "uint256"
        }
      ],
      "name": "decreaseAllowance",
      "outputs": [
        {
          "name": "",
          "type": "bool"
        }
      ],
      "payable": false,
      "stateMutability": "nonpayable",
      "type": "function"
    },
    {
      "constant": false,
      "inputs": [
        {
          "name": "recipient",
          "type": "address"
        },
        {
          "name": "amount",
          "type": "uint256"
        }
      ],
      "name": "transfer",
      "outputs": [
        {
          "name": "",
          "type": "bool"
        }
      ],
      "payable": false,
      "stateMutability": "nonpayable",
      "type": "function"
    },
    {
      "constant": true,
      "inputs": [
        {
          "name": "_id",
          "type": "uint256"
        }
      ],
      "name": "isFungible",
      "outputs": [
        {
          "name": "",
          "type": "bool"
        }
      ],
      "payable": false,
      "stateMutability": "pure",
      "type": "function"
    },
    {
      "constant": false,
      "inputs": [
        {
          "name": "_uri",
          "type": "string"
        },
        {
          "name": "_isNF",
          "type": "bool"
        }
      ],
      "name": "create",
      "outputs": [
        {
          "name": "_type",
          "type": "uint256"
        }
      ],
      "payable": false,
      "stateMutability": "nonpayable",
      "type": "function"
    },
    {
      "constant": true,
      "inputs": [
        {
          "name": "",
          "type": "uint256"
        }
      ],
      "name": "creators",
      "outputs": [
        {
          "name": "",
          "type": "address"
        }
      ],
      "payable": false,
      "stateMutability": "view",
      "type": "function"
    },
    {
      "constant": true,
      "inputs": [
        {
          "name": "",
          "type": "address"
        }
      ],
      "name": "addressToLoan",
      "outputs": [
        {
          "name": "amountDAI",
          "type": "uint256"
        },
        {
          "name": "interestLoan",
          "type": "uint256"
        },
        {
          "name": "amountFunded",
          "type": "uint256"
        },
        {
          "name": "startDate",
          "type": "uint256"
        },
        {
          "name": "endDate",
          "type": "uint256"
        },
        {
          "name": "loanFunded",
          "type": "bool"
        },
        {
          "name": "loanAccepted",
          "type": "bool"
        },
        {
          "name": "loanRepaid",
          "type": "bool"
        }
      ],
      "payable": false,
      "stateMutability": "view",
      "type": "function"
    },
    {
      "constant": true,
      "inputs": [
        {
          "name": "",
          "type": "address"
        }
      ],
      "name": "studentToInterest",
      "outputs": [
        {
          "name": "",
          "type": "uint256"
        }
      ],
      "payable": false,
      "stateMutability": "view",
      "type": "function"
    },
    {
      "constant": true,
      "inputs": [
        {
          "name": "owner",
          "type": "address"
        },
        {
          "name": "spender",
          "type": "address"
        }
      ],
      "name": "allowance",
      "outputs": [
        {
          "name": "",
          "type": "uint256"
        }
      ],
      "payable": false,
      "stateMutability": "view",
      "type": "function"
    },
    {
      "constant": true,
      "inputs": [
        {
          "name": "_id",
          "type": "uint256"
        }
      ],
      "name": "isNonFungible",
      "outputs": [
        {
          "name": "",
          "type": "bool"
        }
      ],
      "payable": false,
      "stateMutability": "pure",
      "type": "function"
    },
    {
      "constant": true,
      "inputs": [
        {
          "name": "_owner",
          "type": "address"
        },
        {
          "name": "_operator",
          "type": "address"
        }
      ],
      "name": "isApprovedForAll",
      "outputs": [
        {
          "name": "",
          "type": "bool"
        }
      ],
      "payable": false,
      "stateMutability": "view",
      "type": "function"
    },
    {
      "constant": false,
      "inputs": [
        {
          "name": "_from",
          "type": "address"
        },
        {
          "name": "_to",
          "type": "address"
        },
        {
          "name": "_id",
          "type": "uint256"
        },
        {
          "name": "_value",
          "type": "uint256"
        },
        {
          "name": "_data",
          "type": "bytes"
        }
      ],
      "name": "safeTransferFrom",
      "outputs": [],
      "payable": false,
      "stateMutability": "nonpayable",
      "type": "function"
    },
    {
      "constant": false,
      "inputs": [
        {
          "name": "newOwner",
          "type": "address"
        }
      ],
      "name": "transferOwnership",
      "outputs": [],
      "payable": false,
      "stateMutability": "nonpayable",
      "type": "function"
    },
    {
      "constant": false,
      "inputs": [
        {
          "name": "_type",
          "type": "uint256"
        },
        {
          "name": "_to",
          "type": "address[]"
        }
      ],
      "name": "mintNonFungible",
      "outputs": [],
      "payable": false,
      "stateMutability": "nonpayable",
      "type": "function"
    },
    {
      "constant": true,
      "inputs": [
        {
          "name": "",
          "type": "uint256"
        }
      ],
      "name": "Investors",
      "outputs": [
        {
          "name": "_addressFunder",
          "type": "address"
        },
        {
          "name": "_amount",
          "type": "uint256"
        },
        {
          "name": "_addressFunded",
          "type": "address"
        },
        {
          "name": "idNFT",
          "type": "uint256"
        }
      ],
      "payable": false,
      "stateMutability": "view",
      "type": "function"
    },
    {
      "inputs": [
        {
          "name": "_stableCoinAddress",
          "type": "address"
        },
        {
          "name": "_tokenIERC1155",
          "type": "address"
        }
      ],
      "payable": false,
      "stateMutability": "nonpayable",
      "type": "constructor"
    },
    {
      "anonymous": false,
      "inputs": [
        {
          "indexed": false,
          "name": "addressStudent",
          "type": "address"
        },
        {
          "indexed": false,
          "name": "studentId",
          "type": "uint256"
        },
        {
          "indexed": false,
          "name": "_name",
          "type": "string"
        },
        {
          "indexed": false,
          "name": "_age",
          "type": "uint256"
        },
        {
          "indexed": false,
          "name": "_country",
          "type": "string"
        },
        {
          "indexed": false,
          "name": "_profAccount",
          "type": "string"
        },
        {
          "indexed": false,
          "name": "_university",
          "type": "string"
        }
      ],
      "name": "studentCreated",
      "type": "event"
    },
    {
      "anonymous": false,
      "inputs": [
        {
          "indexed": true,
          "name": "_operator",
          "type": "address"
        },
        {
          "indexed": true,
          "name": "_from",
          "type": "address"
        },
        {
          "indexed": true,
          "name": "_to",
          "type": "address"
        },
        {
          "indexed": false,
          "name": "_id",
          "type": "uint256"
        },
        {
          "indexed": false,
          "name": "_value",
          "type": "uint256"
        }
      ],
      "name": "TransferSingle",
      "type": "event"
    },
    {
      "anonymous": false,
      "inputs": [
        {
          "indexed": true,
          "name": "_operator",
          "type": "address"
        },
        {
          "indexed": true,
          "name": "_from",
          "type": "address"
        },
        {
          "indexed": true,
          "name": "_to",
          "type": "address"
        },
        {
          "indexed": false,
          "name": "_ids",
          "type": "uint256[]"
        },
        {
          "indexed": false,
          "name": "_values",
          "type": "uint256[]"
        }
      ],
      "name": "TransferBatch",
      "type": "event"
    },
    {
      "anonymous": false,
      "inputs": [
        {
          "indexed": true,
          "name": "_owner",
          "type": "address"
        },
        {
          "indexed": true,
          "name": "_operator",
          "type": "address"
        },
        {
          "indexed": false,
          "name": "_approved",
          "type": "bool"
        }
      ],
      "name": "ApprovalForAll",
      "type": "event"
    },
    {
      "anonymous": false,
      "inputs": [
        {
          "indexed": false,
          "name": "_value",
          "type": "string"
        },
        {
          "indexed": true,
          "name": "_id",
          "type": "uint256"
        }
      ],
      "name": "URI",
      "type": "event"
    },
    {
      "anonymous": false,
      "inputs": [
        {
          "indexed": true,
          "name": "from",
          "type": "address"
        },
        {
          "indexed": true,
          "name": "to",
          "type": "address"
        },
        {
          "indexed": false,
          "name": "value",
          "type": "uint256"
        }
      ],
      "name": "Transfer",
      "type": "event"
    },
    {
      "anonymous": false,
      "inputs": [
        {
          "indexed": true,
          "name": "owner",
          "type": "address"
        },
        {
          "indexed": true,
          "name": "spender",
          "type": "address"
        },
        {
          "indexed": false,
          "name": "value",
          "type": "uint256"
        }
      ],
      "name": "Approval",
      "type": "event"
    },
    {
      "anonymous": false,
      "inputs": [
        {
          "indexed": true,
          "name": "previousOwner",
          "type": "address"
        },
        {
          "indexed": true,
          "name": "newOwner",
          "type": "address"
        }
      ],
      "name": "OwnershipTransferred",
      "type": "event"
    },
    {
      "constant": false,
      "inputs": [
        {
          "name": "_addressCoin",
          "type": "address"
        }
      ],
      "name": "setStableCoinAddress",
      "outputs": [],
      "payable": false,
      "stateMutability": "nonpayable",
      "type": "function"
    },
    {
      "constant": false,
      "inputs": [
        {
          "name": "_addressStudent",
          "type": "address"
        },
        {
          "name": "_studentId",
          "type": "uint256"
        },
        {
          "name": "_name",
          "type": "string"
        },
        {
          "name": "_age",
          "type": "uint256"
        },
        {
          "name": "_country",
          "type": "string"
        },
        {
          "name": "_profAccount",
          "type": "string"
        },
        {
          "name": "_university",
          "type": "string"
        },
        {
          "name": "_uri",
          "type": "string"
        }
      ],
      "name": "addStudent",
      "outputs": [],
      "payable": false,
      "stateMutability": "nonpayable",
      "type": "function"
    },
    {
      "constant": false,
      "inputs": [
        {
          "name": "_addressSchool",
          "type": "address"
        },
        {
          "name": "_universityName",
          "type": "string"
        }
      ],
      "name": "addSchool",
      "outputs": [],
      "payable": false,
      "stateMutability": "nonpayable",
      "type": "function"
    },
    {
      "constant": false,
      "inputs": [
        {
          "name": "_interestLoan",
          "type": "uint256"
        }
      ],
      "name": "requestLoan",
      "outputs": [],
      "payable": false,
      "stateMutability": "nonpayable",
      "type": "function"
    },
    {
      "constant": false,
      "inputs": [
        {
          "name": "_addressToFund",
          "type": "address"
        }
      ],
      "name": "addMoneyPool",
      "outputs": [],
      "payable": false,
      "stateMutability": "nonpayable",
      "type": "function"
    },
    {
      "constant": false,
      "inputs": [
        {
          "name": "_amount",
          "type": "uint256"
        }
      ],
      "name": "withdrawLoan",
      "outputs": [],
      "payable": false,
      "stateMutability": "nonpayable",
      "type": "function"
    },
    {
      "constant": false,
      "inputs": [
        {
          "name": "_addressFunded",
          "type": "address"
        }
      ],
      "name": "acceptLoan",
      "outputs": [],
      "payable": false,
      "stateMutability": "nonpayable",
      "type": "function"
    },
    {
      "constant": false,
      "inputs": [],
      "name": "repayLoan",
      "outputs": [],
      "payable": false,
      "stateMutability": "nonpayable",
      "type": "function"
    },
    {
      "constant": false,
      "inputs": [
        {
          "name": "_addressFunded",
          "type": "address"
        }
      ],
      "name": "withdrawRepaidLoan",
      "outputs": [],
      "payable": false,
      "stateMutability": "nonpayable",
      "type": "function"
    }
  ],
  "bytecode": "0x60a0604052606460809081526200001b9060179060016200010f565b503480156200002957600080fd5b5060405160408062005968833981018060405260408110156200004b57600080fd5b50805160209091015160008054600160a060020a0319163317808255604051600160a060020a039190911691907f8be0079c531659141344cd1fd0a4f28419497f9722a3daafe3b4186f6b6457e0908290a360188054600160a060020a03938416600160a060020a031991821617909155601980549290931691811691909117909155601680546001810182556000919091527fd833147d7dc355ba459fc788f669e58cfaf9dc25ddcd0702e87d69c7b51242890180549091163317905562000184565b82805482825590600052602060002090810192821562000152579160200282015b8281111562000152578251829060ff1690559160200191906001019062000130565b506200016092915062000164565b5090565b6200018191905b808211156200016057600081556001016200016b565b90565b6157d480620001946000396000f3fe6080604052600436106102155763ffffffff60e060020a600035041662fdd58e811461021a57806301ffc9a71461026557806308d7d469146102ad578063095ea7b3146102d757806310f108881461031057806318160ddd14610345578063237c980a1461035a57806323b872dd1461038d5780632a104d8d146103d05780632eb2c2d6146103fa578063395093511461053457806344879b3b1461056d5780634e1273f4146105a057806357c8d71d146106bf5780635e81b958146108c15780636352211e146108eb5780636b14c51e146109315780636f969c2d1461096457806370a082311461098e578063715018a6146109c15780637269a327146109d6578063740298f614610a0057806378b2722114610a335780638d5d342914610b095780638da5cb5b14610b335780638f32d59b14610b485780639cca1c6414610b5d578063a22cb46514610b87578063a457c2d714610bc2578063a714c5de14610bfb578063a9059cbb14610cbe578063a9310a5214610cf7578063adebf6f214610fe4578063cc10e4011461100e578063cd53d08e1461108d578063d47d3b0a146110b7578063d5d5ebd214611131578063d778b72114611164578063dd62ed3e14611197578063e44591f0146111d2578063e985e9c5146111fc578063f242432a14611237578063f2fde38b146112d9578063f94190881461130c578063f966ade714611390578063fbae5e7d146113a5575b600080fd5b34801561022657600080fd5b506102536004803603604081101561023d57600080fd5b50600160a060020a038135169060200135611404565b60408051918252519081900360200190f35b34801561027157600080fd5b506102996004803603602081101561028857600080fd5b5035600160e060020a031916611474565b604080519115158252519081900360200190f35b3480156102b957600080fd5b50610253600480360360208110156102d057600080fd5b50356114ed565b3480156102e357600080fd5b50610299600480360360408110156102fa57600080fd5b50600160a060020a0381351690602001356114ff565b34801561031c57600080fd5b506103436004803603602081101561033357600080fd5b5035600160a060020a0316611515565b005b34801561035157600080fd5b50610253611719565b34801561036657600080fd5b506102536004803603602081101561037d57600080fd5b5035600160a060020a0316611720565b34801561039957600080fd5b50610299600480360360608110156103b057600080fd5b50600160a060020a03813581169160208101359091169060400135611732565b3480156103dc57600080fd5b50610343600480360360208110156103f357600080fd5b503561178a565b34801561040657600080fd5b50610343600480360360a081101561041d57600080fd5b600160a060020a03823581169260208101359091169181019060608101604082013564010000000081111561045157600080fd5b82018360208201111561046357600080fd5b8035906020019184602083028401116401000000008311171561048557600080fd5b9193909290916020810190356401000000008111156104a357600080fd5b8201836020820111156104b557600080fd5b803590602001918460208302840111640100000000831117156104d757600080fd5b9193909290916020810190356401000000008111156104f557600080fd5b82018360208201111561050757600080fd5b8035906020019184600183028401116401000000008311171561052957600080fd5b5090925090506119d7565b34801561054057600080fd5b506102996004803603604081101561055757600080fd5b50600160a060020a038135169060200135611e3f565b34801561057957600080fd5b506103436004803603602081101561059057600080fd5b5035600160a060020a0316611e7b565b3480156105ac57600080fd5b5061066f600480360360408110156105c357600080fd5b8101906020810181356401000000008111156105de57600080fd5b8201836020820111156105f057600080fd5b8035906020019184602083028401116401000000008311171561061257600080fd5b91939092909160208101903564010000000081111561063057600080fd5b82018360208201111561064257600080fd5b8035906020019184602083028401116401000000008311171561066457600080fd5b509092509050611ee9565b60408051602080825283518183015283519192839290830191858101910280838360005b838110156106ab578181015183820152602001610693565b505050509050019250505060405180910390f35b3480156106cb57600080fd5b506106e9600480360360208110156106e257600080fd5b5035612034565b6040518089600160a060020a0316600160a060020a031681526020018881526020018060200187815260200180602001806020018060200186815260200185810385528b818151815260200191508051906020019080838360005b8381101561075c578181015183820152602001610744565b50505050905090810190601f1680156107895780820380516001836020036101000a031916815260200191505b5085810384528951815289516020918201918b019080838360005b838110156107bc5781810151838201526020016107a4565b50505050905090810190601f1680156107e95780820380516001836020036101000a031916815260200191505b5085810383528851815288516020918201918a019080838360005b8381101561081c578181015183820152602001610804565b50505050905090810190601f1680156108495780820380516001836020036101000a031916815260200191505b50858103825287518152875160209182019189019080838360005b8381101561087c578181015183820152602001610864565b50505050905090810190601f1680156108a95780820380516001836020036101000a031916815260200191505b509c5050505050505050505050505060405180910390f35b3480156108cd57600080fd5b50610299600480360360208110156108e457600080fd5b50356122ba565b3480156108f757600080fd5b506109156004803603602081101561090e57600080fd5b50356122e4565b60408051600160a060020a039092168252519081900360200190f35b34801561093d57600080fd5b506103436004803603602081101561095457600080fd5b5035600160a060020a03166122ff565b34801561097057600080fd5b506102536004803603602081101561098757600080fd5b50356124db565b34801561099a57600080fd5b50610253600480360360208110156109b157600080fd5b5035600160a060020a03166124f1565b3480156109cd57600080fd5b5061034361250c565b3480156109e257600080fd5b50610299600480360360208110156109f957600080fd5b50356125a2565b348015610a0c57600080fd5b506106e960048036036020811015610a2357600080fd5b5035600160a060020a03166125cb565b348015610a3f57600080fd5b5061034360048036036060811015610a5657600080fd5b81359190810190604081016020820135640100000000811115610a7857600080fd5b820183602082011115610a8a57600080fd5b80359060200191846020830284011164010000000083111715610aac57600080fd5b919390929091602081019035640100000000811115610aca57600080fd5b820183602082011115610adc57600080fd5b80359060200191846020830284011164010000000083111715610afe57600080fd5b50909250905061264c565b348015610b1557600080fd5b5061034360048036036020811015610b2c57600080fd5b5035612794565b348015610b3f57600080fd5b5061091561299d565b348015610b5457600080fd5b506102996129ac565b348015610b6957600080fd5b5061025360048036036020811015610b8057600080fd5b50356129bd565b348015610b9357600080fd5b5061034360048036036040811015610baa57600080fd5b50600160a060020a03813516906020013515156129d2565b348015610bce57600080fd5b5061029960048036036040811015610be557600080fd5b50600160a060020a038135169060200135612a40565b348015610c0757600080fd5b5061034360048036036040811015610c1e57600080fd5b600160a060020a038235169190810190604081016020820135640100000000811115610c4957600080fd5b820183602082011115610c5b57600080fd5b80359060200191846001830284011164010000000083111715610c7d57600080fd5b91908080601f016020809104026020016040519081016040528093929190818152602001838380828437600092019190915250929550612a7c945050505050565b348015610cca57600080fd5b5061029960048036036040811015610ce157600080fd5b50600160a060020a038135169060200135612c19565b348015610d0357600080fd5b506103436004803603610100811015610d1b57600080fd5b600160a060020a0382351691602081013591810190606081016040820135640100000000811115610d4b57600080fd5b820183602082011115610d5d57600080fd5b80359060200191846001830284011164010000000083111715610d7f57600080fd5b91908080601f01602080910402602001604051908101604052809392919081815260200183838082843760009201919091525092958435959094909350604081019250602001359050640100000000811115610dda57600080fd5b820183602082011115610dec57600080fd5b80359060200191846001830284011164010000000083111715610e0e57600080fd5b91908080601f0160208091040260200160405190810160405280939291908181526020018383808284376000920191909152509295949360208101935035915050640100000000811115610e6157600080fd5b820183602082011115610e7357600080fd5b80359060200191846001830284011164010000000083111715610e9557600080fd5b91908080601f0160208091040260200160405190810160405280939291908181526020018383808284376000920191909152509295949360208101935035915050640100000000811115610ee857600080fd5b820183602082011115610efa57600080fd5b80359060200191846001830284011164010000000083111715610f1c57600080fd5b91908080601f0160208091040260200160405190810160405280939291908181526020018383808284376000920191909152509295949360208101935035915050640100000000811115610f6f57600080fd5b820183602082011115610f8157600080fd5b80359060200191846001830284011164010000000083111715610fa357600080fd5b91908080601f016020809104026020016040519081016040528093929190818152602001838380828437600092019190915250929550612c26945050505050565b348015610ff057600080fd5b506102996004803603602081101561100757600080fd5b50356136fe565b34801561101a57600080fd5b506102536004803603604081101561103157600080fd5b81019060208101813564010000000081111561104c57600080fd5b82018360208201111561105e57600080fd5b8035906020019184600183028401116401000000008311171561108057600080fd5b9193509150351515613708565b34801561109957600080fd5b50610915600480360360208110156110b057600080fd5b50356137ef565b3480156110c357600080fd5b506110ea600480360360208110156110da57600080fd5b5035600160a060020a031661380a565b6040805198895260208901979097528787019590955260608701939093526080860191909152151560a0850152151560c0840152151560e083015251908190036101000190f35b34801561113d57600080fd5b506102536004803603602081101561115457600080fd5b5035600160a060020a0316613855565b34801561117057600080fd5b506103436004803603602081101561118757600080fd5b5035600160a060020a0316613867565b3480156111a357600080fd5b50610253600480360360408110156111ba57600080fd5b50600160a060020a0381358116916020013516614026565b3480156111de57600080fd5b50610299600480360360208110156111f557600080fd5b5035614051565b34801561120857600080fd5b506102996004803603604081101561121f57600080fd5b50600160a060020a038135811691602001351661405d565b34801561124357600080fd5b50610343600480360360a081101561125a57600080fd5b600160a060020a03823581169260208101359091169160408201359160608101359181019060a08101608082013564010000000081111561129a57600080fd5b8201836020820111156112ac57600080fd5b803590602001918460018302840111640100000000831117156112ce57600080fd5b50909250905061408b565b3480156112e557600080fd5b50610343600480360360208110156112fc57600080fd5b5035600160a060020a031661433a565b34801561131857600080fd5b506103436004803603604081101561132f57600080fd5b8135919081019060408101602082013564010000000081111561135157600080fd5b82018360208201111561136357600080fd5b8035906020019184602083028401116401000000008311171561138557600080fd5b509092509050614392565b34801561139c57600080fd5b506103436144c6565b3480156113b157600080fd5b506113cf600480360360208110156113c857600080fd5b5035614773565b60408051600160a060020a03958616815260208101949094529190931682820152606082019290925290519081900360800190f35b600061140f826122ba565b1561144957600082815260066020526040902054600160a060020a0384811691161461143c57600061143f565b60015b60ff16905061146e565b506000818152600460209081526040808320600160a060020a03861684529091529020545b92915050565b6000600160e060020a031982167f01ffc9a70000000000000000000000000000000000000000000000000000000014806114d75750600160e060020a031982167fd9b67a2600000000000000000000000000000000000000000000000000000000145b156114e4575060016114e8565b5060005b919050565b60096020526000908152604090205481565b600061150c3384846147b9565b50600192915050565b8033600160a060020a03166011600a600084600160a060020a0316600160a060020a0316815260200190815260200160002060050160405180828054600181600116156101000203166002900480156115a55780601f106115835761010080835404028352918201916115a5565b820191906000526020600020905b815481529060010190602001808311611591575b5050928352505060405190819003602001902054600160a060020a03161461163c576040805160e560020a62461bcd028152602060048201526024808201527f5468652073656e646572206973206e6f7420616e20617070726f76656420736360448201527f686f6f6c00000000000000000000000000000000000000000000000000000000606482015290519081900360840190fd5b600160a060020a0382166000908152600b602052604090206005015460ff1615156001146116da576040805160e560020a62461bcd02815260206004820152602360248201527f4c6f616e20686173206e6f74206265656e2066756e64656420636f6d706c657460448201527f656c790000000000000000000000000000000000000000000000000000000000606482015290519081900360840190fd5b50600160a060020a03166000908152600b60209081526040808320600501805461ff001916610100179055600e9091529020805460ff19166001179055565b6003545b90565b600c6020526000908152604090205481565b600061173f848484614926565b600160a060020a03841660009081526002602090815260408083203380855292529091205461177f91869161177a908663ffffffff614aec16565b6147b9565b5060015b9392505050565b336000908152600b602052604090206005015460ff6101009091041615156001146117ff576040805160e560020a62461bcd02815260206004820152601c60248201527f4c6f616e20776173206e6f742066756e6465642f616363657074656400000000604482015290519081900360640190fd5b336000908152600c602052604090205481108061182a5750336000908152600c602052604090205415155b15156118a6576040805160e560020a62461bcd02815260206004820152602a60248201527f596f752061726520747279696e6720746f20776974686472617720612068696760448201527f68657220616d6f756e7400000000000000000000000000000000000000000000606482015290519081900360840190fd5b601854336000908152600a602052604090819020905160059091018054600160a060020a0390931692839263a9059cbb92601192909190819083906002600019600183161561010002019091160480156119375780601f10611915576101008083540402835291820191611937565b820191906000526020600020905b815481529060010190602001808311611923575b505092835250506040805191829003602090810183205460e060020a63ffffffff8616028452600160a060020a031660048401526024830187905290516044808401938290030181600087803b15801561199057600080fd5b505af11580156119a4573d6000803e3d6000fd5b505050506040513d60208110156119ba57600080fd5b5050336000908152600c6020526040902080549290920390915550565b600160a060020a0387161515611a37576040805160e560020a62461bcd02815260206004820152601b60248201527f63616e6e6f742073656e6420746f207a65726f20616464726573730000000000604482015290519081900360640190fd5b848314611a8e576040805160e560020a62461bcd02815260206004820152601760248201527f4172726179206c656e677468206d757374206d61746368000000000000000000604482015290519081900360640190fd5b600160a060020a038816331480611acd5750600160a060020a038816600090815260056020908152604080832033845290915290205460ff1615156001145b1515611b49576040805160e560020a62461bcd02815260206004820152602f60248201527f4e656564206f70657261746f7220617070726f76616c20666f7220337264207060448201527f61727479207472616e73666572732e0000000000000000000000000000000000606482015290519081900360840190fd5b60005b85811015611cc8576000878783818110611b6257fe5b90506020020135905060008686848181101515611b7b57fe5b905060200201359050611b8d82614051565b15611be457600082815260066020526040902054600160a060020a038c8116911614611bb857600080fd5b60008281526006602052604090208054600160a060020a031916600160a060020a038c16179055611cbe565b6000828152600460209081526040808320600160a060020a038f168452909152902054611c17908263ffffffff614aec16565b6004600084815260200190815260200160002060008d600160a060020a0316600160a060020a0316815260200190815260200160002081905550611c9a6004600084815260200190815260200160002060008c600160a060020a0316600160a060020a031681526020019081526020016000205482614b4c90919063ffffffff16565b6000838152600460209081526040808320600160a060020a038f1684529091529020555b5050600101611b4c565b5086600160a060020a031688600160a060020a031633600160a060020a03167f4a39dc06d4c0dbc64b70af90fd698a233a518aa5d07e595d983b8c0526c8f7fb898989896040518080602001806020018381038352878782818152602001925060200280828437600083820152601f01601f19169091018481038352858152602090810191508690860280828437600083820152604051601f909101601f19169092018290039850909650505050505050a4611d8c87600160a060020a0316614ba9565b15611e3557611e3533898989898080602002602001604051908101604052809392919081815260200183836020028082843760009201919091525050604080516020808d0282810182019093528c82529093508c92508b91829185019084908082843760009201919091525050604080516020601f8c018190048102820181019092528a815292508a9150899081908401838280828437600092019190915250614bb192505050565b5050505050505050565b336000818152600260209081526040808320600160a060020a0387168452909152812054909161150c91859061177a908663ffffffff614b4c16565b611e836129ac565b1515611ec7576040805160e560020a62461bcd0281526020600482018190526024820152600080516020615789833981519152604482015290519081900360640190fd5b60188054600160a060020a031916600160a060020a0392909216919091179055565b6060838214611ef757600080fd5b604080518581526020808702820101909152606090858015611f23578160200160208202803883390190505b50905060005b8581101561202a576000858583818110611f3f57fe5b905060200201359050611f51816122ba565b15611fbc57878783818110611f6257fe5b60008481526006602090815260409091205491029290920135600160a060020a039081169216919091149050611f99576000611f9c565b60015b60ff168383815181101515611fad57fe5b60209081029091010152612021565b600081815260046020526040812090898985818110611fd757fe5b90506020020135600160a060020a0316600160a060020a0316600160a060020a0316815260200190815260200160002054838381518110151561201657fe5b602090810290910101525b50600101611f29565b5095945050505050565b601580548290811061204257fe5b6000918252602091829020600891909102018054600180830154600280850180546040805161010096831615969096026000190190911692909204601f8101889004880285018801909252818452600160a060020a03909416965090949192918301828280156120f35780601f106120c8576101008083540402835291602001916120f3565b820191906000526020600020905b8154815290600101906020018083116120d657829003601f168201915b50505050600383015460048401805460408051602060026001851615610100026000190190941693909304601f8101849004840282018401909252818152959693959394509083018282801561218a5780601f1061215f5761010080835404028352916020019161218a565b820191906000526020600020905b81548152906001019060200180831161216d57829003601f168201915b5050505060058301805460408051602060026001851615610100026000190190941693909304601f810184900484028201840190925281815294959493509083018282801561221a5780601f106121ef5761010080835404028352916020019161221a565b820191906000526020600020905b8154815290600101906020018083116121fd57829003601f168201915b5050505060068301805460408051602060026001851615610100026000190190941693909304601f81018490048402820184019092528181529495949350908301828280156122aa5780601f1061227f576101008083540402835291602001916122aa565b820191906000526020600020905b81548152906001019060200180831161228d57829003601f168201915b5050505050908060070154905088565b600060ff60020a80831614801561146e5750506fffffffffffffffffffffffffffffffff16151590565b600090815260066020526040902054600160a060020a031690565b600160a060020a0381166000908152600b602052604090206003015460049061232e904263ffffffff614df716565b1161233857600080fd5b600160a060020a0381166000908152600b602052604090206005015460ff6101009091041615156001146123b6576040805160e560020a62461bcd02815260206004820152601c60248201527f4c6f616e20776173206e6f742066756e6465642f616363657074656400000000604482015290519081900360640190fd5b600160a060020a03811660009081526012602052604090205461271014612427576040805160e560020a62461bcd02815260206004820152601560248201527f4c6f616e206e6f742066756c6c792066756e6465640000000000000000000000604482015290519081900360640190fd5b601854600160a060020a0316600061243e83614e42565b604080517fa9059cbb000000000000000000000000000000000000000000000000000000008152336004820152602481018390529051919250600160a060020a0384169163a9059cbb916044808201926020929091908290030181600087803b1580156124aa57600080fd5b505af11580156124be573d6000803e3d6000fd5b505050506040513d60208110156124d457600080fd5b5050505050565b6fffffffffffffffffffffffffffffffff191690565b600160a060020a031660009081526001602052604090205490565b6125146129ac565b1515612558576040805160e560020a62461bcd0281526020600482018190526024820152600080516020615789833981519152604482015290519081900360640190fd5b60008054604051600160a060020a03909116907f8be0079c531659141344cd1fd0a4f28419497f9722a3daafe3b4186f6b6457e0908390a360008054600160a060020a0319169055565b600060ff60020a80831614801561146e5750506fffffffffffffffffffffffffffffffff161590565b600a6020908152600091825260409182902080546001808301546002808501805488516101009582161595909502600019011691909104601f8101879004870284018701909752868352600160a060020a039093169590949192918301828280156120f35780601f106120c8576101008083540402835291602001916120f3565b6000858152600860205260409020548590600160a060020a0316331461267157600080fd5b61267a866136fe565b151561268557600080fd5b60005b8481101561278b57600086868381811061269e57fe5b90506020020135600160a060020a03169050600085858481811015156126c057fe5b60008c8152600460209081526040808320600160a060020a03891684528252909120549102929092013592506126fe9183915063ffffffff614b4c16565b60008a8152600460209081526040808320600160a060020a0387168085529083528184209490945580518d81529182018590528051339260008051602061576983398151915292908290030190a461275e82600160a060020a0316614ba9565b15612781576127813333848c85602060405190810160405280600081525061502c565b5050600101612688565b50505050505050565b336000908152600b60205260409020541561281f576040805160e560020a62461bcd02815260206004820152602960248201527f557365722068617320616c726561647920696e697469617465642061204c6f6160448201527f6e2070726f636573730000000000000000000000000000000000000000000000606482015290519081900360840190fd5b336000908152600a602052604090206002908101546000196101006001831615020116041515612899576040805160e560020a62461bcd02815260206004820152601d60248201527f53747564656e74206861736e2774206265656e20616464656420796574000000604482015290519081900360640190fd5b610100604051908101604052806127108152602001828152602001600081526020014281526020016128d56005426151f690919063ffffffff16565b81526000602080830182905260408084018390526060938401839052338352600b8252808320855181558583015160018201558582015160028201559385015160038501556080850151600485015560a08501516005909401805460c087015160e0909701511515620100000262ff0000199715156101000261ff001997151560ff199384161797909716969096179690961694909417909355600c8152828220829055600e8152828220805490941690935560128352818120819055601390925281205550565b600054600160a060020a031690565b600054600160a060020a0316331490565b6fffffffffffffffffffffffffffffffff1690565b336000818152600560209081526040808320600160a060020a03871680855290835292819020805460ff1916861515908117909155815190815290519293927f17307eab39ab6107e8899845ad3d59bd9653f200f220920489ca2b5937696c31929181900390910190a35050565b336000818152600260209081526040808320600160a060020a0387168452909152812054909161150c91859061177a908663ffffffff614aec16565b612a846129ac565b1515612ac8576040805160e560020a62461bcd0281526020600482018190526024820152600080516020615789833981519152604482015290519081900360640190fd5b6000600160a060020a03166011826040518082805190602001908083835b60208310612b055780518252601f199092019160209182019101612ae6565b51815160209384036101000a6000190180199092169116179052920194855250604051938490030190922054600160a060020a0316929092149150612b969050576040805160e560020a62461bcd02815260206004820152601d60248201527f556e697665727369747920616c72656164792072656769737465726564000000604482015290519081900360640190fd5b816011826040518082805190602001908083835b60208310612bc95780518252601f199092019160209182019101612baa565b51815160209384036101000a600019018019909216911617905292019485525060405193849003019092208054600160a060020a031916600160a060020a03949094169390931790925550505050565b600061150c338484614926565b600160a060020a0388166000908152600a6020526040902060029081015460001961010060018316150201160415612cce576040805160e560020a62461bcd02815260206004820152602f60248201527f416e20616464726573732063616e206f6e6c792068617665206f6e652053747560448201527f64656e74206173736f6369617465640000000000000000000000000000000000606482015290519081900360840190fd5b6000600160a060020a03166011836040518082805190602001908083835b60208310612d0b5780518252601f199092019160209182019101612cec565b51815160209384036101000a6000190180199092169116179052920194855250604051938490030190922054600160a060020a031692909214159150612d9d9050576040805160e560020a62461bcd02815260206004820181905260248201527f556e6976657273697479206861736e2774206265656e20616464656420796574604482015290519081900360640190fd5b6011826040518082805190602001908083835b60208310612dcf5780518252601f199092019160209182019101612db0565b51815160209384036101000a6000190180199092169116179052920194855250604051938490030190922054600160a060020a031633149150612e849050576040805160e560020a62461bcd02815260206004820152602560248201527f53656e646572206973206e6f742061207265676973746572656420756e69766560448201527f7273697479000000000000000000000000000000000000000000000000000000606482015290519081900360840190fd5b601954604080517fcc10e40100000000000000000000000000000000000000000000000000000000815260016024820181905260048201928352845160448301528451600094600160a060020a03169363cc10e4019387939282916064019060208601908083838c5b83811015612f05578181015183820152602001612eed565b50505050905090810190601f168015612f325780820380516001836020036101000a031916815260200191505b509350505050602060405180830381600087803b158015612f5257600080fd5b505af1158015612f66573d6000803e3d6000fd5b505050506040513d6020811015612f7c57600080fd5b5051601954604080517ff941908800000000000000000000000000000000000000000000000000000000815260048101848152602482019283526016805460448401819052959650600160a060020a039094169463f9419088948794909390916064909101908490801561301957602002820191906000526020600020905b8154600160a060020a03168152600190910190602001808311612ffb575b50509350505050600060405180830381600087803b15801561303a57600080fd5b505af115801561304e573d6000803e3d6000fd5b5050601954604080517fcc10e40100000000000000000000000000000000000000000000000000000000815260006024820181905260048201928352875160448301528751909550600160a060020a03909316935063cc10e401928792869290918291606401906020860190808383885b838110156130d75781810151838201526020016130bf565b50505050905090810190601f1680156131045780820380516001836020036101000a031916815260200191505b509350505050602060405180830381600087803b15801561312457600080fd5b505af1158015613138573d6000803e3d6000fd5b505050506040513d602081101561314e57600080fd5b50516019546040517f78b27221000000000000000000000000000000000000000000000000000000008152600481018381526060602483019081526016805460648501819052959650600160a060020a03909416946378b272219487949093601793909290916044810191608490910190869080156131f657602002820191906000526020600020905b8154600160a060020a031681526001909101906020018083116131d8575b5050838103825284818154815260200191508054801561323557602002820191906000526020600020905b815481526020019060010190808311613221575b505095505050505050600060405180830381600087803b15801561325857600080fd5b505af115801561326c573d6000803e3d6000fd5b50505050610100604051908101604052808b600160a060020a031681526020018a815260200189815260200188815260200187815260200185815260200186815260200183815250600a60008c600160a060020a0316600160a060020a0316815260200190815260200160002060008201518160000160006101000a815481600160a060020a030219169083600160a060020a0316021790555060208201518160010155604082015181600201908051906020019061332c9291906156d0565b5060608201516003820155608082015180516133529160048401916020909101906156d0565b5060a0820151805161336e9160058401916020909101906156d0565b5060c0820151805161338a9160068401916020909101906156d0565b5060e091820151600791909101556040805161010081018252600160a060020a038d8116825260208083018e81529383018d8152606084018d9052608084018c905260a084018a905260c084018b9052948301879052601580546001810180835560009290925284517f55f448fdea98c4d29eb340757ef0a66cd03dbb9538908a6a81d96026b71ec47560089092029182018054600160a060020a0319169190951617845594517f55f448fdea98c4d29eb340757ef0a66cd03dbb9538908a6a81d96026b71ec476860155945180519394929361348e937f55f448fdea98c4d29eb340757ef0a66cd03dbb9538908a6a81d96026b71ec477019291909101906156d0565b5060608201516003820155608082015180516134b49160048401916020909101906156d0565b5060a082015180516134d09160058401916020909101906156d0565b5060c082015180516134ec9160068401916020909101906156d0565b5060e082015181600701555050507f818fdaabb8bd66ad9c1c6f1afc31e7c033a43b7001fe287d96341b110cc2f4b08a8a8a8a8a8a8a6040518088600160a060020a0316600160a060020a031681526020018781526020018060200186815260200180602001806020018060200185810385528a818151815260200191508051906020019080838360005b8381101561358f578181015183820152602001613577565b50505050905090810190601f1680156135bc5780820380516001836020036101000a031916815260200191505b5085810384528851815288516020918201918a019080838360005b838110156135ef5781810151838201526020016135d7565b50505050905090810190601f16801561361c5780820380516001836020036101000a031916815260200191505b50858103835287518152875160209182019189019080838360005b8381101561364f578181015183820152602001613637565b50505050905090810190601f16801561367c5780820380516001836020036101000a031916815260200191505b50858103825286518152865160209182019188019080838360005b838110156136af578181015183820152602001613697565b50505050905090810190601f1680156136dc5780820380516001836020036101000a031916815260200191505b509b50505050505050505050505060405180910390a150505050505050505050565b60ff60020a161590565b60078054600101908190557001000000000000000000000000000000000281156137335760ff60020a175b60008181526008602090815260408083208054600160a060020a031916339081179091558151858152928301849052815184939192600080516020615769833981519152928290030190a4600083111561178357807f6bb7ff708619ba0610cba295a58592e0451dee2622938c8755667688daf3529b858560405180806020018281038252848482818152602001925080828437600083820152604051601f909101601f19169092018290039550909350505050a29392505050565b600860205260009081526040902054600160a060020a031681565b600b60205260009081526040902080546001820154600283015460038401546004850154600590950154939492939192909160ff808216916101008104821691620100009091041688565b600d6020526000908152604090205481565b600160a060020a0381166000908152600b6020526040902060050154819060ff161580156138af5750600160a060020a0381166000908152600b602052604090206004015415155b1515613905576040805160e560020a62461bcd02815260206004820152601e60248201527f557365722068617320616c726561647920612066756e646564206c6f616e0000604482015290519081900360640190fd5b600160a060020a0382161515613965576040805160e560020a62461bcd02815260206004820152600f60248201527f41646472657373203020676976656e0000000000000000000000000000000000604482015290519081900360640190fd5b601854604080517fdd62ed3e0000000000000000000000000000000000000000000000000000000081523360048201523060248201529051600160a060020a0390921691600091839163dd62ed3e91604480820192602092909190829003018186803b1580156139d457600080fd5b505afa1580156139e8573d6000803e3d6000fd5b505050506040513d60208110156139fe57600080fd5b5051600160a060020a0385166000908152600b6020526040902054909150613a2d90606463ffffffff61525b16565b8110158015613a3d575060648106155b1515613adf576040805160e560020a62461bcd02815260206004820152604560248201527f54686520616d6f756e742073656e74206d7573742062652061206d756c74697060448201527f6c696572206f66203130302e204561636820746f6b656e20636f73747320313060648201527f3020444149000000000000000000000000000000000000000000000000000000608482015290519081900360a40190fd5b806127101415613cfe57613afa81606463ffffffff61525b16565b336000818152601060209081526040808320600160a060020a038a8116808652600a808652848720600701805488529386528487208054909901909855835160808101855287815261271081870190815281860183815299875293546060820190815260148054600181018255908952915160049283027fce6d7b5282bd9a3661ae061feed1dbda4e52ab073b1f9285be6e155d9c38d4ec81018054928716600160a060020a031993841617905595517fce6d7b5282bd9a3661ae061feed1dbda4e52ab073b1f9285be6e155d9c38d4ed87015599517fce6d7b5282bd9a3661ae061feed1dbda4e52ab073b1f9285be6e155d9c38d4ee8601805491861691909b161790995597517fce6d7b5282bd9a3661ae061feed1dbda4e52ab073b1f9285be6e155d9c38d4ef90930192909255908452600c8352818420805488019055815160e060020a6323b872dd028152958601949094523060248601526044850186905251928616936323b872dd9360648083019491928390030190829087803b158015613c8657600080fd5b505af1158015613c9a573d6000803e3d6000fd5b505050506040513d6020811015613cb057600080fd5b5050600160a060020a0384166000908152600b60209081526040808320600501805460ff19166001179055600c82528083208054612710818103909101909155601390925290912055614020565b600160a060020a0384166000908152600c6020526040902054612710038110613e8f57600160a060020a0384166000908152600c6020526040902054613d4f9061271003606463ffffffff61525b16565b336000818152601060209081526040808320600160a060020a038a168452600a835281842060070154845282529182902080549094019093558051608081019091529081526014918101613daa84606463ffffffff61525b16565b8152600160a060020a0380881660208084018290526000828152600a825260408082206007015495810195909552865460018181018955978252828220875160049283029091018054918716600160a060020a031992831617815588850151998101999099558787015160028a01805491881691909216179055606090960151600390970196909655908552600c815282852054835160e060020a6323b872dd02815233958101959095523060248601526127100360448501529151908616936323b872dd936064808201949392918390030190829087803b158015613c8657600080fd5b613ea081606463ffffffff61525b16565b336000818152601060209081526040808320600160a060020a038a16808552600a845282852060070154855290835281842080549096019095558051608081018252938452938252600c815292902054601492820190613f0790606463ffffffff61525b16565b612710038152600160a060020a0380881660208084018290526000828152600a825260408082206007015495810195909552865460018181018955978252828220875160049283029091018054918716600160a060020a031992831617815588850151998101999099558787015160028a01805491881691909216179055606090960151600390970196909655908552600c8152828520805487019055825160e060020a6323b872dd0281523394810194909452306024850152604484018690529151908616936323b872dd936064808201949392918390030190829087803b158015613ff357600080fd5b505af1158015614007573d6000803e3d6000fd5b505050506040513d602081101561401d57600080fd5b50505b50505050565b600160a060020a03918216600090815260026020908152604080832093909416825291909152205490565b60ff60020a9081161490565b600160a060020a03918216600090815260056020908152604080832093909416825291909152205460ff1690565b600160a060020a03851615156140eb576040805160e560020a62461bcd02815260206004820152601b60248201527f63616e6e6f742073656e6420746f207a65726f20616464726573730000000000604482015290519081900360640190fd5b600160a060020a03861633148061412a5750600160a060020a038616600090815260056020908152604080832033845290915290205460ff1615156001145b15156141a6576040805160e560020a62461bcd02815260206004820152602f60248201527f4e656564206f70657261746f7220617070726f76616c20666f7220337264207060448201527f61727479207472616e73666572732e0000000000000000000000000000000000606482015290519081900360840190fd5b6141af84614051565b1561420657600084815260066020526040902054600160a060020a038781169116146141da57600080fd5b60008481526006602052604090208054600160a060020a031916600160a060020a038716179055614294565b6000848152600460209081526040808320600160a060020a038a168452909152902054614239908463ffffffff614aec16565b6000858152600460209081526040808320600160a060020a038b811685529252808320939093558716815220546142709084614b4c565b6000858152600460209081526040808320600160a060020a038a1684529091529020555b84600160a060020a031686600160a060020a031633600160a060020a03166000805160206157698339815191528787604051808381526020018281526020019250505060405180910390a46142f185600160a060020a0316614ba9565b1561401d5761401d338787878787878080601f01602080910402602001604051908101604052809392919081815260200183838082843760009201919091525061502c92505050565b6143426129ac565b1515614386576040805160e560020a62461bcd0281526020600482018190526024820152600080516020615789833981519152604482015290519081900360640190fd5b61438f816152ca565b50565b6000838152600860205260409020548390600160a060020a031633146143b757600080fd5b6143c084614051565b15156143cb57600080fd5b60008481526009602052604090205460018101906143f090849063ffffffff614b4c16565b6000868152600960205260408120919091555b8381101561401d57600085858381811061441957fe5b8486018a17600081815260066020908152604080832080549583029790970135600160a060020a0316600160a060020a031990951685179096558551838152600191810191909152855193965091948694509092339260008051602061576983398151915292908290030190a461449882600160a060020a0316614ba9565b156144bc576144bc333384846001602060405190810160405280600081525061502c565b5050600101614403565b336000908152600e602052604090205460ff161515600114614558576040805160e560020a62461bcd02815260206004820152602b60248201527f54686973206164647265737320646f65736e277420686176652061206c6f616e60448201527f206173736f636961746564000000000000000000000000000000000000000000606482015290519081900360840190fd5b336000908152600b602052604090206005015462010000900460ff16156145c9576040805160e560020a62461bcd02815260206004820152601360248201527f4c6f616e20616c72656164792072657061696400000000000000000000000000604482015290519081900360640190fd5b601854604080517fdd62ed3e0000000000000000000000000000000000000000000000000000000081523360048201523060248201529051600160a060020a0390921691600091839163dd62ed3e91604480820192602092909190829003018186803b15801561463857600080fd5b505afa15801561464c573d6000803e3d6000fd5b505050506040513d602081101561466257600080fd5b50516040805160e060020a6323b872dd028152336004820152306024820152604481018390529051919250600160a060020a038416916323b872dd916064808201926020929091908290030181600087803b1580156146c057600080fd5b505af11580156146d4573d6000803e3d6000fd5b505050506040513d60208110156146ea57600080fd5b506146f69050816153ab565b33600090815260126020526040902054612710141561476f57336000908152600b60209081526040808320600581018054858355600183018690556002830186905560038301869055600490920185905562ffffff1962ff0000199092166201000017919091169055600e9091529020805460ff191690555b5050565b601480548290811061478157fe5b60009182526020909120600490910201805460018201546002830154600390930154600160a060020a03928316945090929091169084565b600160a060020a038316151561483e576040805160e560020a62461bcd028152602060048201526024808201527f45524332303a20617070726f76652066726f6d20746865207a65726f2061646460448201527f7265737300000000000000000000000000000000000000000000000000000000606482015290519081900360840190fd5b600160a060020a03821615156148c4576040805160e560020a62461bcd02815260206004820152602260248201527f45524332303a20617070726f766520746f20746865207a65726f20616464726560448201527f7373000000000000000000000000000000000000000000000000000000000000606482015290519081900360840190fd5b600160a060020a03808416600081815260026020908152604080832094871680845294825291829020859055815185815291517f8c5be1e5ebec7d5bd14f71427d1e84f3dd0314c0f7b2291e5b200ac8c7c3b9259281900390910190a3505050565b600160a060020a03831615156149ac576040805160e560020a62461bcd02815260206004820152602560248201527f45524332303a207472616e736665722066726f6d20746865207a65726f20616460448201527f6472657373000000000000000000000000000000000000000000000000000000606482015290519081900360840190fd5b600160a060020a0382161515614a32576040805160e560020a62461bcd02815260206004820152602360248201527f45524332303a207472616e7366657220746f20746865207a65726f206164647260448201527f6573730000000000000000000000000000000000000000000000000000000000606482015290519081900360840190fd5b600160a060020a038316600090815260016020526040902054614a5b908263ffffffff614aec16565b600160a060020a038085166000908152600160205260408082209390935590841681522054614a90908263ffffffff614b4c16565b600160a060020a0380841660008181526001602090815260409182902094909455805185815290519193928716927fddf252ad1be2c89b69c2b068fc378daa952ba7f163c4a11628f55a4df523b3ef92918290030190a3505050565b600082821115614b46576040805160e560020a62461bcd02815260206004820152601e60248201527f536166654d6174683a207375627472616374696f6e206f766572666c6f770000604482015290519081900360640190fd5b50900390565b600082820183811015611783576040805160e560020a62461bcd02815260206004820152601b60248201527f536166654d6174683a206164646974696f6e206f766572666c6f770000000000604482015290519081900360640190fd5b6000903b1190565b63bc197c8160e060020a027bffffffffffffffffffffffffffffffffffffffffffffffffffffffff191684600160a060020a031663bc197c8188888787876040518663ffffffff1660e060020a0281526004018086600160a060020a0316600160a060020a0316815260200185600160a060020a0316600160a060020a03168152602001806020018060200180602001848103845287818151815260200191508051906020019060200280838360005b83811015614c79578181015183820152602001614c61565b50505050905001848103835286818151815260200191508051906020019060200280838360005b83811015614cb8578181015183820152602001614ca0565b50505050905001848103825285818151815260200191508051906020019080838360005b83811015614cf4578181015183820152602001614cdc565b50505050905090810190601f168015614d215780820380516001836020036101000a031916815260200191505b5098505050505050505050602060405180830381600087803b158015614d4657600080fd5b505af1158015614d5a573d6000803e3d6000fd5b505050506040513d6020811015614d7057600080fd5b5051600160e060020a0319161461401d576040805160e560020a62461bcd02815260206004820152603e60248201527f636f6e74726163742072657475726e656420616e20756e6b6e6f776e2076616c60448201527f75652066726f6d206f6e45524331313535426174636852656365697665640000606482015290519081900360840190fd5b600081831115614e0657600080fd5b60008080808080614e1c620151808a5b04615470565b91975095509350614e306201518089614e16565b50509590950398975050505050505050565b6000805b6014548110156150265782600160a060020a0316601482815481101515614e6957fe5b6000918252602090912060026004909202010154600160a060020a0316141561501e573360009081526010602052604081206014805483919085908110614eac57fe5b90600052602060002090600402016003015481526020019081526020016000205490506000614f1a6064614f0e84601260008a600160a060020a0316600160a060020a031681526020019081526020016000205461550890919063ffffffff16565b9063ffffffff61525b16565b600160a060020a0386166000908152601360209081526040808320805485900390553383526010909152812060148054939450859391929187908110614f5c57fe5b90600052602060002090600402016003015481526020019081526020016000206000828254039250508190555080614fc76064614f0e85600d60008b600160a060020a0316600160a060020a031681526020019081526020016000205461550890919063ffffffff16565b600160a060020a0387166000908152600d602052604090205491019450614ffb90606490614f0e908563ffffffff61550816565b600160a060020a0386166000908152600d60205260409020805491909103905550505b600101614e46565b50919050565b63f23a6e6160e060020a027bffffffffffffffffffffffffffffffffffffffffffffffffffffffff191684600160a060020a031663f23a6e6188888787876040518663ffffffff1660e060020a0281526004018086600160a060020a0316600160a060020a0316815260200185600160a060020a0316600160a060020a0316815260200184815260200183815260200180602001828103825283818151815260200191508051906020019080838360005b838110156150f55781810151838201526020016150dd565b50505050905090810190601f1680156151225780820380516001836020036101000a031916815260200191505b509650505050505050602060405180830381600087803b15801561514557600080fd5b505af1158015615159573d6000803e3d6000fd5b505050506040513d602081101561516f57600080fd5b5051600160e060020a0319161461401d576040805160e560020a62461bcd02815260206004820152603960248201527f636f6e74726163742072657475726e656420616e20756e6b6e6f776e2076616c60448201527f75652066726f6d206f6e45524331313535526563656976656400000000000000606482015290519081900360840190fd5b60008080806152086201518087614e16565b918701945092509050600061521d84846155a4565b90508082111561522b578091505b6201518087066201518061524086868661562a565b020194508685101561525157600080fd5b5050505092915050565b60008082116152b4576040805160e560020a62461bcd02815260206004820152601a60248201527f536166654d6174683a206469766973696f6e206279207a65726f000000000000604482015290519081900360640190fd5b600082848115156152c157fe5b04949350505050565b600160a060020a0381161515615350576040805160e560020a62461bcd02815260206004820152602660248201527f4f776e61626c653a206e6577206f776e657220697320746865207a65726f206160448201527f6464726573730000000000000000000000000000000000000000000000000000606482015290519081900360840190fd5b60008054604051600160a060020a03808516939216917f8be0079c531659141344cd1fd0a4f28419497f9722a3daafe3b4186f6b6457e091a360008054600160a060020a031916600160a060020a0392909216919091179055565b336000908152600b602052604081206003015461541a90618e949061540a906153da904263ffffffff61569016565b336000908152600b60205260409020600101546153fe90606463ffffffff61550816565b9063ffffffff61550816565b612710029063ffffffff61525b16565b905061542c828263ffffffff614aec16565b3360009081526012602090815260408083208054909401909355600d9052205461545c908263ffffffff614b4c16565b336000908152600d60205260409020555050565b60008080836226496581018262023ab1600483020590506004600362023ab18302010590910390600062164b09610fa0600185010205905060046105b58202058303601f019250600061098f846050028115156154c957fe5b0590506000605061098f83020585039050600b820560301994909401606402929092018301996002600c90940290910392909201975095509350505050565b60008215156155195750600061146e565b82820282848281151561552857fe5b0414611783576040805160e560020a62461bcd02815260206004820152602160248201527f536166654d6174683a206d756c7469706c69636174696f6e206f766572666c6f60448201527f7700000000000000000000000000000000000000000000000000000000000000606482015290519081900360840190fd5b600081600114806155b55750816003145b806155c05750816005145b806155cb5750816007145b806155d65750816008145b806155e1575081600a145b806155ec575081600c145b156155f95750601f61146e565b600282146156095750601e61146e565b615612836156ab565b61561d57601c615620565b601d5b60ff169392505050565b60006107b284101561563b57600080fd5b506225bad61960046064600c600d1986018190059687016113248101929092056003028390056112c09092016105b502929092059093016001199582029094039490940161016f029390930591909101030190565b60008183111561569f57600080fd5b50620151809190030490565b6000600482061580156156c057506064820615155b8061146e57505061019090061590565b828054600181600116156101000203166002900490600052602060002090601f016020900481019282601f1061571157805160ff191683800117855561573e565b8280016001018555821561573e579182015b8281111561573e578251825591602001919060010190615723565b5061574a92915061574e565b5090565b61171d91905b8082111561574a576000815560010161575456fec3d58168c5ae7397731d063d5bbf3d657854427343f4c083240f7aacaa2d0f624f776e61626c653a2063616c6c6572206973206e6f7420746865206f776e6572a165627a7a72305820ff49e9506ae8132b052e42048fc1f7fc00986b82d7b2323144de95f6917973740029",
  "source": "pragma solidity ^0.5.0;\r\n\r\nimport \"./ERC1155MixedFungibleMintable.sol\";\r\nimport \"./Ownable.sol\";\r\nimport \"./ERC20.sol\";\r\nimport \"./TimeHelper.sol\";\r\nimport \"./SafeMath.sol\";\r\n\r\n/**\r\n    @title Providentia, providing students with loan\r\n    @dev See https://providentia.network/\r\n    @author https://github.com/Solexplorer\r\n    Note: Some values are hardcoded in order to represent a specific usecase\r\n */\r\n\r\ncontract Providentia is Ownable, ERC20, ERC1155MixedFungibleMintable{\r\n  // @dev Library used to calculate time differences\r\n  using BokkyPooBahsDateTimeLibrary for uint;\r\n  // @dev Library to prevent integer overflow/underflow\r\n  using SafeMath for uint;\r\n\r\n    // @dev Mapping used to store user data\r\n    mapping( address => StudentData ) public addressToData;\r\n    // @dev Mapping used to store the details of the Loan\r\n    mapping( address => StudentLoan) public addressToLoan;\r\n    // @dev Mapping used to track the Loan of the student\r\n    mapping( address => uint) public addressToBalance;\r\n    // @dev Mapping used to track the interest paid by the student\r\n    mapping( address => uint) public studentToInterest;\r\n    // @dev Mapping to know if the user has an outstanding loan\r\n    mapping( address => bool ) studentHasLoan;\r\n    // @dev address =>( idNFT => idFT )\r\n    mapping( address => mapping( uint => uint)) ownerToTypes;\r\n    // idNFT => amountTokens\r\n    // note: One NFT MUST have 100 FT attached, no more no less\r\n    mapping( address => mapping(uint => uint) ) tokensToValue;\r\n    // @dev Name of University To Address\r\n    mapping( string => address) addressToUniversity;\r\n    // @dev Address to amount of repaid loan\r\n    mapping( address => uint) addressToRepaid;\r\n    // @dev Address to amount remaining to investor( used to track withdrawals of investors)\r\n    mapping( address => uint) addressToInvestor;\r\n\r\n        /***********************************|\r\n        |        Variables and Events       |\r\n        |__________________________________*/\r\n\r\n    event studentCreated (\r\n        address addressStudent,\r\n        uint studentId,\r\n        string _name,\r\n        uint _age,\r\n        string _country,\r\n        string _profAccount,\r\n        string _university\r\n        );\r\n\r\n    struct StudentData {\r\n        address addressStudent;\r\n        uint studentId;\r\n        string name;\r\n        uint age;\r\n        string country;\r\n        string university;\r\n        string profAccount;\r\n        uint idNFT;\r\n    }\r\n\r\n    struct StudentLoan {\r\n        uint amountDAI;\r\n        uint interestLoan;\r\n        uint amountFunded;\r\n        uint startDate;\r\n        uint endDate;\r\n        bool loanFunded;\r\n        bool loanAccepted;\r\n        bool loanRepaid;\r\n    }\r\n\r\n    struct FunderTokens {\r\n      address _addressFunder;\r\n      uint _amount;\r\n      address _addressFunded;\r\n      uint idNFT;\r\n    }\r\n\r\n    // Array used to track Investor loans\r\n    FunderTokens[] public Investors;\r\n\r\n    // Array used to store Student data\r\n    StudentData[] public Students;\r\n\r\n    // Address where the tokens will be minted, in V2 this will change\r\n    address[] sendTokens ;\r\n\r\n    // Amount of tokens to mint for ERC1155 FT( Fungible Tokens)\r\n    uint[] valueSend = [100];\r\n\r\n    // Address of the Stablecoin, for now, DAI is supported\r\n    address stableCoinAddress ;\r\n\r\n    // Address to interact with ERC1155 token\r\n    ERC1155MixedFungibleMintable _token;\r\n\r\n    /*\r\n    * Modifiers\r\n    */\r\n\r\n    /**\r\n      @notice Modifier to check if the Student already request a loan,\r\n      amountDAI will never be 0 if the Student has requested a loan\r\n    */\r\n\r\n    modifier hasRequestedLoan(){\r\n        require( addressToLoan[msg.sender].amountDAI == 0,\r\n          \"User has already initiated a Loan process\");\r\n        _;\r\n    }\r\n\r\n    /**\r\n      @notice Modifier to check if the addressToFund has already a funded loan\r\n      @param _addressToFund Address of the Student to fund\r\n    */\r\n\r\n    modifier hasFundedLoan(address _addressToFund){\r\n      require( addressToLoan[_addressToFund].loanFunded == false\r\n        && addressToLoan[_addressToFund].endDate != 0\r\n        , \"User has already a funded loan\");\r\n      _;\r\n    }\r\n\r\n    /**\r\n    @notice Modifier to check if a student has a pending loan\r\n    */\r\n\r\n    modifier hasActiveLoan(){\r\n      require(studentHasLoan[msg.sender] == true,\r\n        \"This address doesn't have a loan associated\");\r\n      _;\r\n    }\r\n\r\n    /**\r\n      @notice Modifier to check if the msg.sender is an approved school\r\n      @param _addressFunded Address of the Student to fund\r\n      @dev School can only be added by the contract Owner to avoid misbehavior\r\n    */\r\n\r\n    modifier onlySchool(address _addressFunded){\r\n      require( addressToUniversity[addressToData[_addressFunded].university] == msg.sender,\r\n        \"The sender is not an approved school\");\r\n        _;\r\n    }\r\n\r\n    /**\r\n     * Functions\r\n     */\r\n\r\n    constructor(\r\n      address _stableCoinAddress,\r\n      ERC1155MixedFungibleMintable _tokenIERC1155\r\n      )\r\n      public\r\n      {\r\n      // Contract address of the stableCoin\r\n        stableCoinAddress = _stableCoinAddress;\r\n      // Contract address of the ERC1155 token\r\n        _token = _tokenIERC1155;\r\n      // Address of the owner of NFT and FT at creation stage\r\n        sendTokens.push(msg.sender);\r\n    }\r\n\r\n    /**\r\n      @notice Function used to upgrade the contract address of DAI in case it changes\r\n      @param _addressCoin Address of the StableCoin Contract\r\n    */\r\n    function setStableCoinAddress(address _addressCoin) public onlyOwner{\r\n        stableCoinAddress = _addressCoin;\r\n    }\r\n\r\n    /**\r\n      @notice Function used to add the Student\r\n      @param _addressStudent Address of the Student to add\r\n      @param _studentId Id of the student\r\n      @param _name Name of the Student\r\n      @param _age Age of the Student\r\n      @param _country Country of the Student\r\n      @param _profAccount Github account of the Student\r\n      @param _university University in which the Student is attending to\r\n      @param _uri Used to store the JSON with the data of the Student\r\n    */\r\n    function addStudent(\r\n      address _addressStudent,\r\n      uint _studentId,\r\n      string memory _name,\r\n      uint _age,\r\n      string memory _country,\r\n      string memory _profAccount,\r\n      string memory _university,\r\n      string memory _uri\r\n    )\r\n      public\r\n    {\r\n\r\n        require(bytes(addressToData[_addressStudent].name).length == 0,\r\n        \"An address can only have one Student associated\");\r\n\r\n        require(addressToUniversity[_university] != address(0),\r\n        \"University hasn't been added yet\");\r\n\r\n        require(msg.sender == addressToUniversity[_university],\r\n           \"Sender is not a registered university\");\r\n\r\n        // Mint NFT ( Non-Fungible Token )\r\n        uint _type = _token.create(_uri, true);\r\n        // Send tokens to owner\r\n        _token.mintNonFungible(_type, sendTokens);\r\n        // Mint FT ( Fungible Token)\r\n        uint _id = _token.create(_uri, false);\r\n        // Send tokens to owner\r\n        _token.mintFungible(_id, sendTokens, valueSend );\r\n\r\n        //Updae the mapping\r\n        addressToData[_addressStudent] = StudentData(\r\n          _addressStudent,\r\n          _studentId,\r\n          _name,\r\n          _age,\r\n          _country,\r\n          _university,\r\n          _profAccount,\r\n          _type\r\n          );\r\n\r\n        // Push the data to the array\r\n        Students.push(StudentData(\r\n          _addressStudent,\r\n          _studentId,\r\n          _name,\r\n          _age,\r\n          _country,\r\n          _university,\r\n          _profAccount,\r\n          _type));\r\n\r\n        // Trigger event\r\n        emit studentCreated(\r\n          _addressStudent,\r\n          _studentId,\r\n          _name,\r\n          _age,\r\n          _country,\r\n          _profAccount,\r\n          _university\r\n          );\r\n    }\r\n\r\n    /**\r\n      @notice Function used to add the school, only the owner can add school, to prevent misbehavior\r\n      @param _addressSchool Ethereum address of the school\r\n      @param _universityName Name of the university to add\r\n    */\r\n    function addSchool(\r\n      address _addressSchool,\r\n      string memory _universityName\r\n      )\r\n      public onlyOwner{\r\n        require(addressToUniversity[_universityName] == address(0),\r\n        \"University already registered\");\r\n        // Set address of the school\r\n        addressToUniversity[_universityName] = _addressSchool;\r\n    }\r\n\r\n    /**\r\n      @notice Function used to initiate a Loan process and get funded\r\n      @param _interestLoan Interest rate the student is willing to pay\r\n      @dev For this usecase the Student can request a fixed amount of 10000 DAI\r\n           and have a deadline of 5 years to repay the Loan\r\n    */\r\n    function requestLoan( uint _interestLoan) public hasRequestedLoan{\r\n\r\n        //Check if the Student has been added before letting him request a loan\r\n        require(bytes(addressToData[msg.sender].name).length != 0,\r\n        \"Student hasn't been added yet\");\r\n        /*  This version will use a fixed value of 10k for the amount of loan to\r\n            request, the loan has a deadline of 5 years */\r\n        addressToLoan[msg.sender] = StudentLoan(\r\n            10000,\r\n            _interestLoan,\r\n            0,\r\n            now,\r\n            now.addYears(5),\r\n            false,\r\n            false,\r\n            false\r\n        );\r\n        // Instantiate the mapping to 0\r\n        addressToBalance[msg.sender] = 0;\r\n        // When requesting a loan, the School hasn't accept it yet\r\n        studentHasLoan[msg.sender] = false;\r\n        // Instantiate the mapping\r\n        addressToRepaid[msg.sender] = 0;\r\n        //Instantiate the Mapping\r\n        addressToInvestor[msg.sender] = 0;\r\n\r\n    }\r\n\r\n    /**\r\n      @notice Function used to add money to the pool for the Student\r\n      @param _addressToFund Address of the user to be funded\r\n      @dev Each token costs 100 DAI and each token represents a share of the loan\r\n\r\n    */\r\n    function addMoneyPool(address _addressToFund) public hasFundedLoan(_addressToFund){\r\n\r\n      require(_addressToFund != address(0), \"Address 0 given\");\r\n      ERC20 stableCoinContract = ERC20(stableCoinAddress);\r\n      // Check the allowance given to the contract\r\n      uint tokenAmount = stableCoinContract.allowance(msg.sender, address(this));\r\n      require(tokenAmount >= (addressToLoan[_addressToFund].amountDAI).div(100)\r\n        && ( tokenAmount % 100 ) == 0 ,\r\n        \"The amount sent must be a multiplier of 100. Each token costs 100 DAI\");\r\n\r\n      // In case the investor sends exactly 10K, the loan will be funded\r\n      if( tokenAmount == 10000 ){\r\n        // Update shares of the Investor\r\n         tokensToValue[msg.sender][addressToData[_addressToFund].idNFT] += tokenAmount.div(100);\r\n         // Populate the array\r\n         Investors.push(FunderTokens(\r\n           msg.sender,\r\n           10000,\r\n           _addressToFund,\r\n           addressToData[_addressToFund].idNFT\r\n          ));\r\n         // Add the amount funded to the mapping\r\n         addressToBalance[_addressToFund] += tokenAmount;\r\n         // Transfer DAI to the contract\r\n         stableCoinContract.transferFrom(msg.sender, address(this), tokenAmount);\r\n         // Set true to loan funded, it's used to track stage of loan\r\n         addressToLoan[_addressToFund].loanFunded = true;\r\n         // AddressToBalance will have 10k when the loan has been funded\r\n         addressToBalance[_addressToFund] +=10000 - addressToBalance[_addressToFund];\r\n         // Instantiate with an initial value of 10K as that's the amount of the loan\r\n         addressToInvestor[_addressToFund] = 10000;\r\n      }\r\n      // If the investor sends more than the MAX_CAP which is 10K\r\n      else if( tokenAmount >= 10000 - addressToBalance[_addressToFund] ){\r\n        /* Since each token costs 100 DAI, and the allowance is higher than\r\n          10000 - addressToBalnce[_addressToFund] only the difference will be\r\n          sent to the contract */\r\n        tokensToValue[msg.sender][addressToData[_addressToFund].idNFT] +=\r\n        (10000 - addressToBalance[_addressToFund]).div(100);\r\n        // Insert values in array\r\n        Investors.push(FunderTokens(\r\n          msg.sender,\r\n          tokenAmount.div(100),\r\n          _addressToFund,\r\n          addressToData[_addressToFund].idNFT\r\n        ));\r\n        // Transfer tokens to the contract\r\n        stableCoinContract.transferFrom(\r\n          msg.sender,\r\n          address(this),\r\n          10000 - addressToBalance[_addressToFund]\r\n          );\r\n        // Set true to loan funded, it's used to track stage of loan\r\n        addressToLoan[_addressToFund].loanFunded = true;\r\n        // AddressToBalance will have 10k when the loan has been funded\r\n        addressToBalance[_addressToFund] += 10000 - addressToBalance[_addressToFund];\r\n        // Instantiate with an initial value of 10K as that's the amount of the loan\r\n        addressToInvestor[_addressToFund] = 10000;\r\n\r\n      }\r\n      // Sends a random amount not higher than value in addressToBalance[_addressToFund]\r\n      else{\r\n     // Update shares of the Investor\r\n      tokensToValue[msg.sender][addressToData[_addressToFund].idNFT] += tokenAmount.div(100);\r\n      Investors.push(FunderTokens(\r\n          msg.sender,\r\n          10000 - addressToBalance[_addressToFund].div(100),\r\n          _addressToFund,\r\n          addressToData[_addressToFund].idNFT\r\n      ));\r\n      // Add the amount funded to the mapping\r\n      addressToBalance[_addressToFund] += tokenAmount;\r\n      // Transfer DAI to the contract\r\n      stableCoinContract.transferFrom(msg.sender, address(this), tokenAmount);\r\n    }\r\n    }\r\n\r\n    /**\r\n      @notice Function to withdraw the loan of the Student\r\n      @param _amount Amount the user is willing to withdraw\r\n    */\r\n    function withdrawLoan(uint _amount) public{\r\n      require(addressToLoan[msg.sender].loanAccepted == true,\r\n        \"Loan was not funded/accepted\");\r\n      require(_amount < addressToBalance[msg.sender]\r\n        || addressToBalance[msg.sender] != 0,\r\n        \"You are trying to withdraw a higher amount\");\r\n      ERC20 stableCoinContract = ERC20(stableCoinAddress);\r\n      // Transfer the tokens to the school\r\n      stableCoinContract.transfer(\r\n        addressToUniversity[addressToData[msg.sender].university],\r\n        _amount\r\n        );\r\n      // Reduce amount of DAI from the mapping\r\n      addressToBalance[msg.sender] -= _amount;\r\n    }\r\n\r\n    /**\r\n      @notice Function to accept the proposed loan\r\n      @param _addressFunded Address of the funded student \r\n    */\r\n\r\n    function acceptLoan(address _addressFunded) public onlySchool(_addressFunded){\r\n      require(addressToLoan[_addressFunded].loanFunded == true,\r\n        \"Loan has not been funded completely\");\r\n      // Set loan as accepted\r\n      addressToLoan[_addressFunded].loanAccepted = true;\r\n      // Student has been accepted so he has an outstanding loan\r\n      studentHasLoan[_addressFunded] = true;\r\n    }\r\n\r\n    /**\r\n      @notice Function used by the Student to repay the Loan\r\n      @dev First you need to call an approve transaction\r\n    */\r\n\r\n    function repayLoan() public hasActiveLoan{\r\n\r\n        require(addressToLoan[msg.sender].loanRepaid == false,\r\n          \"Loan already repaid\");\r\n        ERC20 stableCoinContract = ERC20(stableCoinAddress);\r\n        // amount of DAI that will be used to repay the loan\r\n        uint tokenAmount = stableCoinContract.allowance(msg.sender, address(this));\r\n        // Transfer DAI to the contract\r\n        stableCoinContract.transferFrom(msg.sender, address(this), tokenAmount);\r\n        //Calculate Interest matured\r\n        _calculateInterest(tokenAmount);\r\n        // Check if the loan has been fully repaid\r\n        if(addressToRepaid[msg.sender] == 10000){\r\n          // Set loan repaid as true, Student hasn't got an outstanding loan anymore\r\n          addressToLoan[msg.sender].loanRepaid = true;\r\n          delete addressToLoan[msg.sender];\r\n          studentHasLoan[msg.sender] = false;\r\n        }\r\n    }\r\n\r\n    function _calculateInterest(uint tokenAmount) internal{\r\n      // Calculate the interest 10000 * ( interestLoan *100 * difference in days / 36500)\r\n      uint _interest = (\r\n        10000 * (addressToLoan[msg.sender].interestLoan.mul(100)).mul(addressToLoan[msg.sender].startDate.diffDays( now)) ).div(36500);\r\n      // Add tokenAmount to mapping\r\n      addressToRepaid[msg.sender] += tokenAmount.sub(_interest);\r\n      // Add interest to mapping\r\n      studentToInterest[msg.sender] = studentToInterest[msg.sender].add(_interest);\r\n    }\r\n\r\n    /**\r\n      @notice Function for the Investors to withdraw their share\r\n      @param _addressFunded Address of the funded student\r\n    */\r\n    function withdrawRepaidLoan(address _addressFunded) public {\r\n\r\n            require( addressToLoan[_addressFunded].startDate.diffYears(now) > 4);\r\n            require( addressToLoan[_addressFunded].loanAccepted == true,\r\n              \"Loan was not funded/accepted\");\r\n            // When it reaches 10K, the loan is considered repaid\r\n            require( addressToRepaid[_addressFunded] == 10000,\r\n              \"Loan not fully funded\");\r\n            ERC20 stableCoinContract = ERC20(stableCoinAddress);\r\n            //Calculate share\r\n            uint share = _calculateRepayment(_addressFunded);\r\n            //ERC20 stableCoinContract = ERC20(stableCoinAddress);\r\n            stableCoinContract.transfer(msg.sender, share);\r\n    }\r\n\r\n    function _calculateRepayment(address _addressFunded) internal returns(uint amount) {\r\n      for(uint i = 0; i<Investors.length; i++){\r\n        if(Investors[i]._addressFunded == _addressFunded){\r\n          uint _tokenAmount = tokensToValue[msg.sender][Investors[i].idNFT];\r\n          // Calculate share of the loan.\r\n          uint share = (addressToRepaid[_addressFunded].mul(_tokenAmount)).div(100);\r\n          //Reduce token value\r\n          addressToInvestor[_addressFunded] -= share;\r\n          //Reduce amount of tokens\r\n          tokensToValue[msg.sender][Investors[i].idNFT] -= _tokenAmount;\r\n          // Calculate share of interest\r\n          amount = (studentToInterest[_addressFunded].mul(_tokenAmount)).div(100) + share;\r\n          // Reduce Interest\r\n          studentToInterest[_addressFunded] -= (\r\n            studentToInterest[_addressFunded].mul(_tokenAmount)).div(100);\r\n      }\r\n    }\r\n\r\n    }\r\n\r\n}\r\n",
  "sourcePath": "C:/Users/tredg/Providentia/contracts/Providentia.sol",
  "compiler": {
    "name": "solc",
    "version": "0.5.0+commit.1d4f565a.Emscripten.clang"
  },
  "schemaVersion": "3.0.11",
  "updatedAt": "2019-07-10T19:03:08.543Z",
  "devdoc": {
    "author": "https://github.com/Solexplorer\r Note: Some values are hardcoded in order to represent a specific usecase\r",
    "details": "See https://providentia.network/\r",
    "methods": {
      "acceptLoan(address)": {
        "params": {
          "_addressFunded": "Address of the funded student \r"
        }
      },
      "addMoneyPool(address)": {
        "details": "Each token costs 100 DAI and each token represents a share of the loan\r",
        "params": {
          "_addressToFund": "Address of the user to be funded\r"
        }
      },
      "addSchool(address,string)": {
        "params": {
          "_addressSchool": "Ethereum address of the school\r",
          "_universityName": "Name of the university to add\r"
        }
      },
      "addStudent(address,uint256,string,uint256,string,string,string,string)": {
        "params": {
          "_addressStudent": "Address of the Student to add\r",
          "_age": "Age of the Student\r",
          "_country": "Country of the Student\r",
          "_name": "Name of the Student\r",
          "_profAccount": "Github account of the Student\r",
          "_studentId": "Id of the student\r",
          "_university": "University in which the Student is attending to\r",
          "_uri": "Used to store the JSON with the data of the Student\r"
        }
      },
      "allowance(address,address)": {
        "details": "See `IERC20.allowance`."
      },
      "approve(address,uint256)": {
        "details": "See `IERC20.approve`.     * Requirements:     * - `spender` cannot be the zero address."
      },
      "balanceOf(address)": {
        "details": "See `IERC20.balanceOf`."
      },
      "decreaseAllowance(address,uint256)": {
        "details": "Atomically decreases the allowance granted to `spender` by the caller.     * This is an alternative to `approve` that can be used as a mitigation for problems described in `IERC20.approve`.     * Emits an `Approval` event indicating the updated allowance.     * Requirements:     * - `spender` cannot be the zero address. - `spender` must have allowance for the caller of at least `subtractedValue`."
      },
      "increaseAllowance(address,uint256)": {
        "details": "Atomically increases the allowance granted to `spender` by the caller.     * This is an alternative to `approve` that can be used as a mitigation for problems described in `IERC20.approve`.     * Emits an `Approval` event indicating the updated allowance.     * Requirements:     * - `spender` cannot be the zero address."
      },
      "isApprovedForAll(address,address)": {
        "params": {
          "_operator": "Address of authorized operator\r",
          "_owner": "The owner of the Tokens\r"
        },
        "return": "True if the operator is approved, false if not\r"
      },
      "isOwner()": {
        "return": "true if msg.sender is the owner of the contract.\r"
      },
      "owner()": {
        "return": "the address of the owner.\r"
      },
      "renounceOwnership()": {
        "details": "Allows the current owner to relinquish control of the contract.\r It will not be possible to call the functions with the onlyOwner\r modifier anymore.\r"
      },
      "repayLoan()": {
        "details": "First you need to call an approve transaction\r"
      },
      "requestLoan(uint256)": {
        "details": "For this usecase the Student can request a fixed amount of 10000 DAI\r and have a deadline of 5 years to repay the Loan\r",
        "params": {
          "_interestLoan": "Interest rate the student is willing to pay\r"
        }
      },
      "setApprovalForAll(address,bool)": {
        "details": "MUST emit the ApprovalForAll event on success.\r",
        "params": {
          "_approved": "True if the operator is approved, false to revoke approval\r",
          "_operator": "Address to add to the set of authorized operators\r"
        }
      },
      "setStableCoinAddress(address)": {
        "params": {
          "_addressCoin": "Address of the StableCoin Contract\r"
        }
      },
      "totalSupply()": {
        "details": "See `IERC20.totalSupply`."
      },
      "transfer(address,uint256)": {
        "details": "See `IERC20.transfer`.     * Requirements:     * - `recipient` cannot be the zero address. - the caller must have a balance of at least `amount`."
      },
      "transferFrom(address,address,uint256)": {
        "details": "See `IERC20.transferFrom`.     * Emits an `Approval` event indicating the updated allowance. This is not required by the EIP. See the note at the beginning of `ERC20`;     * Requirements: - `sender` and `recipient` cannot be the zero address. - `sender` must have a balance of at least `value`. - the caller must have allowance for `sender`'s tokens of at least `amount`."
      },
      "transferOwnership(address)": {
        "details": "Allows the current owner to transfer control of the contract to a newOwner.\r",
        "params": {
          "newOwner": "The address to transfer ownership to.\r"
        }
      },
      "withdrawLoan(uint256)": {
        "params": {
          "_amount": "Amount the user is willing to withdraw\r"
        }
      },
      "withdrawRepaidLoan(address)": {
        "params": {
          "_addressFunded": "Address of the funded student\r"
        }
      }
    },
    "title": "Providentia, providing students with loan\r"
  },
  "userdoc": {
    "methods": {
      "acceptLoan(address)": {
        "notice": "Function to accept the proposed loan\r"
      },
      "addMoneyPool(address)": {
        "notice": "Function used to add money to the pool for the Student\r"
      },
      "addSchool(address,string)": {
        "notice": "Function used to add the school, only the owner can add school, to prevent misbehavior\r"
      },
      "addStudent(address,uint256,string,uint256,string,string,string,string)": {
        "notice": "Function used to add the Student\r"
      },
      "constructor": "Functions\r",
      "isApprovedForAll(address,address)": {
        "notice": "Queries the approval status of an operator for a given owner.\r"
      },
      "renounceOwnership()": {
        "notice": "Renouncing ownership will leave the contract without an owner,\r thereby removing any functionality that is only available to the owner.\r"
      },
      "repayLoan()": {
        "notice": "Function used by the Student to repay the Loan\r"
      },
      "requestLoan(uint256)": {
        "notice": "Function used to initiate a Loan process and get funded\r"
      },
      "setApprovalForAll(address,bool)": {
        "notice": "Enable or disable approval for a third party (\"operator\") to manage all of the caller's tokens.\r"
      },
      "setStableCoinAddress(address)": {
        "notice": "Function used to upgrade the contract address of DAI in case it changes\r"
      },
      "withdrawLoan(uint256)": {
        "notice": "Function to withdraw the loan of the Student\r"
      },
      "withdrawRepaidLoan(address)": {
        "notice": "Function for the Investors to withdraw their share\r"
      }
    }
  }
}