{
  "contractName": "ProxyReceiverStorage_002_ERCXXXXFuture",
  "abi": [
    {
      "constant": true,
      "inputs": [],
      "name": "shouldReject",
      "outputs": [
        {
          "name": "",
          "type": "bool"
        }
      ],
      "payable": false,
      "stateMutability": "view",
      "type": "function"
    },
    {
      "constant": true,
      "inputs": [],
      "name": "shouldRejectXXXX",
      "outputs": [
        {
          "name": "",
          "type": "bool"
        }
      ],
      "payable": false,
      "stateMutability": "view",
      "type": "function"
    },
    {
      "constant": true,
      "inputs": [
        {
          "name": "",
          "type": "bytes4"
        }
      ],
      "name": "delegates",
      "outputs": [
        {
          "name": "",
          "type": "address"
        }
      ],
      "payable": false,
      "stateMutability": "view",
      "type": "function"
    }
  ],
  "bytecode": "0x608060405234801561001057600080fd5b506101a5806100206000396000f3fe6080604052600436106100565763ffffffff7c01000000000000000000000000000000000000000000000000000000006000350416631dbb9381811461005b57806391ad57bd14610084578063a0a2daf014610099575b600080fd5b34801561006757600080fd5b5061007061010e565b604080519115158252519081900360200190f35b34801561009057600080fd5b5061007061012f565b3480156100a557600080fd5b506100e5600480360360208110156100bc57600080fd5b50357fffffffff0000000000000000000000000000000000000000000000000000000016610151565b6040805173ffffffffffffffffffffffffffffffffffffffff9092168252519081900360200190f35b60035474010000000000000000000000000000000000000000900460ff1681565b6003547501000000000000000000000000000000000000000000900460ff1681565b60006020819052908152604090205473ffffffffffffffffffffffffffffffffffffffff168156fea165627a7a72305820343aa666ff1ffe6aae8bc6540fe3e075fef9858357a2495207ddc339f621be360029",
  "source": "pragma solidity ^0.5.0;\r\n\r\nimport \"../ProxyBaseStorage.sol\";\r\n\r\n///////////////////////////////////////////////////////////////////////////////////////////////////\r\n/**\r\n * @title DelegatesStorage\r\n * @dev Defining storage inheritance for the delegate contract(s).\r\n *      Note:   This is not the only way to define your storage, DYOR.\r\n */\r\n///////////////////////////////////////////////////////////////////////////////////////////////////\r\n\r\ncontract ProxyReceiverStorage_001_ERC1155MockReceiver is ProxyBaseStorage {\r\n\r\n    //////////////////////////////////////////// VARS /////////////////////////////////////////////\r\n\r\n    // Note: if you alter these values in another delegate impl it affects this too\r\n    bool public shouldReject;\r\n\r\n    ///////////////////////////////////////////////////////////////////////////////////////////////\r\n\r\n}\r\n\r\n///////////////////////////////////////////////////////////////////////////////////////////////////\r\n\r\ncontract ProxyReceiverStorage_002_ERCXXXXFuture is ProxyReceiverStorage_001_ERC1155MockReceiver {\r\n\r\n    //////////////////////////////////////////// VARS /////////////////////////////////////////////\r\n\r\n    bool public shouldRejectXXXX; // var renamed to be specific to prevent clash with parent data version\r\n\r\n    ///////////////////////////////////////////////////////////////////////////////////////////////\r\n\r\n}\r\n\r\n///////////////////////////////////////////////////////////////////////////////////////////////////",
  "sourcePath": "C:\\Users\\tredg\\Providentia\\contracts\\ProxyReceiver\\Delegates\\DelegatesStorage.sol",
  "compiler": {
    "name": "solc",
    "version": "0.5.0+commit.1d4f565a.Emscripten.clang"
  },
  "schemaVersion": "3.0.11",
  "updatedAt": "2019-07-10T18:36:53.863Z",
  "devdoc": {
    "methods": {}
  },
  "userdoc": {
    "methods": {},
    "notice": "////////////////////////////////////////////////////////////////////////////////////////////////"
  }
}