{
  "contractName": "StudentToken",
  "abi": [
    {
      "constant": true,
      "inputs": [
        {
          "name": "_owner",
          "type": "address"
        },
        {
          "name": "_id",
          "type": "uint256"
        }
      ],
      "name": "balanceOf",
      "outputs": [
        {
          "name": "",
          "type": "uint256"
        }
      ],
      "payable": false,
      "stateMutability": "view",
      "type": "function"
    },
    {
      "constant": true,
      "inputs": [
        {
          "name": "_interfaceId",
          "type": "bytes4"
        }
      ],
      "name": "supportsInterface",
      "outputs": [
        {
          "name": "",
          "type": "bool"
        }
      ],
      "payable": false,
      "stateMutability": "view",
      "type": "function"
    },
    {
      "constant": true,
      "inputs": [
        {
          "name": "",
          "type": "uint256"
        }
      ],
      "name": "maxIndex",
      "outputs": [
        {
          "name": "",
          "type": "uint256"
        }
      ],
      "payable": false,
      "stateMutability": "view",
      "type": "function"
    },
    {
      "constant": false,
      "inputs": [
        {
          "name": "_from",
          "type": "address"
        },
        {
          "name": "_to",
          "type": "address"
        },
        {
          "name": "_ids",
          "type": "uint256[]"
        },
        {
          "name": "_values",
          "type": "uint256[]"
        },
        {
          "name": "_data",
          "type": "bytes"
        }
      ],
      "name": "safeBatchTransferFrom",
      "outputs": [],
      "payable": false,
      "stateMutability": "nonpayable",
      "type": "function"
    },
    {
      "constant": true,
      "inputs": [
        {
          "name": "_owners",
          "type": "address[]"
        },
        {
          "name": "_ids",
          "type": "uint256[]"
        }
      ],
      "name": "balanceOfBatch",
      "outputs": [
        {
          "name": "",
          "type": "uint256[]"
        }
      ],
      "payable": false,
      "stateMutability": "view",
      "type": "function"
    },
    {
      "constant": true,
      "inputs": [
        {
          "name": "_id",
          "type": "uint256"
        }
      ],
      "name": "isNonFungibleItem",
      "outputs": [
        {
          "name": "",
          "type": "bool"
        }
      ],
      "payable": false,
      "stateMutability": "pure",
      "type": "function"
    },
    {
      "constant": true,
      "inputs": [
        {
          "name": "_id",
          "type": "uint256"
        }
      ],
      "name": "ownerOf",
      "outputs": [
        {
          "name": "",
          "type": "address"
        }
      ],
      "payable": false,
      "stateMutability": "view",
      "type": "function"
    },
    {
      "constant": true,
      "inputs": [
        {
          "name": "_id",
          "type": "uint256"
        }
      ],
      "name": "getNonFungibleBaseType",
      "outputs": [
        {
          "name": "",
          "type": "uint256"
        }
      ],
      "payable": false,
      "stateMutability": "pure",
      "type": "function"
    },
    {
      "constant": true,
      "inputs": [
        {
          "name": "_id",
          "type": "uint256"
        }
      ],
      "name": "isNonFungibleBaseType",
      "outputs": [
        {
          "name": "",
          "type": "bool"
        }
      ],
      "payable": false,
      "stateMutability": "pure",
      "type": "function"
    },
    {
      "constant": false,
      "inputs": [
        {
          "name": "_id",
          "type": "uint256"
        },
        {
          "name": "_to",
          "type": "address[]"
        },
        {
          "name": "_quantities",
          "type": "uint256[]"
        }
      ],
      "name": "mintFungible",
      "outputs": [],
      "payable": false,
      "stateMutability": "nonpayable",
      "type": "function"
    },
    {
      "constant": true,
      "inputs": [
        {
          "name": "_id",
          "type": "uint256"
        }
      ],
      "name": "getNonFungibleIndex",
      "outputs": [
        {
          "name": "",
          "type": "uint256"
        }
      ],
      "payable": false,
      "stateMutability": "pure",
      "type": "function"
    },
    {
      "constant": false,
      "inputs": [
        {
          "name": "_operator",
          "type": "address"
        },
        {
          "name": "_approved",
          "type": "bool"
        }
      ],
      "name": "setApprovalForAll",
      "outputs": [],
      "payable": false,
      "stateMutability": "nonpayable",
      "type": "function"
    },
    {
      "constant": true,
      "inputs": [
        {
          "name": "_id",
          "type": "uint256"
        }
      ],
      "name": "isFungible",
      "outputs": [
        {
          "name": "",
          "type": "bool"
        }
      ],
      "payable": false,
      "stateMutability": "pure",
      "type": "function"
    },
    {
      "constant": false,
      "inputs": [
        {
          "name": "_uri",
          "type": "string"
        },
        {
          "name": "_isNF",
          "type": "bool"
        }
      ],
      "name": "create",
      "outputs": [
        {
          "name": "_type",
          "type": "uint256"
        }
      ],
      "payable": false,
      "stateMutability": "nonpayable",
      "type": "function"
    },
    {
      "constant": true,
      "inputs": [
        {
          "name": "",
          "type": "uint256"
        }
      ],
      "name": "creators",
      "outputs": [
        {
          "name": "",
          "type": "address"
        }
      ],
      "payable": false,
      "stateMutability": "view",
      "type": "function"
    },
    {
      "constant": true,
      "inputs": [
        {
          "name": "_id",
          "type": "uint256"
        }
      ],
      "name": "isNonFungible",
      "outputs": [
        {
          "name": "",
          "type": "bool"
        }
      ],
      "payable": false,
      "stateMutability": "pure",
      "type": "function"
    },
    {
      "constant": true,
      "inputs": [
        {
          "name": "_owner",
          "type": "address"
        },
        {
          "name": "_operator",
          "type": "address"
        }
      ],
      "name": "isApprovedForAll",
      "outputs": [
        {
          "name": "",
          "type": "bool"
        }
      ],
      "payable": false,
      "stateMutability": "view",
      "type": "function"
    },
    {
      "constant": false,
      "inputs": [
        {
          "name": "_from",
          "type": "address"
        },
        {
          "name": "_to",
          "type": "address"
        },
        {
          "name": "_id",
          "type": "uint256"
        },
        {
          "name": "_value",
          "type": "uint256"
        },
        {
          "name": "_data",
          "type": "bytes"
        }
      ],
      "name": "safeTransferFrom",
      "outputs": [],
      "payable": false,
      "stateMutability": "nonpayable",
      "type": "function"
    },
    {
      "constant": false,
      "inputs": [
        {
          "name": "_type",
          "type": "uint256"
        },
        {
          "name": "_to",
          "type": "address[]"
        }
      ],
      "name": "mintNonFungible",
      "outputs": [],
      "payable": false,
      "stateMutability": "nonpayable",
      "type": "function"
    },
    {
      "inputs": [],
      "payable": false,
      "stateMutability": "nonpayable",
      "type": "constructor"
    },
    {
      "anonymous": false,
      "inputs": [
        {
          "indexed": true,
          "name": "_operator",
          "type": "address"
        },
        {
          "indexed": true,
          "name": "_from",
          "type": "address"
        },
        {
          "indexed": true,
          "name": "_to",
          "type": "address"
        },
        {
          "indexed": false,
          "name": "_id",
          "type": "uint256"
        },
        {
          "indexed": false,
          "name": "_value",
          "type": "uint256"
        }
      ],
      "name": "TransferSingle",
      "type": "event"
    },
    {
      "anonymous": false,
      "inputs": [
        {
          "indexed": true,
          "name": "_operator",
          "type": "address"
        },
        {
          "indexed": true,
          "name": "_from",
          "type": "address"
        },
        {
          "indexed": true,
          "name": "_to",
          "type": "address"
        },
        {
          "indexed": false,
          "name": "_ids",
          "type": "uint256[]"
        },
        {
          "indexed": false,
          "name": "_values",
          "type": "uint256[]"
        }
      ],
      "name": "TransferBatch",
      "type": "event"
    },
    {
      "anonymous": false,
      "inputs": [
        {
          "indexed": true,
          "name": "_owner",
          "type": "address"
        },
        {
          "indexed": true,
          "name": "_operator",
          "type": "address"
        },
        {
          "indexed": false,
          "name": "_approved",
          "type": "bool"
        }
      ],
      "name": "ApprovalForAll",
      "type": "event"
    },
    {
      "anonymous": false,
      "inputs": [
        {
          "indexed": false,
          "name": "_value",
          "type": "string"
        },
        {
          "indexed": true,
          "name": "_id",
          "type": "uint256"
        }
      ],
      "name": "URI",
      "type": "event"
    }
  ],
  "bytecode": "0x608060405234801561001057600080fd5b50611e5d806100206000396000f3fe6080604052600436106101055763ffffffff7c0100000000000000000000000000000000000000000000000000000000600035041662fdd58e811461010a57806301ffc9a71461015557806308d7d469146101b55780632eb2c2d6146101df5780634e1273f41461031b5780635e81b9581461043a5780636352211e146104645780636f969c2d146104aa5780637269a327146104d457806378b27221146104fe5780639cca1c64146105d4578063a22cb465146105fe578063adebf6f214610639578063cc10e40114610663578063cd53d08e146106e2578063e44591f01461070c578063e985e9c514610736578063f242432a14610771578063f941908814610813575b600080fd5b34801561011657600080fd5b506101436004803603604081101561012d57600080fd5b50600160a060020a038135169060200135610897565b60408051918252519081900360200190f35b34801561016157600080fd5b506101a16004803603602081101561017857600080fd5b50357fffffffff0000000000000000000000000000000000000000000000000000000016610905565b604080519115158252519081900360200190f35b3480156101c157600080fd5b50610143600480360360208110156101d857600080fd5b50356109ae565b3480156101eb57600080fd5b50610319600480360360a081101561020257600080fd5b600160a060020a03823581169260208101359091169181019060608101604082013564010000000081111561023657600080fd5b82018360208201111561024857600080fd5b8035906020019184602083028401116401000000008311171561026a57600080fd5b91939092909160208101903564010000000081111561028857600080fd5b82018360208201111561029a57600080fd5b803590602001918460208302840111640100000000831117156102bc57600080fd5b9193909290916020810190356401000000008111156102da57600080fd5b8201836020820111156102ec57600080fd5b8035906020019184600183028401116401000000008311171561030e57600080fd5b5090925090506109c0565b005b34801561032757600080fd5b506103ea6004803603604081101561033e57600080fd5b81019060208101813564010000000081111561035957600080fd5b82018360208201111561036b57600080fd5b8035906020019184602083028401116401000000008311171561038d57600080fd5b9193909290916020810190356401000000008111156103ab57600080fd5b8201836020820111156103bd57600080fd5b803590602001918460208302840111640100000000831117156103df57600080fd5b509092509050610e73565b60408051602080825283518183015283519192839290830191858101910280838360005b8381101561042657818101518382015260200161040e565b505050509050019250505060405180910390f35b34801561044657600080fd5b506101a16004803603602081101561045d57600080fd5b5035610fbe565b34801561047057600080fd5b5061048e6004803603602081101561048757600080fd5b5035611004565b60408051600160a060020a039092168252519081900360200190f35b3480156104b657600080fd5b50610143600480360360208110156104cd57600080fd5b503561101f565b3480156104e057600080fd5b506101a1600480360360208110156104f757600080fd5b5035611044565b34801561050a57600080fd5b506103196004803603606081101561052157600080fd5b8135919081019060408101602082013564010000000081111561054357600080fd5b82018360208201111561055557600080fd5b8035906020019184602083028401116401000000008311171561057757600080fd5b91939092909160208101903564010000000081111561059557600080fd5b8201836020820111156105a757600080fd5b803590602001918460208302840111640100000000831117156105c957600080fd5b509092509050611089565b3480156105e057600080fd5b50610143600480360360208110156105f757600080fd5b50356111df565b34801561060a57600080fd5b506103196004803603604081101561062157600080fd5b50600160a060020a03813516906020013515156111f4565b34801561064557600080fd5b506101a16004803603602081101561065c57600080fd5b5035611262565b34801561066f57600080fd5b506101436004803603604081101561068657600080fd5b8101906020810181356401000000008111156106a157600080fd5b8201836020820111156106b357600080fd5b803590602001918460018302840111640100000000831117156106d557600080fd5b9193509150351515611288565b3480156106ee57600080fd5b5061048e6004803603602081101561070557600080fd5b50356113ab565b34801561071857600080fd5b506101a16004803603602081101561072f57600080fd5b50356113c6565b34801561074257600080fd5b506101a16004803603604081101561075957600080fd5b50600160a060020a03813581169160200135166113ee565b34801561077d57600080fd5b50610319600480360360a081101561079457600080fd5b600160a060020a03823581169260208101359091169160408201359160608101359181019060a0810160808201356401000000008111156107d457600080fd5b8201836020820111156107e657600080fd5b8035906020019184600183028401116401000000008311171561080857600080fd5b50909250905061141c565b34801561081f57600080fd5b506103196004803603604081101561083657600080fd5b8135919081019060408101602082013564010000000081111561085857600080fd5b82018360208201111561086a57600080fd5b8035906020019184602083028401116401000000008311171561088c57600080fd5b509092509050611719565b60006108a282610fbe565b156108dc57600082815260026020526040902054600160a060020a038481169116146108cf5760006108d2565b60015b60ff1690506108ff565b50600081815260208181526040808320600160a060020a03861684529091529020545b92915050565b60007fffffffff0000000000000000000000000000000000000000000000000000000082167f01ffc9a700000000000000000000000000000000000000000000000000000000148061099857507fffffffff0000000000000000000000000000000000000000000000000000000082167fd9b67a2600000000000000000000000000000000000000000000000000000000145b156109a5575060016109a9565b5060005b919050565b60056020526000908152604090205481565b600160a060020a0387161515610a3757604080517f08c379a000000000000000000000000000000000000000000000000000000000815260206004820152601b60248201527f63616e6e6f742073656e6420746f207a65726f20616464726573730000000000604482015290519081900360640190fd5b848314610aa557604080517f08c379a000000000000000000000000000000000000000000000000000000000815260206004820152601760248201527f4172726179206c656e677468206d757374206d61746368000000000000000000604482015290519081900360640190fd5b600160a060020a038816331480610ae35750600160a060020a03881660009081526001602081815260408084203385529091529091205460ff161515145b1515610b7657604080517f08c379a000000000000000000000000000000000000000000000000000000000815260206004820152602f60248201527f4e656564206f70657261746f7220617070726f76616c20666f7220337264207060448201527f61727479207472616e73666572732e0000000000000000000000000000000000606482015290519081900360840190fd5b60005b85811015610cfc576000878783818110610b8f57fe5b90506020020135905060008686848181101515610ba857fe5b905060200201359050610bba826113c6565b15610c1e57600082815260026020526040902054600160a060020a038c8116911614610be557600080fd5b6000828152600260205260409020805473ffffffffffffffffffffffffffffffffffffffff1916600160a060020a038c16179055610cf2565b600082815260208181526040808320600160a060020a038f168452909152902054610c4f908263ffffffff61186c16565b60008084815260200190815260200160002060008d600160a060020a0316600160a060020a0316815260200190815260200160002081905550610cd060008084815260200190815260200160002060008c600160a060020a0316600160a060020a0316815260200190815260200160002054826118e390919063ffffffff16565b600083815260208181526040808320600160a060020a038f1684529091529020555b5050600101610b79565b5086600160a060020a031688600160a060020a031633600160a060020a03167f4a39dc06d4c0dbc64b70af90fd698a233a518aa5d07e595d983b8c0526c8f7fb898989896040518080602001806020018381038352878782818152602001925060200280828437600083820152601f01601f19169091018481038352858152602090810191508690860280828437600083820152604051601f909101601f19169092018290039850909650505050505050a4610dc087600160a060020a0316611957565b15610e6957610e6933898989898080602002602001604051908101604052809392919081815260200183836020028082843760009201919091525050604080516020808d0282810182019093528c82529093508c92508b91829185019084908082843760009201919091525050604080516020601f8c018190048102820181019092528a815292508a915089908190840183828082843760009201919091525061195f92505050565b5050505050505050565b6060838214610e8157600080fd5b604080518581526020808702820101909152606090858015610ead578160200160208202803883390190505b50905060005b85811015610fb4576000858583818110610ec957fe5b905060200201359050610edb81610fbe565b15610f4657878783818110610eec57fe5b60008481526002602090815260409091205491029290920135600160a060020a039081169216919091149050610f23576000610f26565b60015b60ff168383815181101515610f3757fe5b60209081029091010152610fab565b600081815260208190526040812090898985818110610f6157fe5b90506020020135600160a060020a0316600160a060020a0316600160a060020a03168152602001908152602001600020548383815181101515610fa057fe5b602090810290910101525b50600101610eb3565b5095945050505050565b60007f80000000000000000000000000000000000000000000000000000000000000008083161480156108ff5750506fffffffffffffffffffffffffffffffff16151590565b600090815260026020526040902054600160a060020a031690565b7fffffffffffffffffffffffffffffffff000000000000000000000000000000001690565b60007f80000000000000000000000000000000000000000000000000000000000000008083161480156108ff5750506fffffffffffffffffffffffffffffffff161590565b6000858152600460205260409020548590600160a060020a031633146110ae57600080fd5b6110b786611262565b15156110c257600080fd5b60005b848110156111d65760008686838181106110db57fe5b90506020020135600160a060020a03169050600085858481811015156110fd57fe5b60008c815260208181526040808320600160a060020a03891684528252909120549102929092013592506111399183915063ffffffff6118e316565b60008a815260208181526040808320600160a060020a0387168085529083528184209490945580518d8152918201859052805133927fc3d58168c5ae7397731d063d5bbf3d657854427343f4c083240f7aacaa2d0f6292908290030190a46111a982600160a060020a0316611957565b156111cc576111cc3333848c856020604051908101604052806000815250611c06565b50506001016110c5565b50505050505050565b6fffffffffffffffffffffffffffffffff1690565b336000818152600160209081526040808320600160a060020a03871680855290835292819020805460ff1916861515908117909155815190815290519293927f17307eab39ab6107e8899845ad3d59bd9653f200f220920489ca2b5937696c31929181900390910190a35050565b7f8000000000000000000000000000000000000000000000000000000000000000161590565b60038054600101908190557001000000000000000000000000000000000281156112cf577f8000000000000000000000000000000000000000000000000000000000000000175b6000818152600460209081526040808320805473ffffffffffffffffffffffffffffffffffffffff19163390811790915581518581529283018490528151849391927fc3d58168c5ae7397731d063d5bbf3d657854427343f4c083240f7aacaa2d0f62928290030190a460008311156113a457807f6bb7ff708619ba0610cba295a58592e0451dee2622938c8755667688daf3529b858560405180806020018281038252848482818152602001925080828437600083820152604051601f909101601f19169092018290039550909350505050a25b9392505050565b600460205260009081526040902054600160a060020a031681565b7f80000000000000000000000000000000000000000000000000000000000000009081161490565b600160a060020a03918216600090815260016020908152604080832093909416825291909152205460ff1690565b600160a060020a038516151561149357604080517f08c379a000000000000000000000000000000000000000000000000000000000815260206004820152601b60248201527f63616e6e6f742073656e6420746f207a65726f20616464726573730000000000604482015290519081900360640190fd5b600160a060020a0386163314806114d15750600160a060020a03861660009081526001602081815260408084203385529091529091205460ff161515145b151561156457604080517f08c379a000000000000000000000000000000000000000000000000000000000815260206004820152602f60248201527f4e656564206f70657261746f7220617070726f76616c20666f7220337264207060448201527f61727479207472616e73666572732e0000000000000000000000000000000000606482015290519081900360840190fd5b61156d846113c6565b156115d157600084815260026020526040902054600160a060020a0387811691161461159857600080fd5b6000848152600260205260409020805473ffffffffffffffffffffffffffffffffffffffff1916600160a060020a038716179055611659565b600084815260208181526040808320600160a060020a038a168452909152902054611602908463ffffffff61186c16565b600085815260208181526040808320600160a060020a038b8116855292528083209390935587168152205461163790846118e3565b600085815260208181526040808320600160a060020a038a1684529091529020555b84600160a060020a031686600160a060020a031633600160a060020a03167fc3d58168c5ae7397731d063d5bbf3d657854427343f4c083240f7aacaa2d0f628787604051808381526020018281526020019250505060405180910390a46116c885600160a060020a0316611957565b1561171157611711338787878787878080601f016020809104026020016040519081016040528093929190818152602001838380828437600092019190915250611c0692505050565b505050505050565b6000838152600460205260409020548390600160a060020a0316331461173e57600080fd5b611747846113c6565b151561175257600080fd5b600084815260056020526040902054600181019061177790849063ffffffff6118e316565b6000868152600560205260408120919091555b838110156117115760008585838181106117a057fe5b8486018a17600081815260026020908152604080832080549583029790970135600160a060020a031673ffffffffffffffffffffffffffffffffffffffff199095168517909655855183815260019181019190915285519396509194869450909233927fc3d58168c5ae7397731d063d5bbf3d657854427343f4c083240f7aacaa2d0f6292908290030190a461183e82600160a060020a0316611957565b15611862576118623333848460016020604051908101604052806000815250611c06565b505060010161178a565b6000828211156118dd57604080517f08c379a000000000000000000000000000000000000000000000000000000000815260206004820152601e60248201527f536166654d6174683a207375627472616374696f6e206f766572666c6f770000604482015290519081900360640190fd5b50900390565b6000828201838110156113a457604080517f08c379a000000000000000000000000000000000000000000000000000000000815260206004820152601b60248201527f536166654d6174683a206164646974696f6e206f766572666c6f770000000000604482015290519081900360640190fd5b6000903b1190565b63bc197c817c0100000000000000000000000000000000000000000000000000000000027bffffffffffffffffffffffffffffffffffffffffffffffffffffffff191684600160a060020a031663bc197c8188888787876040518663ffffffff167c01000000000000000000000000000000000000000000000000000000000281526004018086600160a060020a0316600160a060020a0316815260200185600160a060020a0316600160a060020a03168152602001806020018060200180602001848103845287818151815260200191508051906020019060200280838360005b83811015611a59578181015183820152602001611a41565b50505050905001848103835286818151815260200191508051906020019060200280838360005b83811015611a98578181015183820152602001611a80565b50505050905001848103825285818151815260200191508051906020019080838360005b83811015611ad4578181015183820152602001611abc565b50505050905090810190601f168015611b015780820380516001836020036101000a031916815260200191505b5098505050505050505050602060405180830381600087803b158015611b2657600080fd5b505af1158015611b3a573d6000803e3d6000fd5b505050506040513d6020811015611b5057600080fd5b50517fffffffff00000000000000000000000000000000000000000000000000000000161461171157604080517f08c379a000000000000000000000000000000000000000000000000000000000815260206004820152603e60248201527f636f6e74726163742072657475726e656420616e20756e6b6e6f776e2076616c60448201527f75652066726f6d206f6e45524331313535426174636852656365697665640000606482015290519081900360840190fd5b63f23a6e617c0100000000000000000000000000000000000000000000000000000000027bffffffffffffffffffffffffffffffffffffffffffffffffffffffff191684600160a060020a031663f23a6e6188888787876040518663ffffffff167c01000000000000000000000000000000000000000000000000000000000281526004018086600160a060020a0316600160a060020a0316815260200185600160a060020a0316600160a060020a0316815260200184815260200183815260200180602001828103825283818151815260200191508051906020019080838360005b83811015611d01578181015183820152602001611ce9565b50505050905090810190601f168015611d2e5780820380516001836020036101000a031916815260200191505b509650505050505050602060405180830381600087803b158015611d5157600080fd5b505af1158015611d65573d6000803e3d6000fd5b505050506040513d6020811015611d7b57600080fd5b50517fffffffff00000000000000000000000000000000000000000000000000000000161461171157604080517f08c379a000000000000000000000000000000000000000000000000000000000815260206004820152603960248201527f636f6e74726163742072657475726e656420616e20756e6b6e6f776e2076616c60448201527f75652066726f6d206f6e45524331313535526563656976656400000000000000606482015290519081900360840190fdfea165627a7a72305820ab0e390ce1e6cc9d7359813f511da6dfa301ec1f4fa16cfab2a82bb333ab61740029",
  "source": "pragma solidity 0.5.0;\r\n\r\nimport \"./ERC1155.sol\";\r\nimport \"./ERC1155MixedFungibleMintable.sol\";\r\n\r\ncontract StudentToken is ERC1155, ERC1155MixedFungibleMintable {\r\n  constructor() public {\r\n\r\n  }\r\n}\r\n",
  "sourcePath": "C:/Users/tredg/Providentia/contracts/Token.sol",
  "compiler": {
    "name": "solc",
    "version": "0.5.0+commit.1d4f565a.Emscripten.clang"
  },
  "schemaVersion": "3.0.11",
  "updatedAt": "2019-07-10T18:41:15.432Z",
  "devdoc": {
    "methods": {
      "isApprovedForAll(address,address)": {
        "params": {
          "_operator": "Address of authorized operator\r",
          "_owner": "The owner of the Tokens\r"
        },
        "return": "True if the operator is approved, false if not\r"
      },
      "setApprovalForAll(address,bool)": {
        "details": "MUST emit the ApprovalForAll event on success.\r",
        "params": {
          "_approved": "True if the operator is approved, false to revoke approval\r",
          "_operator": "Address to add to the set of authorized operators\r"
        }
      }
    }
  },
  "userdoc": {
    "methods": {
      "isApprovedForAll(address,address)": {
        "notice": "Queries the approval status of an operator for a given owner.\r"
      },
      "setApprovalForAll(address,bool)": {
        "notice": "Enable or disable approval for a third party (\"operator\") to manage all of the caller's tokens.\r"
      }
    }
  }
}