{
  "contractName": "RegistryQuiz",
  "abi": [
    {
      "constant": false,
      "inputs": [],
      "name": "renounceOwnership",
      "outputs": [],
      "payable": false,
      "stateMutability": "nonpayable",
      "type": "function",
      "signature": "0x715018a6"
    },
    {
      "constant": true,
      "inputs": [],
      "name": "owner",
      "outputs": [
        {
          "name": "",
          "type": "address"
        }
      ],
      "payable": false,
      "stateMutability": "view",
      "type": "function",
      "signature": "0x8da5cb5b"
    },
    {
      "constant": true,
      "inputs": [],
      "name": "isOwner",
      "outputs": [
        {
          "name": "",
          "type": "bool"
        }
      ],
      "payable": false,
      "stateMutability": "view",
      "type": "function",
      "signature": "0x8f32d59b"
    },
    {
      "constant": false,
      "inputs": [
        {
          "name": "newOwner",
          "type": "address"
        }
      ],
      "name": "transferOwnership",
      "outputs": [],
      "payable": false,
      "stateMutability": "nonpayable",
      "type": "function",
      "signature": "0xf2fde38b"
    },
    {
      "anonymous": false,
      "inputs": [
        {
          "indexed": false,
          "name": "did",
          "type": "string"
        },
        {
          "indexed": false,
          "name": "addr",
          "type": "address"
        }
      ],
      "name": "userSignedUp",
      "type": "event",
      "signature": "0x230d4ceedebc6ffc6640d73d0fa16916e17b0698891b0593f60e53d11a391df3"
    },
    {
      "anonymous": false,
      "inputs": [
        {
          "indexed": false,
          "name": "userDid",
          "type": "string"
        },
        {
          "indexed": false,
          "name": "allowedDid",
          "type": "string"
        }
      ],
      "name": "userAllowed",
      "type": "event",
      "signature": "0x1a32654c8abd24e2e992f33516e3e6c2d50378da8bc630adca47b9e0b379d076"
    },
    {
      "anonymous": false,
      "inputs": [
        {
          "indexed": true,
          "name": "previousOwner",
          "type": "address"
        },
        {
          "indexed": true,
          "name": "newOwner",
          "type": "address"
        }
      ],
      "name": "OwnershipTransferred",
      "type": "event",
      "signature": "0x8be0079c531659141344cd1fd0a4f28419497f9722a3daafe3b4186f6b6457e0"
    },
    {
      "constant": true,
      "inputs": [
        {
          "name": "_userDid",
          "type": "string"
        }
      ],
      "name": "userExists",
      "outputs": [
        {
          "name": "",
          "type": "bool"
        }
      ],
      "payable": false,
      "stateMutability": "view",
      "type": "function",
      "signature": "0xfddc968e"
    },
    {
      "constant": false,
      "inputs": [
        {
          "name": "_userDid",
          "type": "string"
        }
      ],
      "name": "signupUser",
      "outputs": [],
      "payable": false,
      "stateMutability": "nonpayable",
      "type": "function",
      "signature": "0x990b05f3"
    },
    {
      "constant": false,
      "inputs": [
        {
          "name": "_userDid",
          "type": "string"
        },
        {
          "name": "_addr",
          "type": "address"
        },
        {
          "name": "_role",
          "type": "uint256"
        }
      ],
      "name": "signup",
      "outputs": [],
      "payable": false,
      "stateMutability": "nonpayable",
      "type": "function",
      "signature": "0xcfd4a67b"
    },
    {
      "constant": false,
      "inputs": [
        {
          "name": "_userDid",
          "type": "string"
        },
        {
          "name": "_toDid",
          "type": "string"
        }
      ],
      "name": "grantAccess",
      "outputs": [],
      "payable": false,
      "stateMutability": "nonpayable",
      "type": "function",
      "signature": "0x817f8ca5"
    },
    {
      "constant": true,
      "inputs": [
        {
          "name": "_userDid",
          "type": "string"
        }
      ],
      "name": "hasQuiz",
      "outputs": [
        {
          "name": "",
          "type": "bool"
        }
      ],
      "payable": false,
      "stateMutability": "view",
      "type": "function",
      "signature": "0xfa9921d5"
    },
    {
      "constant": true,
      "inputs": [
        {
          "name": "_userDid",
          "type": "string"
        }
      ],
      "name": "getQuiz",
      "outputs": [
        {
          "name": "",
          "type": "string"
        }
      ],
      "payable": false,
      "stateMutability": "view",
      "type": "function",
      "signature": "0xa1a906b9"
    },
    {
      "constant": false,
      "inputs": [
        {
          "name": "_userDid",
          "type": "string"
        },
        {
          "name": "_quizFilePath",
          "type": "string"
        }
      ],
      "name": "uploadQuiz",
      "outputs": [],
      "payable": false,
      "stateMutability": "nonpayable",
      "type": "function",
      "signature": "0xbea27d15"
    },
    {
      "constant": true,
      "inputs": [
        {
          "name": "_userDid",
          "type": "string"
        },
        {
          "name": "_patientDid",
          "type": "string"
        }
      ],
      "name": "accessPatientQuiz",
      "outputs": [
        {
          "name": "",
          "type": "string"
        }
      ],
      "payable": false,
      "stateMutability": "view",
      "type": "function",
      "signature": "0x869384e8"
    }
  ],
  "bytecode": "0x6080604052336000806101000a81548173ffffffffffffffffffffffffffffffffffffffff021916908373ffffffffffffffffffffffffffffffffffffffff1602179055506000809054906101000a900473ffffffffffffffffffffffffffffffffffffffff1673ffffffffffffffffffffffffffffffffffffffff16600073ffffffffffffffffffffffffffffffffffffffff167f8be0079c531659141344cd1fd0a4f28419497f9722a3daafe3b4186f6b6457e060405160405180910390a3611f93806100cf6000396000f3fe608060405234801561001057600080fd5b50600436106100d1576000357c010000000000000000000000000000000000000000000000000000000090048063a1a906b91161008e578063a1a906b914610524578063bea27d1514610658578063cfd4a67b146107aa578063f2fde38b1461088f578063fa9921d5146108d3578063fddc968e146109a6576100d1565b8063715018a6146100d6578063817f8ca5146100e0578063869384e8146102325780638da5cb5b146103fd5780638f32d59b14610447578063990b05f314610469575b600080fd5b6100de610a79565b005b610230600480360360408110156100f657600080fd5b810190808035906020019064010000000081111561011357600080fd5b82018360208201111561012557600080fd5b8035906020019184600183028401116401000000008311171561014757600080fd5b91908080601f016020809104026020016040519081016040528093929190818152602001838380828437600081840152601f19601f820116905080830192505050505050509192919290803590602001906401000000008111156101aa57600080fd5b8201836020820111156101bc57600080fd5b803590602001918460018302840111640100000000831117156101de57600080fd5b91908080601f016020809104026020016040519081016040528093929190818152602001838380828437600081840152601f19601f820116905080830192505050505050509192919290505050610bb2565b005b6103826004803603604081101561024857600080fd5b810190808035906020019064010000000081111561026557600080fd5b82018360208201111561027757600080fd5b8035906020019184600183028401116401000000008311171561029957600080fd5b91908080601f016020809104026020016040519081016040528093929190818152602001838380828437600081840152601f19601f820116905080830192505050505050509192919290803590602001906401000000008111156102fc57600080fd5b82018360208201111561030e57600080fd5b8035906020019184600183028401116401000000008311171561033057600080fd5b91908080601f016020809104026020016040519081016040528093929190818152602001838380828437600081840152601f19601f820116905080830192505050505050509192919290505050610f47565b6040518080602001828103825283818151815260200191508051906020019080838360005b838110156103c25780820151818401526020810190506103a7565b50505050905090810190601f1680156103ef5780820380516001836020036101000a031916815260200191505b509250505060405180910390f35b6104056111af565b604051808273ffffffffffffffffffffffffffffffffffffffff1673ffffffffffffffffffffffffffffffffffffffff16815260200191505060405180910390f35b61044f6111d8565b604051808215151515815260200191505060405180910390f35b6105226004803603602081101561047f57600080fd5b810190808035906020019064010000000081111561049c57600080fd5b8201836020820111156104ae57600080fd5b803590602001918460018302840111640100000000831117156104d057600080fd5b91908080601f016020809104026020016040519081016040528093929190818152602001838380828437600081840152601f19601f82011690508083019250505050505050919291929050505061122f565b005b6105dd6004803603602081101561053a57600080fd5b810190808035906020019064010000000081111561055757600080fd5b82018360208201111561056957600080fd5b8035906020019184600183028401116401000000008311171561058b57600080fd5b91908080601f016020809104026020016040519081016040528093929190818152602001838380828437600081840152601f19601f820116905080830192505050505050509192919290505050611525565b6040518080602001828103825283818151815260200191508051906020019080838360005b8381101561061d578082015181840152602081019050610602565b50505050905090810190601f16801561064a5780820380516001836020036101000a031916815260200191505b509250505060405180910390f35b6107a86004803603604081101561066e57600080fd5b810190808035906020019064010000000081111561068b57600080fd5b82018360208201111561069d57600080fd5b803590602001918460018302840111640100000000831117156106bf57600080fd5b91908080601f016020809104026020016040519081016040528093929190818152602001838380828437600081840152601f19601f8201169050808301925050505050505091929192908035906020019064010000000081111561072257600080fd5b82018360208201111561073457600080fd5b8035906020019184600183028401116401000000008311171561075657600080fd5b91908080601f016020809104026020016040519081016040528093929190818152602001838380828437600081840152601f19601f82011690508083019250505050505050919291929050505061175f565b005b61088d600480360360608110156107c057600080fd5b81019080803590602001906401000000008111156107dd57600080fd5b8201836020820111156107ef57600080fd5b8035906020019184600183028401116401000000008311171561081157600080fd5b91908080601f016020809104026020016040519081016040528093929190818152602001838380828437600081840152601f19601f820116905080830192505050505050509192919290803573ffffffffffffffffffffffffffffffffffffffff16906020019092919080359060200190929190505050611910565b005b6108d1600480360360208110156108a557600080fd5b81019080803573ffffffffffffffffffffffffffffffffffffffff169060200190929190505050611b53565b005b61098c600480360360208110156108e957600080fd5b810190808035906020019064010000000081111561090657600080fd5b82018360208201111561091857600080fd5b8035906020019184600183028401116401000000008311171561093a57600080fd5b91908080601f016020809104026020016040519081016040528093929190818152602001838380828437600081840152601f19601f820116905080830192505050505050509192919290505050611bd9565b604051808215151515815260200191505060405180910390f35b610a5f600480360360208110156109bc57600080fd5b81019080803590602001906401000000008111156109d957600080fd5b8201836020820111156109eb57600080fd5b80359060200191846001830284011164010000000083111715610a0d57600080fd5b91908080601f016020809104026020016040519081016040528093929190818152602001838380828437600081840152601f19601f820116905080830192505050505050509192919290505050611c63565b604051808215151515815260200191505060405180910390f35b610a816111d8565b610af3576040517f08c379a00000000000000000000000000000000000000000000000000000000081526004018080602001828103825260208152602001807f4f776e61626c653a2063616c6c6572206973206e6f7420746865206f776e657281525060200191505060405180910390fd5b600073ffffffffffffffffffffffffffffffffffffffff166000809054906101000a900473ffffffffffffffffffffffffffffffffffffffff1673ffffffffffffffffffffffffffffffffffffffff167f8be0079c531659141344cd1fd0a4f28419497f9722a3daafe3b4186f6b6457e060405160405180910390a360008060006101000a81548173ffffffffffffffffffffffffffffffffffffffff021916908373ffffffffffffffffffffffffffffffffffffffff160217905550565b813373ffffffffffffffffffffffffffffffffffffffff166001826040518082805190602001908083835b60208310610c005780518252602082019150602081019050602083039250610bdd565b6001836020036101000a038019825116818451168082178552505050505050905001915050908152602001604051809103902060000160009054906101000a900473ffffffffffffffffffffffffffffffffffffffff1673ffffffffffffffffffffffffffffffffffffffff1614610ce0576040517f08c379a000000000000000000000000000000000000000000000000000000000815260040180806020018281038252601c8152602001807f596f757220617265206e6f742074686520726967687420757365722e0000000081525060200191505060405180910390fd5b60016003836040518082805190602001908083835b60208310610d185780518252602082019150602081019050602083039250610cf5565b6001836020036101000a03801982511681845116808217855250505050505090500191505090815260200160405180910390206002856040518082805190602001908083835b60208310610d815780518252602082019150602081019050602083039250610d5e565b6001836020036101000a03801982511681845116808217855250505050505090500191505090815260200160405180910390206040518082805460018160011615610100020316600290048015610e0f5780601f10610ded576101008083540402835291820191610e0f565b820191906000526020600020905b815481529060010190602001808311610dfb575b5050915050908152602001604051809103902060006101000a81548160ff0219169083151502179055507f1a32654c8abd24e2e992f33516e3e6c2d50378da8bc630adca47b9e0b379d0768383604051808060200180602001838103835285818151815260200191508051906020019080838360005b83811015610ea0578082015181840152602081019050610e85565b50505050905090810190601f168015610ecd5780820380516001836020036101000a031916815260200191505b50838103825284818151815260200191508051906020019080838360005b83811015610f06578082015181840152602081019050610eeb565b50505050905090810190601f168015610f335780820380516001836020036101000a031916815260200191505b5094505050505060405180910390a1505050565b6060806002836040518082805190602001908083835b60208310610f805780518252602082019150602081019050602083039250610f5d565b6001836020036101000a03801982511681845116808217855250505050505090500191505090815260200160405180910390208054600181600116156101000203166002900480601f0160208091040260200160405190810160405280929190818152602001828054600181600116156101000203166002900480156110475780601f1061101c57610100808354040283529160200191611047565b820191906000526020600020905b81548152906001019060200180831161102a57829003601f168201915b50505050509050600115156003856040518082805190602001908083835b602083106110885780518252602082019150602081019050602083039250611065565b6001836020036101000a0380198251168184511680821785525050505050509050019150509081526020016040518091039020826040518082805190602001908083835b602083106110ef57805182526020820191506020810190506020830392506110cc565b6001836020036101000a038019825116818451168082178552505050505050905001915050908152602001604051809103902060009054906101000a900460ff161515146111a5576040517f08c379a000000000000000000000000000000000000000000000000000000000815260040180806020018281038252600e8152602001807f4163636573732064656e6965642100000000000000000000000000000000000081525060200191505060405180910390fd5b8091505092915050565b60008060009054906101000a900473ffffffffffffffffffffffffffffffffffffffff16905090565b60008060009054906101000a900473ffffffffffffffffffffffffffffffffffffffff1673ffffffffffffffffffffffffffffffffffffffff163373ffffffffffffffffffffffffffffffffffffffff1614905090565b600073ffffffffffffffffffffffffffffffffffffffff166001826040518082805190602001908083835b6020831061127d578051825260208201915060208101905060208303925061125a565b6001836020036101000a038019825116818451168082178552505050505050905001915050908152602001604051809103902060000160009054906101000a900473ffffffffffffffffffffffffffffffffffffffff1673ffffffffffffffffffffffffffffffffffffffff161461135d576040517f08c379a00000000000000000000000000000000000000000000000000000000081526004018080602001828103825260148152602001807f5573657220616c7265616479206578697374732100000000000000000000000081525060200191505060405180910390fd5b611365611e6c565b60405180604001604052803373ffffffffffffffffffffffffffffffffffffffff16815260200160018152509050806001836040518082805190602001908083835b602083106113ca57805182526020820191506020810190506020830392506113a7565b6001836020036101000a038019825116818451168082178552505050505050905001915050908152602001604051809103902060008201518160000160006101000a81548173ffffffffffffffffffffffffffffffffffffffff021916908373ffffffffffffffffffffffffffffffffffffffff160217905550602082015181600101559050507f230d4ceedebc6ffc6640d73d0fa16916e17b0698891b0593f60e53d11a391df3823360405180806020018373ffffffffffffffffffffffffffffffffffffffff1673ffffffffffffffffffffffffffffffffffffffff168152602001828103825284818151815260200191508051906020019080838360005b838110156114e65780820151818401526020810190506114cb565b50505050905090810190601f1680156115135780820380516001836020036101000a031916815260200191505b50935050505060405180910390a15050565b6060813373ffffffffffffffffffffffffffffffffffffffff166001826040518082805190602001908083835b602083106115755780518252602082019150602081019050602083039250611552565b6001836020036101000a038019825116818451168082178552505050505050905001915050908152602001604051809103902060000160009054906101000a900473ffffffffffffffffffffffffffffffffffffffff1673ffffffffffffffffffffffffffffffffffffffff1614611655576040517f08c379a000000000000000000000000000000000000000000000000000000000815260040180806020018281038252601c8152602001807f596f757220617265206e6f742074686520726967687420757365722e0000000081525060200191505060405180910390fd5b6002836040518082805190602001908083835b6020831061168b5780518252602082019150602081019050602083039250611668565b6001836020036101000a03801982511681845116808217855250505050505090500191505090815260200160405180910390208054600181600116156101000203166002900480601f0160208091040260200160405190810160405280929190818152602001828054600181600116156101000203166002900480156117525780601f1061172757610100808354040283529160200191611752565b820191906000526020600020905b81548152906001019060200180831161173557829003601f168201915b5050505050915050919050565b813373ffffffffffffffffffffffffffffffffffffffff166001826040518082805190602001908083835b602083106117ad578051825260208201915060208101905060208303925061178a565b6001836020036101000a038019825116818451168082178552505050505050905001915050908152602001604051809103902060000160009054906101000a900473ffffffffffffffffffffffffffffffffffffffff1673ffffffffffffffffffffffffffffffffffffffff161461188d576040517f08c379a000000000000000000000000000000000000000000000000000000000815260040180806020018281038252601c8152602001807f596f757220617265206e6f742074686520726967687420757365722e0000000081525060200191505060405180910390fd5b816002846040518082805190602001908083835b602083106118c457805182526020820191506020810190506020830392506118a1565b6001836020036101000a0380198251168184511680821785525050505050509050019150509081526020016040518091039020908051906020019061190a929190611e9c565b50505050565b6119186111d8565b61198a576040517f08c379a00000000000000000000000000000000000000000000000000000000081526004018080602001828103825260208152602001807f4f776e61626c653a2063616c6c6572206973206e6f7420746865206f776e657281525060200191505060405180910390fd5b611992611e6c565b60405180604001604052808473ffffffffffffffffffffffffffffffffffffffff168152602001838152509050806001856040518082805190602001908083835b602083106119f657805182526020820191506020810190506020830392506119d3565b6001836020036101000a038019825116818451168082178552505050505050905001915050908152602001604051809103902060008201518160000160006101000a81548173ffffffffffffffffffffffffffffffffffffffff021916908373ffffffffffffffffffffffffffffffffffffffff160217905550602082015181600101559050507f230d4ceedebc6ffc6640d73d0fa16916e17b0698891b0593f60e53d11a391df3848460405180806020018373ffffffffffffffffffffffffffffffffffffffff1673ffffffffffffffffffffffffffffffffffffffff168152602001828103825284818151815260200191508051906020019080838360005b83811015611b12578082015181840152602081019050611af7565b50505050905090810190601f168015611b3f5780820380516001836020036101000a031916815260200191505b50935050505060405180910390a150505050565b611b5b6111d8565b611bcd576040517f08c379a00000000000000000000000000000000000000000000000000000000081526004018080602001828103825260208152602001807f4f776e61626c653a2063616c6c6572206973206e6f7420746865206f776e657281525060200191505060405180910390fd5b611bd681611d28565b50565b600060016002836040518082805190602001908083835b60208310611c135780518252602082019150602081019050602083039250611bf0565b6001836020036101000a0380198251168184511680821785525050505050509050019150509081526020016040518091039020805460018160011615610100020316600290049050119050919050565b60008073ffffffffffffffffffffffffffffffffffffffff166001836040518082805190602001908083835b60208310611cb25780518252602082019150602081019050602083039250611c8f565b6001836020036101000a038019825116818451168082178552505050505050905001915050908152602001604051809103902060000160009054906101000a900473ffffffffffffffffffffffffffffffffffffffff1673ffffffffffffffffffffffffffffffffffffffff1614159050919050565b600073ffffffffffffffffffffffffffffffffffffffff168173ffffffffffffffffffffffffffffffffffffffff161415611dae576040517f08c379a0000000000000000000000000000000000000000000000000000000008152600401808060200182810382526026815260200180611f426026913960400191505060405180910390fd5b8073ffffffffffffffffffffffffffffffffffffffff166000809054906101000a900473ffffffffffffffffffffffffffffffffffffffff1673ffffffffffffffffffffffffffffffffffffffff167f8be0079c531659141344cd1fd0a4f28419497f9722a3daafe3b4186f6b6457e060405160405180910390a3806000806101000a81548173ffffffffffffffffffffffffffffffffffffffff021916908373ffffffffffffffffffffffffffffffffffffffff16021790555050565b6040518060400160405280600073ffffffffffffffffffffffffffffffffffffffff168152602001600081525090565b828054600181600116156101000203166002900490600052602060002090601f016020900481019282601f10611edd57805160ff1916838001178555611f0b565b82800160010185558215611f0b579182015b82811115611f0a578251825591602001919060010190611eef565b5b509050611f189190611f1c565b5090565b611f3e91905b80821115611f3a576000816000905550600101611f22565b5090565b9056fe4f776e61626c653a206e6577206f776e657220697320746865207a65726f2061646472657373a165627a7a72305820b3075bf39f9e73c6c9e762509cb1e9adf26eafc1424d983faf72ef4c37c71ae50029",
  "source": "pragma solidity ^0.5.7;\n\nimport \"openzeppelin-solidity/contracts/ownership/Ownable.sol\";\n\n\ncontract RegistryQuiz is Ownable {\n\n    event userSignedUp(string did, address addr);\n    event userAllowed(string userDid, string allowedDid);\n\n    /**\n     * Role 0 - Admin; 1 - Normal User; 2 - Company\n     */\n    struct User {\n        address addr;\n        uint256 role;\n    }\n    mapping(string => User) private users;\n    mapping(string => string) private quiz;\n    mapping(string => mapping(string => bool)) private allowed;\n\n    /**\n     * @dev Modifier to check if the user is the valid user\n     * by comparing the address in the did registry.\n     */\n    modifier onlyUser(string memory _did) {\n        require(users[_did].addr == msg.sender, \"Your are not the right user.\");\n        _;\n    }\n\n    /**\n     * @dev Verifies if a user is signed.\n     */\n    function userExists(string memory _userDid) public view returns(bool) {\n        return users[_userDid].addr != address(0);\n    }\n\n    /**\n     * @dev save msg.sender and uport did in order to be able\n     * to verify if the user authenticity in future transactions.\n     * By default it sets the role to one, the user role.\n     */\n    function signupUser(string memory _userDid) public {\n        require(users[_userDid].addr == address(0), \"User already exists!\");\n        User memory newUser = User(msg.sender, 1);\n        users[_userDid] = newUser;\n        emit userSignedUp(_userDid, msg.sender);\n    }\n\n    /**\n     * @dev save msg.sender and uport did in order to be able\n     * to verify if the user authenticity in future transactions.\n     * This is an admin method to sigup some specific users, using their\n     * uport id, addr and giving them a role.\n     */\n    function signup(string memory _userDid, address _addr, uint256 _role) public onlyOwner {\n        User memory newUser = User(_addr, _role);\n        users[_userDid] = newUser;\n        emit userSignedUp(_userDid, _addr);\n    }\n\n    /**\n     * @dev Give permission to another user providing the did.\n     */\n    function grantAccess(string memory _userDid, string memory _toDid) public onlyUser(_userDid) {\n        allowed[_toDid][quiz[_userDid]] = true;\n        emit userAllowed(_userDid, _toDid);\n    }\n\n    /**\n     * @dev Verify if a user already has an uploaded quiz,\n     * using his own did.\n     */\n    function hasQuiz(string memory _userDid) public view returns (bool) {\n        return bytes(quiz[_userDid]).length > 1;\n    }\n\n    /**\n     * @dev Get user quiz using it's own did.\n     */\n    function getQuiz(string memory _userDid) public view onlyUser(_userDid) returns (string memory) {\n        return quiz[_userDid];\n    }\n\n    /**\n     * @dev Upload a quiz from a user, qith the given did and file path.\n     */\n    function uploadQuiz(string memory _userDid, string memory _quizFilePath) public onlyUser(_userDid) {\n        quiz[_userDid] = _quizFilePath;\n    }\n\n    /**\n     * @dev Access a patient quiz. Requires given access from the patient (user).\n     */\n    function accessPatientQuiz(string memory _userDid, string memory _patientDid) public view returns (string memory) {\n        string memory quizPath = quiz[_patientDid];\n        require(allowed[_userDid][quizPath] == true, \"Access denied!\");\n        return quizPath;\n    }\n}\n",
  "sourcePath": "/home/bernardovieira/Documentos/GitHub/ImmunoBlock/ethereum/contracts/RegistryQuiz.sol",
  "compiler": {
    "name": "solc",
    "version": "0.5.7+commit.6da8b019.Emscripten.clang"
  },
  "schemaVersion": "3.0.6",
  "updatedAt": "2019-07-09T10:11:31.418Z",
  "devdoc": {
    "methods": {
      "accessPatientQuiz(string,string)": {
        "details": "Access a patient quiz. Requires given access from the patient (user)."
      },
      "getQuiz(string)": {
        "details": "Get user quiz using it's own did."
      },
      "grantAccess(string,string)": {
        "details": "Give permission to another user providing the did."
      },
      "hasQuiz(string)": {
        "details": "Verify if a user already has an uploaded quiz, using his own did."
      },
      "isOwner()": {
        "details": "Returns true if the caller is the current owner."
      },
      "owner()": {
        "details": "Returns the address of the current owner."
      },
      "renounceOwnership()": {
        "details": "Leaves the contract without owner. It will not be possible to call `onlyOwner` functions anymore. Can only be called by the current owner.     * > Note: Renouncing ownership will leave the contract without an owner, thereby removing any functionality that is only available to the owner."
      },
      "signup(string,address,uint256)": {
        "details": "save msg.sender and uport did in order to be able to verify if the user authenticity in future transactions. This is an admin method to sigup some specific users, using their uport id, addr and giving them a role."
      },
      "signupUser(string)": {
        "details": "save msg.sender and uport did in order to be able to verify if the user authenticity in future transactions. By default it sets the role to one, the user role."
      },
      "transferOwnership(address)": {
        "details": "Transfers ownership of the contract to a new account (`newOwner`). Can only be called by the current owner."
      },
      "uploadQuiz(string,string)": {
        "details": "Upload a quiz from a user, qith the given did and file path."
      },
      "userExists(string)": {
        "details": "Verifies if a user is signed."
      }
    }
  },
  "userdoc": {
    "methods": {}
  }
}