{
  "contractName": "LenderContractWallet",
  "abi": [
    {
      "constant": true,
      "inputs": [
        {
          "name": "",
          "type": "address"
        }
      ],
      "name": "principalSupplied",
      "outputs": [
        {
          "name": "",
          "type": "uint256"
        }
      ],
      "payable": false,
      "stateMutability": "view",
      "type": "function"
    },
    {
      "constant": true,
      "inputs": [
        {
          "name": "",
          "type": "address"
        }
      ],
      "name": "adminAddresses",
      "outputs": [
        {
          "name": "",
          "type": "bool"
        }
      ],
      "payable": false,
      "stateMutability": "view",
      "type": "function"
    },
    {
      "constant": true,
      "inputs": [],
      "name": "feeHoldingAddress",
      "outputs": [
        {
          "name": "",
          "type": "address"
        }
      ],
      "payable": false,
      "stateMutability": "view",
      "type": "function"
    },
    {
      "constant": true,
      "inputs": [],
      "name": "userAddress",
      "outputs": [
        {
          "name": "",
          "type": "address"
        }
      ],
      "payable": false,
      "stateMutability": "view",
      "type": "function"
    },
    {
      "inputs": [
        {
          "name": "_userAddress",
          "type": "address"
        },
        {
          "name": "_adminAddress1",
          "type": "address"
        },
        {
          "name": "_adminAddress2",
          "type": "address"
        },
        {
          "name": "_adminAddress3",
          "type": "address"
        },
        {
          "name": "_adminAddress4",
          "type": "address"
        }
      ],
      "payable": false,
      "stateMutability": "nonpayable",
      "type": "constructor"
    },
    {
      "constant": false,
      "inputs": [
        {
          "name": "_tokenAddress",
          "type": "address"
        },
        {
          "name": "_cTokenAddress",
          "type": "address"
        }
      ],
      "name": "approveCTokenContract",
      "outputs": [],
      "payable": false,
      "stateMutability": "nonpayable",
      "type": "function"
    },
    {
      "constant": false,
      "inputs": [
        {
          "name": "_tokenAddress",
          "type": "address"
        },
        {
          "name": "_cTokenAddress",
          "type": "address"
        }
      ],
      "name": "supplyToMoneyMarket",
      "outputs": [],
      "payable": false,
      "stateMutability": "nonpayable",
      "type": "function"
    },
    {
      "constant": false,
      "inputs": [
        {
          "name": "_tokenAddress",
          "type": "address"
        },
        {
          "name": "_cTokenAddress",
          "type": "address"
        },
        {
          "name": "_cTokensRequested",
          "type": "uint256"
        }
      ],
      "name": "withdrawFromMoneyMarket",
      "outputs": [],
      "payable": false,
      "stateMutability": "nonpayable",
      "type": "function"
    }
  ],
  "bytecode": "0x608060405234801561001057600080fd5b50604051611093380380611093833981810160405260a081101561003357600080fd5b50805160208083015160408085015160608601516080909601516001600081815581546001600160a01b03199081166001600160a01b03998a161783556002805490911696891696871790559485526003909552828420805460ff19908116871790915591861684528284208054831686179055958516835281832080548216851790559390941681529283208054909216179055610fbb9081906100d890396000f3fe608060405234801561001057600080fd5b506004361061007d5760003560e01c80634ed38faf1161005b5780634ed38faf146101205780639a507d9b1461015a578063b82c0d421461017e578063e4128fb3146101ac5761007d565b80631507e9a6146100825780631c5b7930146100ba578063220c5203146100e8575b600080fd5b6100b86004803603606081101561009857600080fd5b506001600160a01b038135811691602081013590911690604001356101b4565b005b6100b8600480360360408110156100d057600080fd5b506001600160a01b03813581169160200135166106f0565b61010e600480360360208110156100fe57600080fd5b50356001600160a01b0316610a9a565b60408051918252519081900360200190f35b6101466004803603602081101561013657600080fd5b50356001600160a01b0316610aac565b604080519115158252519081900360200190f35b610162610ac1565b604080516001600160a01b039092168252519081900360200190f35b6100b86004803603604081101561019457600080fd5b506001600160a01b0381358116916020013516610ad0565b610162610bba565b3360009081526003602052604090205460ff16806101dc57506001546001600160a01b031633145b6102175760405162461bcd60e51b8152600401808060200182810382526038815260200180610ee06038913960400191505060405180910390fd5b60008054600101808255604080516370a0823160e01b815230600482015290519192869286926001600160a01b038416916370a0823191602480820192602092909190829003018186803b15801561026e57600080fd5b505afa158015610282573d6000803e3d6000fd5b505050506040513d602081101561029857600080fd5b5051116102d65760405162461bcd60e51b8152600401808060200182810382526029815260200180610f3c6029913960400191505060405180910390fd5b6000841161032b576040805162461bcd60e51b815260206004820181905260248201527f4d757374207769746864726177206d6f7265207468616e203020746f6b656e73604482015290519081900360640190fd5b604080516370a0823160e01b815230600482015290516000916001600160a01b038416916370a0823191602480820192602092909190829003018186803b15801561037557600080fd5b505afa158015610389573d6000803e3d6000fd5b505050506040513d602081101561039f57600080fd5b50519050808511156103af578094505b816001600160a01b031663db006a75866040518263ffffffff1660e01b815260040180828152602001915050602060405180830381600087803b1580156103f557600080fd5b505af1158015610409573d6000803e3d6000fd5b505050506040513d602081101561041f57600080fd5b50511561045d5760405162461bcd60e51b8152600401808060200182810382526024815260200180610f186024913960400191505060405180910390fd5b600061046b88858885610bc9565b905061047a8885600084610ca6565b6002546001600160a01b038086169163a9059cbb91166104b36103e86104a786605f63ffffffff610e3f16565b9063ffffffff610e6f16565b6040518363ffffffff1660e01b815260040180836001600160a01b03166001600160a01b0316815260200182815260200192505050602060405180830381600087803b15801561050257600080fd5b505af1158015610516573d6000803e3d6000fd5b505050506040513d602081101561052c57600080fd5b5050600154604080516370a0823160e01b815230600482015290516001600160a01b038088169363a9059cbb9391169184916370a08231916024808301926020929190829003018186803b15801561058357600080fd5b505afa158015610597573d6000803e3d6000fd5b505050506040513d60208110156105ad57600080fd5b5051604080516001600160e01b031960e086901b1681526001600160a01b03909316600484015260248301919091525160448083019260209291908290030181600087803b1580156105fe57600080fd5b505af1158015610612573d6000803e3d6000fd5b505050506040513d602081101561062857600080fd5b5050604080516370a0823160e01b815230600482015290516001600160a01b038616916370a08231916024808301926020929190829003018186803b15801561067057600080fd5b505afa158015610684573d6000803e3d6000fd5b505050506040513d602081101561069a57600080fd5b5051156106a357fe5b5050505060005481146106ea576040805162461bcd60e51b815260206004820152600a6024820152691c994b595b9d195c995960b21b604482015290519081900360640190fd5b50505050565b3360009081526003602052604090205460ff168061071857506001546001600160a01b031633145b6107535760405162461bcd60e51b8152600401808060200182810382526038815260200180610ee06038913960400191505060405180910390fd5b60008054600101808255604080516370a0823160e01b815230600482015290519192859285926001600160a01b038516916370a0823191602480820192602092909190829003018186803b1580156107aa57600080fd5b505afa1580156107be573d6000803e3d6000fd5b505050506040513d60208110156107d457600080fd5b5051116108125760405162461bcd60e51b8152600401808060200182810382526027815260200180610eb96027913960400191505060405180910390fd5b610820858360016000610ca6565b806001600160a01b031663a0712d68836001600160a01b03166370a08231306040518263ffffffff1660e01b815260040180826001600160a01b03166001600160a01b0316815260200191505060206040518083038186803b15801561088557600080fd5b505afa158015610899573d6000803e3d6000fd5b505050506040513d60208110156108af57600080fd5b5051604080516001600160e01b031960e085901b16815260048101929092525160248083019260209291908290030181600087803b1580156108f057600080fd5b505af1158015610904573d6000803e3d6000fd5b505050506040513d602081101561091a57600080fd5b5051156109585760405162461bcd60e51b8152600401808060200182810382526022815260200180610f656022913960400191505060405180910390fd5b604080516370a0823160e01b815230600482015290516001600160a01b038416916370a08231916024808301926020929190829003018186803b15801561099e57600080fd5b505afa1580156109b2573d6000803e3d6000fd5b505050506040513d60208110156109c857600080fd5b5051158015610a4a5750604080516370a0823160e01b815230600482015290516000916001600160a01b038416916370a0823191602480820192602092909190829003018186803b158015610a1c57600080fd5b505afa158015610a30573d6000803e3d6000fd5b505050506040513d6020811015610a4657600080fd5b5051115b610a5057fe5b50506000548114610a95576040805162461bcd60e51b815260206004820152600a6024820152691c994b595b9d195c995960b21b604482015290519081900360640190fd5b505050565b60046020526000908152604090205481565b60036020526000908152604090205460ff1681565b6002546001600160a01b031681565b3360009081526003602052604090205460ff1680610af857506001546001600160a01b031633145b610b335760405162461bcd60e51b8152600401808060200182810382526038815260200180610ee06038913960400191505060405180910390fd5b6040805163095ea7b360e01b81526001600160a01b038381166004830152600160ff1b60248301529151849283169163095ea7b39160448083019260209291908290030181600087803b158015610b8957600080fd5b505af1158015610b9d573d6000803e3d6000fd5b505050506040513d6020811015610bb357600080fd5b5050505050565b6001546001600160a01b031681565b604080516370a0823160e01b8152306004820152905160009182916001600160a01b038716916370a08231916024808301926020929190829003018186803b158015610c1457600080fd5b505afa158015610c28573d6000803e3d6000fd5b505050506040513d6020811015610c3e57600080fd5b50516001600160a01b03871660009081526004602052604081205491925090610c749085906104a790889063ffffffff610e3f16565b905081811115610c8957600092505050610c9e565b610c99828263ffffffff610e9116565b925050505b949350505050565b8115610d6657604080516370a0823160e01b81523060048201529051610d48916001600160a01b038616916370a0823191602480820192602092909190829003018186803b158015610cf757600080fd5b505afa158015610d0b573d6000803e3d6000fd5b505050506040513d6020811015610d2157600080fd5b50516001600160a01b0386166000908152600460205260409020549063ffffffff610ea616565b6001600160a01b0385166000908152600460205260409020556106ea565b610e20610dfb82856001600160a01b03166370a08231306040518263ffffffff1660e01b815260040180826001600160a01b03166001600160a01b0316815260200191505060206040518083038186803b158015610dc357600080fd5b505afa158015610dd7573d6000803e3d6000fd5b505050506040513d6020811015610ded57600080fd5b50519063ffffffff610e9116565b6001600160a01b0386166000908152600460205260409020549063ffffffff610e9116565b6001600160a01b03851660009081526004602052604090205550505050565b600082610e4e57506000610e69565b82820282848281610e5b57fe5b0414610e6657600080fd5b90505b92915050565b6000808211610e7d57600080fd5b6000828481610e8857fe5b04949350505050565b600082821115610ea057600080fd5b50900390565b600082820183811015610e6657600080fdfe5468657265206172652063757272656e746c79206e6f20746f6b656e7320746f20737570706c794f6e6c792061646d696e206f7220757365722063616e20616363657373207468697320636f6e747261637427732066756e6374696f6e732e4572726f722072656465656d696e6720746f6b656e732066726f6d20436f6d706f756e645468657265206172652063757272656e746c79206e6f20746f6b656e7320746f2077697468647261774572726f7220737570706c79696e6720746f6b656e7320746f20436f6d706f756e64a265627a7a72305820eb1b76bfe4dd3f7d85073fa7b2c9200e75a5b7c979d60aefabca5bd640c74fa464736f6c63430005090032",
  "source": "pragma solidity ^0.5.8;\n\nimport { CErc20, CToken, ReentrancyGuard } from \"./CERC20.sol\";\nimport { ERC20Interface } from \"./ERC20.sol\";\nimport \"./SafeMath.sol\";\n\n\n/// @title Lender Contract Wallet\n/// @author Tarik Bellamine & Kevin Kim\n/// @notice The contract is intended to be used as a user contract wallet that will allow users to easily interact with Compound's money\n/// market contracts through the Lender UI\n\ncontract LenderContractWallet is ReentrancyGuard {\n  using SafeMath for uint256;\n\n  address public userAddress;\n  address public feeHoldingAddress;\n  mapping(address => bool) public adminAddresses;\n  mapping(address => uint256) public principalSupplied;\n\n  /// @notice The constructor's purpose is to define the user address that will receive funds when the withdrawl function is called as\n  /// well as specifiying the admin accounts that have permission to call this contract's functions on the user's behalf, all done here\n  /// so it is immutible from the point of contract creation\n  /// @param _userAddress The user's wallet address\n  /// @param _adminAddress1 The Lender admin wallet that will receive user fees and can call this contract's functions\n  /// @param _adminAddress2 The Lender admim wallet that can call this contract's functions. All other admin addresses are identical to this\n  constructor(address _userAddress, address _adminAddress1, address _adminAddress2, address _adminAddress3, address _adminAddress4) public {\n    userAddress = _userAddress;\n    feeHoldingAddress = _adminAddress1;\n    adminAddresses[_adminAddress1] = true;\n    adminAddresses[_adminAddress2] = true;\n    adminAddresses[_adminAddress3] = true;\n    adminAddresses[_adminAddress4] = true;\n  }\n\n  /// @notice Modifier that restricts the ability to call functions to just the user and admin addresses\n  modifier onlyUserAndAdmins() {\n    require(\n      (adminAddresses[msg.sender] || userAddress == msg.sender),\n      \"Only admin or user can access this contract's functions.\"\n    );\n    _;\n  }\n\n/// -------------- Approve --------------- ///\n\n  /// @notice Approves the token contract to send a large amount of tokens to the cToken contract\n  /// @param _tokenAddress The token contract addressthat will initiate the transfer\n  /// @param _cTokenAddress The Compound cToken contract address that will receive the tokens transferred\n  function approveCTokenContract(address _tokenAddress, address _cTokenAddress) public onlyUserAndAdmins {\n    ERC20Interface _Token = ERC20Interface(_tokenAddress);\n    _Token.approve(_cTokenAddress,  2 ** 255);\n  }\n\n/// -------------- Supply --------------- ///\n\n  /// @notice Updates the principalSupplied mapping in state that contains the user's balance of the various assets they have supplied\n  /// @param _tokenAddress The token contract's address thats balance will be incremented or decremented\n  /// @param _Token The token interface corresponding to the previous param\n  /// @param _increment Whether the user's token balance should be incremented (true) or decremented (false)\n  /// @param _interestEarnedOnWithdrawalAmount The amount of interest that the user has earned through lending, which needs to be subtracted from\n  /// the total balance that is being withdrawn to ensure only principal is getting tracked (i.e., totalBalance = principal + interest)\n  function updatePrincipalSupplied(address _tokenAddress, ERC20Interface _Token, bool _increment, uint256 _interestEarnedOnWithdrawalAmount) private {\n    if (_increment) {\n      principalSupplied[_tokenAddress] = principalSupplied[_tokenAddress].add(_Token.balanceOf(address(this)));\n    } else {\n      principalSupplied[_tokenAddress] = principalSupplied[_tokenAddress].sub(_Token.balanceOf(address(this)).sub(_interestEarnedOnWithdrawalAmount));\n    }\n  }\n\n  /// @notice Supplies the entirety of this contract's token balance to Compound's money market contracts and adds the amount supplied to\n  /// the princapalHolder in state\n  /// @param _tokenAddress The address of the token this contract has and wants to supply\n  /// @param _cTokenAddress The address of the Compound cToken contract that will receive the tokens transferred\n  function supplyToMoneyMarket(address _tokenAddress, address _cTokenAddress) public onlyUserAndAdmins nonReentrant {\n    ERC20Interface _Token = ERC20Interface(_tokenAddress);\n    CErc20 _CToken = CErc20(_cTokenAddress);\n    require(_Token.balanceOf(address(this)) > 0, \"There are currently no tokens to supply\");\n    updatePrincipalSupplied(_tokenAddress, _Token, true, 0);\n    require(_CToken.mint(_Token.balanceOf(address(this))) == 0, \"Error supplying tokens to Compound\");\n    assert(_Token.balanceOf(address(this)) == 0 && _CToken.balanceOf(address(this)) > 0);\n  }\n\n/// -------------- Withdraw --------------- ///\n\n  /// @notice Calculates the proportion of total interest that is being withdrawn. The equaton in layman terms is:\n  /// interestEarnedOnWithdrawal = currentBalance - (principal * (cTokensBeingWithdrawn / totalCTokens))\n  /// @param _tokenAddress The address of the token being withdrawn\n  /// @param _Token The token interface corresponding to the previous param\n  /// @param _cTokensRequested The amount of cTokens the user would like to withdraw\n  /// @param _cTokensRequested The amount of cTokens this smart contract has\n  /// @return The amount of cTokens that is proportional interest earned on the amount being withdrawn\n  function calculateInterestOnAmountWithdrawn(address _tokenAddress, ERC20Interface _Token, uint _cTokensRequested, uint _totalCTokens) private view returns (uint256) {\n    uint256 currentBalance = _Token.balanceOf(address(this));\n    uint256 proportionOfBalance = _cTokensRequested.mul(principalSupplied[_tokenAddress]).div(_totalCTokens);\n    /// Need this check for rounding errors that can arrise with low decimal tokens (e.g., USDC)\n    if (proportionOfBalance > currentBalance) {\n      return 0;\n    }\n    return currentBalance.sub(proportionOfBalance);\n  }\n\n  /// @notice Withdraws a specified amount from Compound's money market contracts to this contract, subtracts the amount of principal being withdrawn\n  /// from the principal holder in state, transfers 9.5% of interest earned fee to the Lender admin wallet, then transfers the user the remaining contract balance\n  /// @param _tokenAddress The address of the token the user is requesting\n  /// @param _cTokenAddress The cToken contract address corresponding to the requested token\n  /// @param _cTokensRequested The requested amount to withdraw from the money market denominated in cTokens\n  function withdrawFromMoneyMarket(address _tokenAddress, address _cTokenAddress, uint256 _cTokensRequested) public onlyUserAndAdmins nonReentrant {\n    ERC20Interface _Token = ERC20Interface(_tokenAddress);\n    CErc20 _CToken = CErc20(_cTokenAddress);\n\n    require(_CToken.balanceOf(address(this)) > 0, \"There are currently no tokens to withdraw\");\n    require(_cTokensRequested > 0, \"Must withdraw more than 0 tokens\");\n\n    uint256 _totalCTokens = _CToken.balanceOf(address(this)); /// Need this for later because cToken balance of the contract changes after redeeming to underlying\n    if (_cTokensRequested > _totalCTokens) {\n      _cTokensRequested = _totalCTokens;\n    }\n    require(_CToken.redeem(_cTokensRequested) == 0, \"Error redeeming tokens from Compound\");\n    uint256 _interestEarnedOnWithdrawalAmount = calculateInterestOnAmountWithdrawn(_tokenAddress, _Token, _cTokensRequested, _totalCTokens);\n    updatePrincipalSupplied(_tokenAddress, _Token, false, _interestEarnedOnWithdrawalAmount);\n\n    _Token.transfer(feeHoldingAddress, _interestEarnedOnWithdrawalAmount.mul(95).div(1000));\n    _Token.transfer(userAddress, _Token.balanceOf(address(this)));\n    assert(_Token.balanceOf(address(this)) == 0);\n  }\n}\n",
  "sourcePath": "/Users/tarik/Desktop/lender/ethereum/contracts/LenderContractWallet.sol",
  "compiler": {
    "name": "solc",
    "version": "0.5.9+commit.e560f70d.Emscripten.clang"
  },
  "schemaVersion": "3.0.9",
  "updatedAt": "2019-06-24T18:15:17.649Z",
  "devdoc": {
    "author": "Tarik Bellamine & Kevin Kim",
    "methods": {
      "approveCTokenContract(address,address)": {
        "params": {
          "_cTokenAddress": "The Compound cToken contract address that will receive the tokens transferred",
          "_tokenAddress": "The token contract addressthat will initiate the transfer"
        }
      },
      "constructor": {
        "params": {
          "_adminAddress1": "The Lender admin wallet that will receive user fees and can call this contract's functions",
          "_adminAddress2": "The Lender admim wallet that can call this contract's functions. All other admin addresses are identical to this",
          "_userAddress": "The user's wallet address"
        }
      },
      "supplyToMoneyMarket(address,address)": {
        "params": {
          "_cTokenAddress": "The address of the Compound cToken contract that will receive the tokens transferred",
          "_tokenAddress": "The address of the token this contract has and wants to supply"
        }
      },
      "withdrawFromMoneyMarket(address,address,uint256)": {
        "params": {
          "_amountOfUnderlyingToWithdraw": "The requested amount of the given token to withdraw from the money market",
          "_cTokenAddress": "The cToken contract address corresponding to the requested token",
          "_tokenAddress": "The address of the token the user is requesting",
          "_cTokensRequested": "The requested amount to withdraw from the money market denominated in cTokens"
        }
      }
    },
    "title": "Lender Contract Wallet"
  },
  "userdoc": {
    "methods": {
      "approveCTokenContract(address,address)": {
        "notice": "-------------- Approve --------------- ///Approves the token contract to send a large amount of tokens to the cToken contract"
      },
      "constructor": "The constructor's purpose is to define the user address that will receive funds when the withdrawl function is called as well as specifiying the admin accounts that have permission to call this contract's functions on the user's behalf, all done here so it is immutible from the point of contract creation",
      "supplyToMoneyMarket(address,address)": {
        "notice": "Supplies the entirety of this contract's token balance to Compound's money market contracts and adds the amount supplied to the princapalHolder in state"
      },
      "withdrawFromMoneyMarket(address,address,uint256)": {
        "notice": "Withdraws a specified amount from Compound's money market contracts to this contract, subtracts the amount of principal being withdrawn from the principal holder in state, transfers 9.5% of interest earned fee to the Lender admin wallet, then transfers the user the remaining contract balance"
      }
    },
    "notice": "The contract is intended to be used as a user contract wallet that will allow users to easily interact with Compound's money market contracts through the Lender UI"
  }
}