{
  "contractName": "Foxcoin",
  "abi": [
    {
      "constant": true,
      "inputs": [],
      "name": "name",
      "outputs": [
        {
          "name": "",
          "type": "string"
        }
      ],
      "payable": false,
      "stateMutability": "view",
      "type": "function"
    },
    {
      "constant": false,
      "inputs": [
        {
          "name": "spender",
          "type": "address"
        },
        {
          "name": "value",
          "type": "uint256"
        }
      ],
      "name": "approve",
      "outputs": [
        {
          "name": "",
          "type": "bool"
        }
      ],
      "payable": false,
      "stateMutability": "nonpayable",
      "type": "function"
    },
    {
      "constant": true,
      "inputs": [],
      "name": "totalSupply",
      "outputs": [
        {
          "name": "",
          "type": "uint256"
        }
      ],
      "payable": false,
      "stateMutability": "view",
      "type": "function"
    },
    {
      "constant": false,
      "inputs": [
        {
          "name": "sender",
          "type": "address"
        },
        {
          "name": "recipient",
          "type": "address"
        },
        {
          "name": "amount",
          "type": "uint256"
        }
      ],
      "name": "transferFrom",
      "outputs": [
        {
          "name": "",
          "type": "bool"
        }
      ],
      "payable": false,
      "stateMutability": "nonpayable",
      "type": "function"
    },
    {
      "constant": true,
      "inputs": [],
      "name": "INITIAL_SUPPLY",
      "outputs": [
        {
          "name": "",
          "type": "uint256"
        }
      ],
      "payable": false,
      "stateMutability": "view",
      "type": "function"
    },
    {
      "constant": true,
      "inputs": [],
      "name": "decimals",
      "outputs": [
        {
          "name": "",
          "type": "uint8"
        }
      ],
      "payable": false,
      "stateMutability": "view",
      "type": "function"
    },
    {
      "constant": false,
      "inputs": [
        {
          "name": "spender",
          "type": "address"
        },
        {
          "name": "addedValue",
          "type": "uint256"
        }
      ],
      "name": "increaseAllowance",
      "outputs": [
        {
          "name": "",
          "type": "bool"
        }
      ],
      "payable": false,
      "stateMutability": "nonpayable",
      "type": "function"
    },
    {
      "constant": true,
      "inputs": [],
      "name": "FINAL_SUPPLY",
      "outputs": [
        {
          "name": "",
          "type": "uint256"
        }
      ],
      "payable": false,
      "stateMutability": "view",
      "type": "function"
    },
    {
      "constant": true,
      "inputs": [],
      "name": "version",
      "outputs": [
        {
          "name": "",
          "type": "string"
        }
      ],
      "payable": false,
      "stateMutability": "view",
      "type": "function"
    },
    {
      "constant": true,
      "inputs": [
        {
          "name": "account",
          "type": "address"
        }
      ],
      "name": "balanceOf",
      "outputs": [
        {
          "name": "",
          "type": "uint256"
        }
      ],
      "payable": false,
      "stateMutability": "view",
      "type": "function"
    },
    {
      "constant": true,
      "inputs": [],
      "name": "registry",
      "outputs": [
        {
          "name": "",
          "type": "address"
        }
      ],
      "payable": false,
      "stateMutability": "view",
      "type": "function"
    },
    {
      "constant": true,
      "inputs": [],
      "name": "symbol",
      "outputs": [
        {
          "name": "",
          "type": "string"
        }
      ],
      "payable": false,
      "stateMutability": "view",
      "type": "function"
    },
    {
      "constant": false,
      "inputs": [
        {
          "name": "spender",
          "type": "address"
        },
        {
          "name": "subtractedValue",
          "type": "uint256"
        }
      ],
      "name": "decreaseAllowance",
      "outputs": [
        {
          "name": "",
          "type": "bool"
        }
      ],
      "payable": false,
      "stateMutability": "nonpayable",
      "type": "function"
    },
    {
      "constant": false,
      "inputs": [
        {
          "name": "recipient",
          "type": "address"
        },
        {
          "name": "amount",
          "type": "uint256"
        }
      ],
      "name": "transfer",
      "outputs": [
        {
          "name": "",
          "type": "bool"
        }
      ],
      "payable": false,
      "stateMutability": "nonpayable",
      "type": "function"
    },
    {
      "constant": true,
      "inputs": [
        {
          "name": "owner",
          "type": "address"
        },
        {
          "name": "spender",
          "type": "address"
        }
      ],
      "name": "allowance",
      "outputs": [
        {
          "name": "",
          "type": "uint256"
        }
      ],
      "payable": false,
      "stateMutability": "view",
      "type": "function"
    },
    {
      "inputs": [],
      "payable": false,
      "stateMutability": "nonpayable",
      "type": "constructor"
    },
    {
      "anonymous": false,
      "inputs": [
        {
          "indexed": true,
          "name": "from",
          "type": "address"
        },
        {
          "indexed": true,
          "name": "to",
          "type": "address"
        },
        {
          "indexed": false,
          "name": "value",
          "type": "uint256"
        }
      ],
      "name": "Transfer",
      "type": "event"
    },
    {
      "anonymous": false,
      "inputs": [
        {
          "indexed": true,
          "name": "owner",
          "type": "address"
        },
        {
          "indexed": true,
          "name": "spender",
          "type": "address"
        },
        {
          "indexed": false,
          "name": "value",
          "type": "uint256"
        }
      ],
      "name": "Approval",
      "type": "event"
    },
    {
      "constant": false,
      "inputs": [
        {
          "name": "_registry",
          "type": "address"
        }
      ],
      "name": "init",
      "outputs": [],
      "payable": false,
      "stateMutability": "nonpayable",
      "type": "function"
    },
    {
      "constant": false,
      "inputs": [
        {
          "name": "account",
          "type": "address"
        },
        {
          "name": "value",
          "type": "uint256"
        }
      ],
      "name": "mint",
      "outputs": [],
      "payable": false,
      "stateMutability": "nonpayable",
      "type": "function"
    }
  ],
  "bytecode": "0x60c0604052600560808190527f312e302e3000000000000000000000000000000000000000000000000000000060a090815262000040916003919062000212565b503480156200004e57600080fd5b506200006f336a17293b0a9e69fd9c00000064010000000062000075810204565b620002b7565b600160a060020a0382161515620000ed57604080517f08c379a000000000000000000000000000000000000000000000000000000000815260206004820152601f60248201527f45524332303a206d696e7420746f20746865207a65726f206164647265737300604482015290519081900360640190fd5b6002546200010a908264010000000062000bcf6200019682021704565b600255600160a060020a03821660009081526020819052604090205462000140908264010000000062000bcf6200019682021704565b600160a060020a0383166000818152602081815260408083209490945583518581529351929391927fddf252ad1be2c89b69c2b068fc378daa952ba7f163c4a11628f55a4df523b3ef9281900390910190a35050565b6000828201838110156200020b57604080517f08c379a000000000000000000000000000000000000000000000000000000000815260206004820152601b60248201527f536166654d6174683a206164646974696f6e206f766572666c6f770000000000604482015290519081900360640190fd5b9392505050565b828054600181600116156101000203166002900490600052602060002090601f016020900481019282601f106200025557805160ff191683800117855562000285565b8280016001018555821562000285579182015b828111156200028557825182559160200191906001019062000268565b506200029392915062000297565b5090565b620002b491905b808211156200029357600081556001016200029e565b90565b610d5480620002c76000396000f3fe6080604052600436106100f05763ffffffff7c010000000000000000000000000000000000000000000000000000000060003504166306fdde0381146100f5578063095ea7b31461017f57806318160ddd146101cc57806319ab453c146101f357806323b872dd146102285780632ff2e9dc1461026b578063313ce5671461028057806339509351146102ab57806339605da2146102e457806340c10f19146102f957806354fd4d501461033257806370a08231146103475780637b1039991461037a57806395d89b41146103ab578063a457c2d7146103c0578063a9059cbb146103f9578063dd62ed3e14610432575b600080fd5b34801561010157600080fd5b5061010a61046d565b6040805160208082528351818301528351919283929083019185019080838360005b8381101561014457818101518382015260200161012c565b50505050905090810190601f1680156101715780820380516001836020036101000a031916815260200191505b509250505060405180910390f35b34801561018b57600080fd5b506101b8600480360360408110156101a257600080fd5b50600160a060020a0381351690602001356104a4565b604080519115158252519081900360200190f35b3480156101d857600080fd5b506101e16104ba565b60408051918252519081900360200190f35b3480156101ff57600080fd5b506102266004803603602081101561021657600080fd5b5035600160a060020a03166104c0565b005b34801561023457600080fd5b506101b86004803603606081101561024b57600080fd5b50600160a060020a038135811691602081013590911690604001356104ef565b34801561027757600080fd5b506101e1610546565b34801561028c57600080fd5b50610295610555565b6040805160ff9092168252519081900360200190f35b3480156102b757600080fd5b506101b8600480360360408110156102ce57600080fd5b50600160a060020a03813516906020013561055a565b3480156102f057600080fd5b506101e1610596565b34801561030557600080fd5b506102266004803603604081101561031c57600080fd5b50600160a060020a0381351690602001356105a5565b34801561033e57600080fd5b5061010a6106db565b34801561035357600080fd5b506101e16004803603602081101561036a57600080fd5b5035600160a060020a0316610769565b34801561038657600080fd5b5061038f610784565b60408051600160a060020a039092168252519081900360200190f35b3480156103b757600080fd5b5061010a610793565b3480156103cc57600080fd5b506101b8600480360360408110156103e357600080fd5b50600160a060020a0381351690602001356107ca565b34801561040557600080fd5b506101b86004803603604081101561041c57600080fd5b50600160a060020a038135169060200135610806565b34801561043e57600080fd5b506101e16004803603604081101561045557600080fd5b50600160a060020a0381358116916020013516610813565b60408051808201909152600781527f4e65777344414f00000000000000000000000000000000000000000000000000602082015281565b60006104b133848461083e565b50600192915050565b60025490565b6004805473ffffffffffffffffffffffffffffffffffffffff1916600160a060020a0392909216919091179055565b60006104fc8484846109ab565b600160a060020a03841660009081526001602090815260408083203380855292529091205461053c918691610537908663ffffffff610b6f16565b61083e565b5060019392505050565b6a17293b0a9e69fd9c00000081565b601281565b336000818152600160209081526040808320600160a060020a038716845290915281205490916104b1918590610537908663ffffffff610bcf16565b6a52b7d2dcc80cd2e400000081565b600454600160a060020a0316331461062d576040805160e560020a62461bcd02815260206004820152603760248201527f666f78636f696e3a3a6d696e743a204f6e6c7920746865204e6577734c696d6960448201527f7465642063616e206d696e74206e657720746f6b656e73000000000000000000606482015290519081900360840190fd5b6a52b7d2dcc80cd2e4000000610651826106456104ba565b9063ffffffff610bcf16565b11156106cd576040805160e560020a62461bcd02815260206004820152602360248201527f666f78636f696e3a3a6d696e743a20457863656564732066696e616c2073757060448201527f706c790000000000000000000000000000000000000000000000000000000000606482015290519081900360840190fd5b6106d78282610c33565b5050565b6003805460408051602060026001851615610100026000190190941693909304601f810184900484028201840190925281815292918301828280156107615780601f1061073657610100808354040283529160200191610761565b820191906000526020600020905b81548152906001019060200180831161074457829003601f168201915b505050505081565b600160a060020a031660009081526020819052604090205490565b600454600160a060020a031681565b60408051808201909152600381527f464f580000000000000000000000000000000000000000000000000000000000602082015281565b336000818152600160209081526040808320600160a060020a038716845290915281205490916104b1918590610537908663ffffffff610b6f16565b60006104b13384846109ab565b600160a060020a03918216600090815260016020908152604080832093909416825291909152205490565b600160a060020a03831615156108c3576040805160e560020a62461bcd028152602060048201526024808201527f45524332303a20617070726f76652066726f6d20746865207a65726f2061646460448201527f7265737300000000000000000000000000000000000000000000000000000000606482015290519081900360840190fd5b600160a060020a0382161515610949576040805160e560020a62461bcd02815260206004820152602260248201527f45524332303a20617070726f766520746f20746865207a65726f20616464726560448201527f7373000000000000000000000000000000000000000000000000000000000000606482015290519081900360840190fd5b600160a060020a03808416600081815260016020908152604080832094871680845294825291829020859055815185815291517f8c5be1e5ebec7d5bd14f71427d1e84f3dd0314c0f7b2291e5b200ac8c7c3b9259281900390910190a3505050565b600160a060020a0383161515610a31576040805160e560020a62461bcd02815260206004820152602560248201527f45524332303a207472616e736665722066726f6d20746865207a65726f20616460448201527f6472657373000000000000000000000000000000000000000000000000000000606482015290519081900360840190fd5b600160a060020a0382161515610ab7576040805160e560020a62461bcd02815260206004820152602360248201527f45524332303a207472616e7366657220746f20746865207a65726f206164647260448201527f6573730000000000000000000000000000000000000000000000000000000000606482015290519081900360840190fd5b600160a060020a038316600090815260208190526040902054610ae0908263ffffffff610b6f16565b600160a060020a038085166000908152602081905260408082209390935590841681522054610b15908263ffffffff610bcf16565b600160a060020a038084166000818152602081815260409182902094909455805185815290519193928716927fddf252ad1be2c89b69c2b068fc378daa952ba7f163c4a11628f55a4df523b3ef92918290030190a3505050565b600082821115610bc9576040805160e560020a62461bcd02815260206004820152601e60248201527f536166654d6174683a207375627472616374696f6e206f766572666c6f770000604482015290519081900360640190fd5b50900390565b600082820183811015610c2c576040805160e560020a62461bcd02815260206004820152601b60248201527f536166654d6174683a206164646974696f6e206f766572666c6f770000000000604482015290519081900360640190fd5b9392505050565b600160a060020a0382161515610c93576040805160e560020a62461bcd02815260206004820152601f60248201527f45524332303a206d696e7420746f20746865207a65726f206164647265737300604482015290519081900360640190fd5b600254610ca6908263ffffffff610bcf16565b600255600160a060020a038216600090815260208190526040902054610cd2908263ffffffff610bcf16565b600160a060020a0383166000818152602081815260408083209490945583518581529351929391927fddf252ad1be2c89b69c2b068fc378daa952ba7f163c4a11628f55a4df523b3ef9281900390910190a3505056fea165627a7a7230582034a4a6b303c025c55aa9fce65d61a0f899e3748c43a3eeeb48bd81f46947e8eb0029",
  "source": "pragma solidity 0.5.0;\n// pragma experimental ABIEncoderV2;\n\nimport { ERC20 } from \"openzeppelin-solidity/contracts/token/ERC20/ERC20.sol\";\n\n//todo:import ownable.sol and add onlyowner modifier to function init.\n/**\n * @title foxcoin\n * @dev ERC20 token rewarded to journalists\n */\ncontract Foxcoin is ERC20 {\n\n    string public constant name = \"NewsDAO\";\n    string public constant symbol = \"FOX\";\n    uint8 public constant decimals = 18;\n    string public version = \"1.0.0\";\n\n    uint public constant INITIAL_SUPPLY = 28000000e18;\n    uint public constant FINAL_SUPPLY = 100000000e18; \n\n    address public registry;\n\t\n\tconstructor() public {\n        _mint(msg.sender, INITIAL_SUPPLY);\n    }\n    \n    function init(address _registry) public {\n        registry = _registry;\n    }\n\n    function mint(address account, uint256 value) public {\n        require(msg.sender == registry, \"foxcoin::mint: Only the NewsLimited can mint new tokens\");\n        require(totalSupply().add(value) <= FINAL_SUPPLY, \"foxcoin::mint: Exceeds final supply\");\n\n        _mint(account, value);\n    }\n\n}\n",
  "sourcePath": "/media/eman-herawy/06a83b1f-0bf4-4872-8ba9-a878bd1ab3251/home/eherrawy/LocalD/work/gitcoin/true-news/NewsLimited/contract-with-truffle/contracts/foxcoin.sol",
  "compiler": {
    "name": "solc",
    "version": "0.5.0+commit.1d4f565a.Linux.g++"
  },
  "schemaVersion": "3.0.0",
  "updatedAt": "2019-07-11T01:53:04.104Z",
  "devdoc": {
    "details": "ERC20 token rewarded to journalists",
    "methods": {
      "allowance(address,address)": {
        "details": "See `IERC20.allowance`."
      },
      "approve(address,uint256)": {
        "details": "See `IERC20.approve`.     * Requirements:     * - `spender` cannot be the zero address."
      },
      "balanceOf(address)": {
        "details": "See `IERC20.balanceOf`."
      },
      "decreaseAllowance(address,uint256)": {
        "details": "Atomically decreases the allowance granted to `spender` by the caller.     * This is an alternative to `approve` that can be used as a mitigation for problems described in `IERC20.approve`.     * Emits an `Approval` event indicating the updated allowance.     * Requirements:     * - `spender` cannot be the zero address. - `spender` must have allowance for the caller of at least `subtractedValue`."
      },
      "increaseAllowance(address,uint256)": {
        "details": "Atomically increases the allowance granted to `spender` by the caller.     * This is an alternative to `approve` that can be used as a mitigation for problems described in `IERC20.approve`.     * Emits an `Approval` event indicating the updated allowance.     * Requirements:     * - `spender` cannot be the zero address."
      },
      "totalSupply()": {
        "details": "See `IERC20.totalSupply`."
      },
      "transfer(address,uint256)": {
        "details": "See `IERC20.transfer`.     * Requirements:     * - `recipient` cannot be the zero address. - the caller must have a balance of at least `amount`."
      },
      "transferFrom(address,address,uint256)": {
        "details": "See `IERC20.transferFrom`.     * Emits an `Approval` event indicating the updated allowance. This is not required by the EIP. See the note at the beginning of `ERC20`;     * Requirements: - `sender` and `recipient` cannot be the zero address. - `sender` must have a balance of at least `value`. - the caller must have allowance for `sender`'s tokens of at least `amount`."
      }
    },
    "title": "foxcoin"
  },
  "userdoc": {
    "methods": {}
  }
}