{
  "contractName": "HumanityRegistry",
  "abi": [
    {
      "constant": true,
      "inputs": [],
      "name": "governance",
      "outputs": [
        {
          "name": "",
          "type": "address"
        }
      ],
      "payable": false,
      "stateMutability": "view",
      "type": "function"
    },
    {
      "constant": true,
      "inputs": [
        {
          "name": "",
          "type": "address"
        }
      ],
      "name": "humans",
      "outputs": [
        {
          "name": "",
          "type": "bool"
        }
      ],
      "payable": false,
      "stateMutability": "view",
      "type": "function"
    },
    {
      "constant": false,
      "inputs": [
        {
          "name": "_governance",
          "type": "address"
        }
      ],
      "name": "initplz",
      "outputs": [],
      "payable": false,
      "stateMutability": "nonpayable",
      "type": "function"
    },
    {
      "constant": false,
      "inputs": [
        {
          "name": "who",
          "type": "address"
        }
      ],
      "name": "add",
      "outputs": [],
      "payable": false,
      "stateMutability": "nonpayable",
      "type": "function"
    },
    {
      "constant": false,
      "inputs": [
        {
          "name": "who",
          "type": "address"
        }
      ],
      "name": "remove",
      "outputs": [],
      "payable": false,
      "stateMutability": "nonpayable",
      "type": "function"
    },
    {
      "constant": true,
      "inputs": [
        {
          "name": "who",
          "type": "address"
        }
      ],
      "name": "isHuman",
      "outputs": [
        {
          "name": "",
          "type": "bool"
        }
      ],
      "payable": false,
      "stateMutability": "view",
      "type": "function"
    }
  ],
  "bytecode": "0x608060405234801561001057600080fd5b506104cb806100206000396000f3fe6080604052600436106100775763ffffffff7c01000000000000000000000000000000000000000000000000000000006000350416630a3b0a4f811461007c578063101c9237146100b157806329092d0e146100e45780635aa6e675146101175780639a98ce2714610148578063f72c436f1461018f575b600080fd5b34801561008857600080fd5b506100af6004803603602081101561009f57600080fd5b5035600160a060020a03166101c2565b005b3480156100bd57600080fd5b506100af600480360360208110156100d457600080fd5b5035600160a060020a0316610333565b3480156100f057600080fd5b506100af6004803603602081101561010757600080fd5b5035600160a060020a0316610362565b34801561012357600080fd5b5061012c61045d565b60408051600160a060020a039092168252519081900360200190f35b34801561015457600080fd5b5061017b6004803603602081101561016b57600080fd5b5035600160a060020a031661046c565b604080519115158252519081900360200190f35b34801561019b57600080fd5b5061017b600480360360208110156101b257600080fd5b5035600160a060020a0316610481565b600154600160a060020a0316331461026157604080517f08c379a000000000000000000000000000000000000000000000000000000000815260206004820152603a60248201527f48756d616e69747952656769737472793a3a6164643a204f6e6c7920676f766560448201527f726e616e63652063616e2061646420616e206964656e74697479000000000000606482015290519081900360840190fd5b600160a060020a03811660009081526020819052604090205460ff161561030f57604080517f08c379a000000000000000000000000000000000000000000000000000000000815260206004820152603960248201527f48756d616e69747952656769737472793a3a6164643a2041646472657373206960448201527f7320616c7265616479206f6e2074686520726567697374727900000000000000606482015290519081900360840190fd5b600160a060020a03166000908152602081905260409020805460ff19166001179055565b6001805473ffffffffffffffffffffffffffffffffffffffff1916600160a060020a0392909216919091179055565b600154600160a060020a0316331480610383575033600160a060020a038216145b151561043c57604080517f08c379a000000000000000000000000000000000000000000000000000000000815260206004820152605660248201527f48756d616e69747952656769737472793a3a72656d6f76653a204f6e6c79206760448201527f6f7665726e616e6365206f7220746865206964656e74697479206f776e65722060648201527f63616e2072656d6f766520616e206964656e7469747900000000000000000000608482015290519081900360a40190fd5b600160a060020a03166000908152602081905260409020805460ff19169055565b600154600160a060020a031681565b60006020819052908152604090205460ff1681565b600160a060020a031660009081526020819052604090205460ff169056fea165627a7a72305820255f9a6a4f50a1511182a067902a6aede506710de6109f8e8b27e057389f5aff0029",
  "source": "pragma solidity 0.5.0;\n// pragma experimental ABIEncoderV2;\n\ncontract HumanityRegistry {\n\n    mapping (address => bool) public humans;\n\n    address public governance;\n\n    function initplz(address _governance) public {\n        \n        governance = _governance;\n    }\n\n    function add(address who) public {\n        require(msg.sender == governance, \"HumanityRegistry::add: Only governance can add an identity\");\n        require(humans[who] == false, \"HumanityRegistry::add: Address is already on the registry\");\n        humans[who] = true;\n    }\n\n    function remove(address who) public {\n        require(\n            msg.sender == governance || msg.sender == who,\n            \"HumanityRegistry::remove: Only governance or the identity owner can remove an identity\"\n        );\n        delete humans[who];\n    }\n\n    function isHuman(address who) public view returns (bool) {\n        return humans[who];\n    }\n\n \n}",
  "sourcePath": "/media/eman-herawy/06a83b1f-0bf4-4872-8ba9-a878bd1ab3251/home/eherrawy/LocalD/work/gitcoin/true-news/NewsLimited/contract-with-truffle/contracts/HumanityRegistry.sol",
  "compiler": {
    "name": "solc",
    "version": "0.5.0+commit.1d4f565a.Linux.g++"
  },
  "schemaVersion": "3.0.0",
  "updatedAt": "2019-07-11T01:53:04.101Z",
  "devdoc": {
    "methods": {}
  },
  "userdoc": {
    "methods": {}
  }
}