{
  "contractName": "NewsLimited",
  "abi": [
    {
      "constant": true,
      "inputs": [],
      "name": "rumorsCount",
      "outputs": [
        {
          "name": "",
          "type": "uint256"
        }
      ],
      "payable": false,
      "stateMutability": "view",
      "type": "function",
      "signature": "0x0d416844"
    },
    {
      "constant": true,
      "inputs": [],
      "name": "news",
      "outputs": [
        {
          "name": "",
          "type": "address"
        }
      ],
      "payable": false,
      "stateMutability": "view",
      "type": "function",
      "signature": "0x5144417c"
    },
    {
      "constant": true,
      "inputs": [],
      "name": "registry",
      "outputs": [
        {
          "name": "",
          "type": "address"
        }
      ],
      "payable": false,
      "stateMutability": "view",
      "type": "function",
      "signature": "0x7b103999"
    },
    {
      "anonymous": false,
      "inputs": [
        {
          "indexed": false,
          "name": "x",
          "type": "address"
        },
        {
          "indexed": false,
          "name": "w",
          "type": "string"
        }
      ],
      "name": "rumor",
      "type": "event",
      "signature": "0xfa84967dc7ab97c11128a4eb446bc9e7762cc54df3816c298ea811bbb642a3c8"
    },
    {
      "constant": false,
      "inputs": [
        {
          "name": "_registry",
          "type": "address"
        },
        {
          "name": "_news",
          "type": "address"
        }
      ],
      "name": "initplz",
      "outputs": [],
      "payable": false,
      "stateMutability": "nonpayable",
      "type": "function",
      "signature": "0xa3a23fe7"
    },
    {
      "constant": false,
      "inputs": [
        {
          "name": "_weblink",
          "type": "string"
        }
      ],
      "name": "Rumors",
      "outputs": [],
      "payable": false,
      "stateMutability": "nonpayable",
      "type": "function",
      "signature": "0x6791f1e3"
    },
    {
      "constant": true,
      "inputs": [
        {
          "name": "count",
          "type": "uint256"
        }
      ],
      "name": "getRumor",
      "outputs": [
        {
          "name": "",
          "type": "address"
        },
        {
          "name": "",
          "type": "string"
        }
      ],
      "payable": false,
      "stateMutability": "view",
      "type": "function",
      "signature": "0x33c20753"
    },
    {
      "constant": true,
      "inputs": [],
      "name": "getCount",
      "outputs": [
        {
          "name": "",
          "type": "uint256"
        }
      ],
      "payable": false,
      "stateMutability": "view",
      "type": "function",
      "signature": "0xa87d942c"
    },
    {
      "constant": false,
      "inputs": [
        {
          "name": "_jor",
          "type": "address"
        },
        {
          "name": "_amount",
          "type": "uint256"
        }
      ],
      "name": "support",
      "outputs": [
        {
          "name": "",
          "type": "bool"
        }
      ],
      "payable": false,
      "stateMutability": "nonpayable",
      "type": "function",
      "signature": "0x36c96cc0"
    }
  ],
  "bytecode": "0x6080604052600060025534801561001557600080fd5b50610bc0806100256000396000f3fe60806040526004361061008d5763ffffffff7c01000000000000000000000000000000000000000000000000000000006000350416630d416844811461009257806333c20753146100b957806336c96cc0146101745780635144417c146101c15780636791f1e3146101f25780637b103999146102a7578063a3a23fe7146102bc578063a87d942c146102f7575b600080fd5b34801561009e57600080fd5b506100a761030c565b60408051918252519081900360200190f35b3480156100c557600080fd5b506100e3600480360360208110156100dc57600080fd5b5035610312565b6040518083600160a060020a0316600160a060020a0316815260200180602001828103825283818151815260200191508051906020019080838360005b83811015610138578181015183820152602001610120565b50505050905090810190601f1680156101655780820380516001836020036101000a031916815260200191505b50935050505060405180910390f35b34801561018057600080fd5b506101ad6004803603604081101561019757600080fd5b50600160a060020a0381351690602001356103ca565b604080519115158252519081900360200190f35b3480156101cd57600080fd5b506101d66105f3565b60408051600160a060020a039092168252519081900360200190f35b3480156101fe57600080fd5b506102a56004803603602081101561021557600080fd5b81019060208101813564010000000081111561023057600080fd5b82018360208201111561024257600080fd5b8035906020019184600183028401116401000000008311171561026457600080fd5b91908080601f016020809104026020016040519081016040528093929190818152602001838380828437600092019190915250929550610602945050505050565b005b3480156102b357600080fd5b506101d661082f565b3480156102c857600080fd5b506102a5600480360360408110156102df57600080fd5b50600160a060020a038135811691602001351661083e565b34801561030357600080fd5b506100a7610879565b60025481565b600081815260036020908152604080832060018082015482548451600261010094831615949094026000190190911692909204601f8101869004860283018601909452838252606094600160a060020a039091169383918301828280156103ba5780601f1061038f576101008083540402835291602001916103ba565b820191906000526020600020905b81548152906001019060200180831161039d57829003601f168201915b5050505050905091509150915091565b60008054604080517ff72c436f000000000000000000000000000000000000000000000000000000008152600160a060020a0386811660048301529151919092169163f72c436f916024808301926020929190829003018186803b15801561043157600080fd5b505afa158015610445573d6000803e3d6000fd5b505050506040513d602081101561045b57600080fd5b505115156104ca57604080517f08c379a000000000000000000000000000000000000000000000000000000000815260206004820152601860248201527f737570706f7274206a6f75726e616c69737473206f6e6c790000000000000000604482015290519081900360640190fd5b6000821161053957604080517f08c379a000000000000000000000000000000000000000000000000000000000815260206004820152600b60248201527f6e6f207a65726f20706c7a000000000000000000000000000000000000000000604482015290519081900360640190fd5b600154604080517f23b872dd0000000000000000000000000000000000000000000000000000000081523360048201819052600160a060020a038781166024840152604483018790529251909392909216916323b872dd916064808201926020929091908290030181600087803b1580156105b357600080fd5b505af11580156105c7573d6000803e3d6000fd5b505050506040513d60208110156105dd57600080fd5b506105e9905084610880565b5060019392505050565b600154600160a060020a031681565b600054604080517ff72c436f0000000000000000000000000000000000000000000000000000000081523360048201529051600160a060020a039092169163f72c436f91602480820192602092909190829003018186803b15801561066657600080fd5b505afa15801561067a573d6000803e3d6000fd5b505050506040513d602081101561069057600080fd5b505115156106ff57604080517f08c379a000000000000000000000000000000000000000000000000000000000815260206004820152600f60248201527f6a6f75726e616c697374206f6e6c790000000000000000000000000000000000604482015290519081900360640190fd5b7ffa84967dc7ab97c11128a4eb446bc9e7762cc54df3816c298ea811bbb642a3c833826040518083600160a060020a0316600160a060020a0316815260200180602001828103825283818151815260200191508051906020019080838360005b8381101561077757818101518382015260200161075f565b50505050905090810190601f1680156107a45780820380516001836020036101000a031916815260200191505b50935050505060405180910390a16002805460010190556107c3610ae4565b81815233602080830191909152600254600090815260038252604090208251805184936107f4928492910190610afc565b50602091909101516001909101805473ffffffffffffffffffffffffffffffffffffffff1916600160a060020a039092169190911790555050565b600054600160a060020a031681565b60008054600160a060020a0393841673ffffffffffffffffffffffffffffffffffffffff199182161790915560018054929093169116179055565b6002545b90565b600154604080517f18160ddd0000000000000000000000000000000000000000000000000000000081529051600092600160a060020a0316916318160ddd916004808301926020929190829003018186803b1580156108de57600080fd5b505afa1580156108f2573d6000803e3d6000fd5b505050506040513d602081101561090857600080fd5b505190506a17293b0a9e69fd9c0000008110156109b357600154604080517f40c10f19000000000000000000000000000000000000000000000000000000008152600160a060020a03858116600483015269065a4da25d3016c000006024830152915191909216916340c10f1991604480830192600092919082900301818387803b15801561099657600080fd5b505af11580156109aa573d6000803e3d6000fd5b50505050610ae0565b6a260ce0ff28d2b2ee000000811015610a3d57600154604080517f40c10f19000000000000000000000000000000000000000000000000000000008152600160a060020a03858116600483015269043c33c19375648000006024830152915191909216916340c10f1991604480830192600092919082900301818387803b15801561099657600080fd5b6a52b7d2dcc80cd2e4000000811015610ae057600154604080517f40c10f19000000000000000000000000000000000000000000000000000000008152600160a060020a03858116600483015269014542ba12a337c000006024830152915191909216916340c10f1991604480830192600092919082900301818387803b158015610ac757600080fd5b505af1158015610adb573d6000803e3d6000fd5b505050505b5050565b60408051808201909152606081526000602082015290565b828054600181600116156101000203166002900490600052602060002090601f016020900481019282601f10610b3d57805160ff1916838001178555610b6a565b82800160010185558215610b6a579182015b82811115610b6a578251825591602001919060010190610b4f565b50610b76929150610b7a565b5090565b61087d91905b80821115610b765760008155600101610b8056fea165627a7a7230582087172b3b1dd9fd7077b63d3dcdd68d1cecbc92e1478be74d68929ba72c82ea940029",
  "source": "pragma solidity 0.5.0;\n\n//todo,onlyowner modifier on initplz function or make it constructor or use homework.\nimport { HumanityRegistry } from \"./HumanityRegistry.sol\";\nimport { Ifox } from \"./Ifox.sol\";\n\ncontract NewsLimited {\n    event rumor(address x, string w);\n    HumanityRegistry public registry;\n    Ifox public news;\n    uint256 public rumorsCount=0;\n    \t\tstruct rumorData{ \n\t\tstring url;\n\t\taddress sender;\n\t}\n    \tmapping (uint256 => rumorData) usersRoumors;\n\n    function initplz(HumanityRegistry _registry, Ifox _news) public {\n        registry = _registry;\n        news = _news;\n    }\n    \n    function Rumors(string memory _weblink) public {\n        require(registry.isHuman(msg.sender), \"journalist only\");\n        \n        emit rumor(msg.sender, _weblink);\n        rumorsCount++;\n\t \t rumorData memory newRumor;\n          newRumor.url=_weblink;\n          newRumor.sender=msg.sender;\n            usersRoumors[rumorsCount]=newRumor;\n    } \n    \tfunction getRumor(uint256 count)public view returns (address ,string memory) {\n\t\treturn (usersRoumors[count].sender,usersRoumors[count].url);\n\t}\n    \tfunction getCount()public view returns (uint256) {\n\t\treturn (rumorsCount);\n\t}\n    function reward(address jor) internal {\n    uint totalSupply = news.totalSupply();\n        \n    if (totalSupply < 28000000e18) {\n            news.mint(jor, 30000e18); // 1 - 100\n    } else if (totalSupply < 46000000e18) {\n             news.mint(jor, 20000e18); // 101 - 1000\n    } else if (totalSupply < 100000000e18) {\n            news.mint(jor, 6000e18); // 1001 - 10000\n    }\n    }\n    function support(address _jor, uint256 _amount) public returns(bool) {\n\t    require(registry.isHuman(_jor), \"support journalists only\");\n\t\trequire(_amount > 0, \"no zero plz\");\n\t\taddress payer = msg.sender;\n\t\tnews.transferFrom(payer, _jor, _amount);\n        reward(_jor);\n        return true;\n    }\n}",
  "sourcePath": "/media/eman-herawy/06a83b1f-0bf4-4872-8ba9-a878bd1ab3251/home/eherrawy/LocalD/work/gitcoin/true-news/NewsLimited/contract-with-truffle/contracts/NewsLimited.sol",
  "compiler": {
    "name": "solc",
    "version": "0.5.0+commit.1d4f565a.Linux.g++"
  },
  "schemaVersion": "3.0.0",
  "updatedAt": "2019-07-11T03:19:08.148Z",
  "devdoc": {
    "methods": {}
  },
  "userdoc": {
    "methods": {}
  }
}